:100000000C94B5020C9479150C9452150C94DD02E5
:100010000C94DD020C94DD020C9438030C94DD0288
:100020000C94DD020C94DD020C94DD020C94DD02D4
:100030000C94DD020C94DD020C94DD020C94DD02C4
:100040000C9408150C94DD020C94F01E0C94CA1E3E
:100050000C94DD020C94DD020C94DD020C94DD02A4
:100060000C94DD020C94DD02303B3235353B2564C7
:100070003B303B25643B0025643B25643B25643BCA
:1000800025643B25643B25730A002154534D3A52A5
:100090004144494F3A4641494C0A0054534D3A476E
:1000A00057204D4F44450A0054534D3A524144495C
:1000B0004F3A4F4B0A0054534D3A494E49540A00A7
:1000C00054534D3A52454144590A0054534D3A5005
:1000D00044540A002154534D3A4641494C55524527
:1000E0000A0025735453503A4D53473A53454E44F2
:1000F0002025642D25642D25642D256420733D2540
:10010000642C633D25642C743D25642C70743D255E
:10011000642C6C3D25642C73673D25642C66743D0E
:1001200025642C73743D25733A25730A00215453BA
:10013000503A524F5554494E473A4445535420552E
:100140004E4B4E4F574E2028646573743D25642CEA
:10015000205354503D2564290A00215453503A46F7
:100160005041523A41435449564520286D73672007
:100170006E6F742073656E64290A00215453503ADF
:1001800053454E443A544E520A00215453503A5368
:10019000414E43484B3A4641494C0A005453503A69
:1001A00050494E473A53454E442028646573743D88
:1001B0002564290A005453503A43484B55504C3A51
:1001C0004641494C2028686F70733D2564290A0018
:1001D0005453503A43484B55504C3A4447574320A8
:1001E000286F6C643D25642C6E65773D256429007D
:1001F0005453503A43484B55504C3A4F4B0A0054D5
:1002000053503A43484B55504C3A4F4B2028464C9C
:10021000444354524C290A005453503A4D53473AE0
:1002200052454C2050784E472028686F70733D250A
:1002300064290A005453503A4D53473A52454C20D2
:100240004D53470A005453503A4D53473A4657448A
:10025000204243204D53470A005453503A4D5347D0
:100260003A47574C204F4B0A005453503A4D53478E
:100270003A4650415220524551202873656E6465BC
:10028000723D2564290A005453503A4D53473A426F
:10029000430A005453503A4D53473A504F4E47206B
:1002A000524543562028686F70733D2564290A0023
:1002B0005453503A4D53473A50494E4745442028ED
:1002C00049443D25642C20686F70733D2564290ADC
:1002D000005453503A4D53473A41434B206D736796
:1002E0000A00215453503A4D53473A505645522034
:1002F0006D69736D617463680A005453503A4D53CD
:10030000473A524541442025642D25642D2564201B
:10031000733D25642C633D25642C743D25642C704D
:10032000743D25642C6C3D25642C73673D25643A2F
:1003300025730A005453503A53414E43484B3A4FA9
:100340004B0A004574683A204D65737361676520F8
:10035000746F6F206C6F6E670A004574683A2025D1
:10036000730A004574683A20646973636F6E6E6542
:1003700063740A004574683A20636F6E6E65637437
:100380000A005453503A4352543A4F4B0A004944DE
:100390003A202564207669612025640A0000000067
:1003A0000800020100000304070000000000000034
:1003B0000049503A20004E6F20726567697374726D
:1003C0006174696F6E2072657175697265640A0087
:1003D000496E697420636F6D706C6574652C20695B
:1003E000643D25642C20706172656E743D25642C1B
:1003F0002064697374616E63653D25642C207265A9
:1004000067697374726174696F6E3D25640A005385
:1004100074617274696E67206761746577617920B1
:1004200028524E4E47412D2C20322E302E30290A94
:100430000000000000250028002B00000000002420
:100440000027002A00040404040404040402020235
:100450000202020303030303030102040810204005
:100460008001020408102001020408102000407AD4
:1004700010F35A00A0724E18090010A5D4E800002D
:10048000E87648170000E40B54020000CA9A3B00CB
:100490000000E1F505000080969800000040420F42
:1004A000000000A08601000000102700000000E806
:1004B00003000000006400000000000A00000000CB
:1004C000000100000000002C76D888DC674F08236C
:1004D000DFC1DFAE59E1B1B796E5E3E453C63AE6D2
:1004E00051997696E8E6C28426EB898C9B62ED40B2
:1004F0007C6FFCEFBC9C9F40F2BAA56FA5F4900501
:100500005A2AF75C936B6CF9676DC11BFCE0E40D34
:1005100047FEF520E6B500D0ED902E030094357728
:10052000050080841E080000204E0A000000C80C50
:10053000333333330F986E12831141EF8D211489B9
:100540003BE65516CFFEE6DB18D1844B381BF77C13
:100550001D901DA4BBE424203284725E228100C958
:10056000F124ECA1E53D27007E2311241FBECFEF2F
:10057000D8E0DEBFCDBF12E0A0E0B1E0E4E2F6E5F6
:1005800002C005900D92A832B107D9F725E0A8E284
:10059000B2E001C01D92A030B207E1F712E0C5EB56
:1005A000D2E004C02197FE010E941F24C43BD10762
:1005B000C9F70E9449220C94102B0C940000089556
:1005C000DC01ED91FC91048CF58DE02D099591E015
:1005D000892708959C014091900350919103909137
:1005E00097034217530741F0907F909397033093FE
:1005F00091032093900307C081E0890F8F70907F53
:10060000982B90939703E0919003F09191030190C0
:10061000F081E02D309709F009950E94FC14609359
:10062000920370939303809394039093950308959A
:100630000F931F930E94FC14009192031091930357
:100640002091940330919503DC01CB01801B910B29
:10065000A20BB30B81319742A105B10530F086E1C1
:1006600091E01F910F910C94EA021F910F91089550
:100670001F920F920FB60F9211240F900FBE0F9082
:100680001F9018956115710579F0FB01019000200C
:10069000E9F73197AF01461B570BDC01ED91FC9157
:1006A0000280F381E02D099480E090E00895CF93DB
:1006B000DF93EC0161EA72E00E94C9192C819F93DB
:1006C0008F938D811F928F9324FB882780F91F922F
:1006D0008F9327701F922F938E811F928F93898102
:1006E0001F928F9387E790E09F938F931F9288E7E5
:1006F0008F9389E292E09F938F930E9441258DB75B
:100700009EB742960FB6F8949EBF0FBE8DBF80E095
:1007100090E021F082E090E00E94000069E272E047
:1007200085EA94E00E94420381E0DF91CF91089531
:1007300090911B03891739F1682F80931B03109246
:100740007804109279048FEF80937D0485E0809384
:100750007C0480917B04807E836080937B0487E7A8
:1007600094E00E94FF130E94570380911B0388238B
:1007700051F00E94FC146093170370931803809348
:10078000190390931A030895CF92DF92EF92FF928C
:100790000F931F93CF93DF93CDB7DEB7CC52D140E9
:1007A0000FB6F894DEBF0FBECDBFCE01895C9E4F61
:1007B000FC01C190D1907F011F9289E08F931F921D
:1007C00083E08F9388E690E09F938F9381E08F93EF
:1007D0008BE28F938E010F5F1F4F1F930F930E9429
:1007E0004125B8018BEA93E00E9442039701A601DC
:1007F00068E770E0C8010E9471258AE0E9968FAF32
:10080000E997EA961FAEEA97B8018BEA93E00E9457
:1008100042038BEA93E00E94F91C0FB6F894DEBF06
:100820000FBECDBFC45DDE4F0FB6F894DEBF0FBE66
:10083000CDBFDF91CF911F910F91FF90EF90DF908F
:10084000CF900895AF92BF92CF92DF92EF92FF9236
:100850000F931F93CF93DF93EC010A81809196034E
:1008600080FF0CC00F3F91F18AE591E09F938F9339
:100870000E94C4030F900F9010E000C1011103C04B
:1008800000918E0323C00F3F09F1E02EF12CC70128
:1008900003960E94A12A8F3FC1F480918E03988114
:1008A0009817A1F01F928F93FF920F938DE291E022
:1008B0009F938F930E94C40300918E030F900F901B
:1008C0000F900F900F900F9001C0082F1B811C7F7D
:1008D00012601B8380918D03888312FD08C01695DA
:1008E0001695169580E090E0892B31F409C080E0E0
:1008F00090E0892B39F010E280E090E00E94000047
:100900001A3110F010E201C0195F60E085E00E942A
:10091000761483E092E00197F1F76EE080E20E94A6
:10092000961B8BE891E00197F1F7602F8AE20E9415
:10093000961B602F80E30E94961B81EE0E94B61BDF
:1009400020E0412FBE0180EA0E94721A61E085E03A
:100950000E947614EE24EA94FE2C8FEF0E94B61BC0
:10096000182F807349F4C7010197EF2811F07C011B
:10097000F4CFEE24EA94FE2C60E085E00E94761429
:1009800060E387E20E94961B14FF03C081EE0E9481
:10099000B61B0E94A71B15FF03C011E0EF2809F446
:1009A00010E068ED72E0CE010E94C9190F3F29F0F6
:1009B000111106C069EF71E005C066EF71E002C079
:1009C0006EEF71E0E0919703E295EF702B8122FBCF
:1009D000AA24A0F8522F5695569556952C81B22EE2
:1009E000B294B69437E0B322CD80422F4770DE80B8
:1009F000EA80A02FB0E0F880F981111105C00F3F07
:100A000019F021E032E002C027E232E09F938F9399
:100A10007F936F931F92EF931F92AF921F925F93FA
:100A20001F92BF921F92CF921F924F931F92DF92FD
:100A30001F92EF92BF93AF931F92FF921F92FF936B
:100A40003F932F9382EE90E09F938F930E94C40375
:100A50008DB79EB74E960FB6F8949EBF0FBE8DBF52
:100A600011110CC00F3F11F411E008C080E090E0BC
:100A7000892B21F085E690E00E940000812FDF9114
:100A8000CF911F910F91FF90EF90DF90CF90BF908B
:100A9000AF9008952091960322FD0C9422048BE7D9
:100AA00091E09F938F930E94C4030F900F9080E07A
:100AB00008952F923F924F925F926F927F928F9202
:100AC0009F92AF92BF92CF92DF92EF92FF920F93DD
:100AD0001F93CF93DF9300D01F92CDB7DEB78091E5
:100AE000960384FF71C30E94FC1400910B031091C4
:100AF0000C0320910D0330910E03005A15412F4F26
:100B00003F4F0617170728073907B8F50E94FC144E
:100B100060930B0370930C0380930D0390930E036B
:100B20000E947B1B811121C08AE891E09F938F93E3
:100B30000E94C4038AE191E00F900F900F900F90F4
:100B40000F90DF91CF911F910F91FF90EF90DF9069
:100B5000CF90BF90AF909F908F907F906F905F905D
:100B60004F903F902F900C94EA0284E393E09F9380
:100B70008F930E94C4030F900F9036E0E32E40E065
:100B8000C42E40E0D42E59E5252E52E0352E65EBDB
:100B9000462E61E0562E7CE9672E71E0772E8FEFAE
:100BA0000E94B61B90E095958795877099270697C8
:100BB0000CF00AC3EA94EE2009F406C321E041E0F8
:100BC00060E070E080E60E94721A813220F082EECE
:100BD0000E94B61B80E021E0482F67E774E081E6C1
:100BE0000E94721A60E487E20E94961BC114D1042D
:100BF00021F081E090E00E940000A0907B04F09042
:100C00007C04209178042B8390907704B090790431
:100C100068ED72E087E794E00E94C91950917A0468
:100C200040917B043B81032F10E09F938F9352FBF5
:100C3000882780F91F928F935695569556951F9247
:100C40005F93842F8295869587701F928F931F9252
:100C5000FF9247701F924F9380917D041F928F9354
:100C60001F92BF921F929F921F923F93AAEFB2E0F2
:100C7000BF93AF930E94C40380917A04982F93701E
:100C80000FB6F894DEBF0FBECDBF923071F0C11425
:100C9000D10421F08BE690E00E94000082EE92E009
:100CA0009F938F930E94C4036AC2BA2DB770AB2E74
:100CB00090918D03B9128CC0E82FE77086958695C8
:100CC0008695893120F4880F880F880F01C088EC41
:100CD000E82BE0937A04E695E695E695F0E0E9588E
:100CE000FB4F178280918E03981659F00D5F1F4FAE
:100CF000C8010E94A12A981621F0692DC8010E94FE
:100D0000A92A80917B0483FF22C081E2E7E7F4E017
:100D1000A6E5B4E001900D928A95E1F780915A041E
:100D2000877F806180935A0480918D03809357045C
:100D30002B812093580481ED92E09F938F930E9422
:100D4000C40386E594E00E944A050F900F908091BD
:100D50007B0484FF05C087E794E00E9457031FCF00
:100D600033E0A312F8CF20917804982F9770933036
:100D700009F0F5C090917C049F3009F0F0C03091EB
:100D80008D0330937804209379042FEF20937D0412
:100D9000807E836080937B0467E272E087E794E063
:100DA0000E94941980917A048770806180937A04FC
:100DB00080917B048F71806C80937B0481E08093B1
:100DC0007E0410927F0487E794E00E94A50EE7CE90
:100DD0009FEFB91285C0A7E8B2E0BF93AF930E941E
:100DE000C4030F900F9033E0A3126BC09091960351
:100DF00080918E0392FF3EC097E0F9123BC02B8199
:100E0000281709F4CCCE1F922F93A9E6B2E0BF9326
:100E1000AF930E94C4030D5F1F4FC8010E94A12A17
:100E20000F900F900F900F903B81381721F0632F98
:100E3000C8010E94A92A0E94FC140091D4021091BA
:100E4000D5022091D6023091D702DC01CB01801B64
:100E5000910BA20BB30B80319742A105B10508F0AD
:100E6000C9C08FEF91E09F938F930E94C4030F90AE
:100E70000F9055C134E1F31224C0981222C00E9491
:100E8000FC147370882799270E94C21460918E0306
:100E900080918D03809357042B81209358048FEF0A
:100EA00080935C0485E180935B0480915A04807E8A
:100EB000836080935A0486E594E00E94FF130E94A9
:100EC000220480918E0398126ACE80918D033B811B
:100ED000381709F475C18091960382FD53C170C122
:100EE0008091960382FF5BCEA4E3B2E0BF93AF9301
:100EF0000E94C4030F900F9080918E03981659F0B2
:100F00000D5F1F4FC8010E94A12A981621F0692D7C
:100F1000C8010E94A92A33E0A3121CC088EE8F0DDD
:100F20008230C0F40E949F218E3FA1F01F928F93C8
:100F3000A8E1B2E0BF93AF938A830E94C4038A8181
:100F400061E0680F87E794E00E94FF130F900F9015
:100F50000F900F9087E794E00E94220420CE38E1A2
:100F6000F3122EC00E949F211F928F931F922B81FC
:100F70002F9380EB92E09F938F930E94C403809104
:100F80008D03809357043B81309358048FEF8093F7
:100F90005C0489E180935B0480915A04807E8360C5
:100FA00080935A0461E086E594E00E94FF130E945A
:100FB00022040F900F900F900F900F900F90EFCD95
:100FC00089E1F81212C08091960383FFE8CD877FF4
:100FD000809396030E949F21809398031F928F9382
:100FE00083E992E09F938F930EC00E94821181113A
:100FF000D6CDB1CE8091960383FF0CC01F928FEFA8
:101000008F935F924F920E94C4030F900F900F90A6
:101010000F90C5CD10918D03112309F448C088604D
:10102000809396031FEF109398031F921F927F9255
:101030006F920E94C40380918D0380935704109295
:10104000580410935C0488E180935B0480915A04F7
:10105000807E836080935A0461E086E594E00E947C
:10106000FF130E9422040E94FC144B015C011092A9
:101070007C040F900F900F900F9010E00E94FC14D2
:10108000DC01CB0188199909AA09BB09803D974069
:10109000A105B10510F4112399F180919603877F82
:1010A00080939603109198031F3F09F4A7CF0E94E5
:1010B000FC146093D4027093D5028093D60290936F
:1010C000D702A0EFB1E0BF93AF930E94C403809119
:1010D0008F030F900F90181711F11F921F931F92FB
:1010E0008F93A0EDB1E0BF93AF930E94C403109320
:1010F0008F030F900F900F900F900F900F900FC0D5
:101100000E94590580917B048770833009F0B6CF27
:1011100011E080917C04893109F0AFCFAFCF0E94FC
:10112000FC146093D4027093D5028093D6029093FE
:10113000D7023F922F920E94C4030E94FC14737046
:10114000882799270E94C21460918F0380918D0394
:10115000809357042B81209358048FEF80935C0475
:1011600088E080935B0480915A04807E8360809342
:101170005A0486E594E00E94FF130E9422040F9017
:101180000F900DCDA5E4B2E0BF93AF930E94C403CE
:1011900087E794E00E9422040F900F9033E0A3169B
:1011A00009F4FDCC80918E039812F9CC80E090E098
:1011B000892B09F4F4CC87E794E00E940000EFCC7F
:1011C00083E0A812F3CFEBCC0F900F900F90DF913C
:1011D000CF911F910F91FF90EF90DF90CF90BF9034
:1011E000AF909F908F907F906F905F904F903F90C7
:1011F0002F900895E0919003F09191030280F38184
:10120000E02D309709F009950C94590584ED90E094
:101210009F938F930E94C403809196038B7F8F7E50
:10122000809396030F900F9080E090E0892B21F03F
:1012300087E690E00E9400008BEC90E09F938F93F4
:101240000E94C40360E085E00E9476140F900F9026
:101250006CE080E20C94961B80EC90E09F938F935F
:101260000E94C403E6E9F3E08081846080830F90EC
:101270000F90089586EB90E09F938F930E94C40394
:10128000809197038F708093970380919603877F57
:101290008F7E809396030E94FC1460930B037093DF
:1012A0000C0380930D0390930E031092D4021092BE
:1012B000D5021092D6021092D70243E050E060E0CF
:1012C00070E08DE893E00E94912A85E00E942A2236
:1012D00086E00E942A223A984298399A419A389A8E
:1012E000409860E085E00E94761461E086E00E940C
:1012F00076146EE080E20E94961B65E070E080E06C
:1013000090E00E94C21463E083E20E94961B6FE5A6
:1013100084E20E94961B6CE485E20E94961B67E2C1
:1013200086E20E94961B0E947B1B0F900F908823E1
:1013300009F460C063E780E30E94961B66E08DE3DA
:101340000E94961B62E082E20E94961B60E081E2AE
:101350000E94961B63E08CE30E94961B8FEF8093A4
:10136000000120E045E060E071E08BE20E94721A2B
:1013700020E045E060E071E08AE20E94721A20E01D
:1013800045E060E071E080E30E94721A82EE0E9404
:10139000B61B81EE0E94B61B60E787E20E94961B97
:1013A00088EA90E09F938F930E94C40380919603F4
:1013B0008061809396038BE990E09F938F930E94C6
:1013C000C40310928E0310928F0310928D0310921B
:1013D0000F0163E082E20E94961B61E081E20E94BD
:1013E000961B0E94A71B0F900F900F900F9085E007
:1013F00091E012C08AE890E09F938F930E94C4030B
:101400000F900F9080E090E0892B21F087E690E02C
:101410000E9400008AE191E00C94EA020895CF93C3
:10142000DF931F92CDB7DEB76983DC01ED91FC91AC
:101430000280F381E02D41E050E0BE016F5F7F4FFD
:1014400009950F90DF91CF910895FC01818D928DC8
:101450000895FC018489958908952EEE31E0FC0100
:1014600031832083FB014089518962897389FC01A2
:1014700042835383648375830895DC01ED91FC916D
:10148000008CF18DE02D0994CF93DF931F92CDB79F
:10149000DEB76983DC01ED91FC910280F381E02DE0
:1014A00041E050E0BE016F5F7F4F09950F90DF91E3
:1014B000CF910895FC019485FB018485981303C0A6
:1014C00081E0943009F480E0089521E0FC018485F6
:1014D000843009F420E0822F0895CF93DF931F9288
:1014E000CDB7DEB7FC01218D328D232B49F0BE0133
:1014F0006F5F7F4F808D0E944416898190E002C00B
:101500008FEF9FEF0F90DF91CF910895CF93DF93EF
:10151000FC01218D328D2115310519F48FEF9FEFDC
:1015200011C0EC014217530708F0A901888D0E94F1
:1015300085161816190694F7298D3A8D281B390B34
:101540003A8F298FDF91CF9108950F931F93CF93F7
:10155000DF931F92CDB7DEB7FC01218D328D232B97
:1015600061F08C0141E050E0BE016F5F7F4F808DE4
:101570000E948516181619061CF08FEF9FEF08C001
:10158000F801818D928D0197928F818F898190E0F2
:101590000F90DF91CF911F910F9108950F931F939B
:1015A000CF93DF93CDB7DEB728970FB6F894DEBFA1
:1015B0000FBECDBF8C01F801818D928D892B49F032
:1015C000D801ED91FC910680F781E02DC8010995C5
:1015D000F2CF808D0E946316181619065CF548E05C
:1015E00050E0BE016F5F7F4FD80158968C910E94EA
:1015F00085169C0118161906DCF489819A81AB8145
:10160000BC81F801808B918BA28BB38B8D8190E094
:10161000982F88272E81820F911D958B848B2F8187
:1016200030E0322F22278885280F311D328F218FFD
:10163000C90102C080E090E028960FB6F894DEBFA2
:101640000FBECDBFDF91CF911F910F910895AF9243
:10165000BF92CF92DF92FF920F931F93CF93DF93AE
:101660008C015B01EA01FC01C688D788F08C80E51B
:1016700090E00E9447188F2D0E94AE1E8C179D0788
:1016800020F48F2D0E94AE1EEC019E01A501B60133
:101690008F2D0E94491E0E944618F801868997895D
:1016A0008C0F9D1F978B868BCE01DF91CF911F9161
:1016B0000F91FF90DF90CF90BF90AF900895CF92A1
:1016C000DF92EF92FF920F931F93CF93DF93CDB7EB
:1016D000DEB7AF970FB6F894DEBF0FBECDBF7C016B
:1016E0006A010EEE11E01A8309831C861B8688EEC0
:1016F00093E0A0E0B0E08D879E87AF87B88B86E54A
:1017000091E09A878987188F0F8B198E1A8E1B8EFE
:101710001C8E84E089A31DA30CA31EA21FA218A6E1
:1017200019A680914A0490914B04A0914C04B09169
:101730004D048CA79DA7AEA7BFA78B839C83AD83C9
:10174000BE8318861F82AE014C5D5F4FCE010196AD
:101750000E94241F81309105B1F4D701ED91FC91D5
:101760000088F189E02D1BA70AA78EA19FA1A8A53B
:10177000B9A58CA79DA7AEA7BFA7A601BE01665DB0
:101780007F4FC7010995AF960FB6F894DEBF0FBE25
:10179000CDBFDF91CF911F910F91FF90EF90DF9020
:1017A000CF900895CF93DF93EC01888D843061F062
:1017B0000E94D816E88DF0E0EE0FFF1FE15FFC4FAE
:1017C0001182108284E0888FDF91CF910895EF928B
:1017D000FF921F93CF93DF93FC01208D243011F0F3
:1017E00080E01CC07B01EC0110E0812F0E943017CB
:1017F000811102C0188F05C08831E1F31F5F1430DA
:10180000A1F7888D843061F3FD86EC861A8E198EDF
:1018100020E0A70162E00E94EC1681E0DF91CF9109
:101820001F91FF90EF9008959B0190E00496982FF0
:101830008827642F820F931F0C9422160F931F93F7
:10184000CF93DF931F92CDB7DEB790E00496982F29
:1018500088278C01060F171F0E94A2158FE00E9497
:10186000BC15812F0E94BC15802F0E94BC1580E002
:101870000E94BC1589830E94A01589810F90DF9179
:10188000CF911F910F910895CF93FC01C08D80E5FA
:1018900090E00E94471860E270E08C2F0E94B22115
:1018A00062E070E08C2F0E941E0C84FD19C062E083
:1018B00070E08C2F0E941E0C83FF0BC048E162E099
:1018C00070E08C2F0E94140C0E94461880E090E07B
:1018D00011C00E94461880E590E00E944718E0CFB2
:1018E00040E162E070E08C2F0E94140C0E944618C8
:1018F00081E090E0CF910895CF93DF93C82FD62F4A
:10190000472F60E170E00E94140C4D2F61E170E000
:101910008C2FDF91CF910C94140CBF92CF92DF9259
:10192000EF92FF920F931F93CF93DF9300D000D0DD
:1019300000D0CDB7DEB7FC01208D243009F053C0B4
:101940006A017B018C01B12C63E070E08B2D0E9459
:101950001E0C811103C0F801B08E06C08831D9F386
:10196000B394F4E0BF12F0CFF801808D8430D9F148
:1019700096E0E8E2F1E0DE01119601900D929A9571
:10198000E1F7F70193819F779C8394819D839581F3
:101990009E83B7016E5F7F4F90E0982F882744E0C9
:1019A00050E0845F9B4F0E94F315B601F801808DD3
:1019B0000E947C0CF801808D90E0982F882746E0EB
:1019C00050E0BE016F5F7F4F8A5F9B4F0E94F3150F
:1019D000F801128E118E20E8A60162E0808D0E942F
:1019E000EC1681E001C080E026960FB6F894DEBFC9
:1019F0000FBECDBFDF91CF911F910F91FF90EF9060
:101A0000DF90CF90BF900895FF920F931F93CF93D5
:101A1000DF93FB01DC0157961C921E925697589655
:101A2000FC908281811109C08381811106C084816B
:101A3000811103C085818823F9F041155105E1F03A
:101A40008A01EF0180E590E00E944718BE016E5FB9
:101A50007F4F2F2D30E0922F882744E050E0845FA5
:101A60009B4F0E94F315B8018F2D0E947C0C0E94A1
:101A7000461881E090E002C080E090E0DF91CF91D5
:101A80001F910F91FF900895FC018485843011F01F
:101A90000C94301780E008954F925F926F927F927E
:101AA0008F929F92AF92BF92CF92DF92EF92FF926E
:101AB0001F93CF93DF93CDB7DEB72D970FB6F89472
:101AC000DEBF0FBECDBF7C019FE0A92E93E0B92EF3
:101AD00010E0C12CD12C28EE422E23E0522E612C96
:101AE000712C38EB832E31E0932E1C821B824D82A9
:101AF0005E826F8278869A8289821D87D5012D91B8
:101B00003D915D01F7018481958128173907B1F472
:101B1000CE0101960E94440D843169F0CE010196F8
:101B20000E94440D8C3151F4CE0101960E94CA17D7
:101B3000892B91F003C0CC24C394D12C1F5F1430A7
:101B4000A1F6CD2871F4D701ED91FC910480F581C7
:101B5000E02DC701099505C0CE0101960E944A18E3
:101B6000EDCF2D960FB6F894DEBF0FBECDBFDF913F
:101B7000CF911F91FF90EF90DF90CF90BF90AF90EB
:101B80009F908F907F906F905F904F9008952F92CD
:101B90003F924F925F926F927F928F929F92AF92FD
:101BA000BF92CF92DF92EF92FF920F931F93CF934A
:101BB000DF93CDB7DEB72E970FB6F894DEBF0FBE1A
:101BC000CDBF7C016B015A010E944C0D0FE013E068
:101BD00020E0612C712C88EE282E83E0382E412CD9
:101BE000512C98EB892E91E0992E1C821B822D821C
:101BF0003E824F8258869A8289822D87F8014191D0
:101C000051918F01F701848195814817590741F45B
:101C1000CE0101962E870E94440D2E858731E9F072
:101C20002F5F243011F7C3012E960FB6F894DEBF54
:101C30000FBECDBFDF91CF911F910F91FF90EF901D
:101C4000DF90CF90BF90AF909F908F907F906F90DC
:101C50005F904F903F902F900895A501B601CE015F
:101C600001962E870E949018680E791E2E85D8CF77
:101C70008F929F92AF92BF92CF92DF92EF92FF929C
:101C80000F931F93CF93DF93CDB7DEB72D970FB68A
:101C9000F894DEBF0FBECDBF7C0100E010E038EE4F
:101CA000832E33E0932EA12CB12C48EBC42E41E0BF
:101CB000D42E1C821B828D829E82AF82B886DA82ED
:101CC000C9820D87CE0101960E94440D811125C065
:101CD000F7014481558120E061E0802F0E94EC16DD
:101CE00080E590E00E94471863E070E0802F0E943A
:101CF0001E0C833129F462E070E0802F0E94B22133
:101D00000E944618F70184819581000F111FF80188
:101D1000E15FFC4F9183808305C00F5F1F4F04304C
:101D2000110539F62D960FB6F894DEBF0FBECDBF64
:101D3000DF91CF911F910F91FF90EF90DF90CF90A7
:101D4000BF90AF909F908F900895FC0132812091B9
:101D50008D03321302C00C9457030C944A0580E0A3
:101D600090E0892B21F08BE090E00E9400008091B0
:101D70008D0380935704109258048FEF80935C0476
:101D800082E180935B0480915A04807E80935A04A0
:101D900063E072E086E594E00E9494190E94A50E2B
:101DA00080E090E0892B11F00C94000008957F9260
:101DB0008F929F92AF92BF92CF92DF92EF92FF925B
:101DC0000F931F93CF93DF93CDB7DEB7A8970FB6CE
:101DD000F894DEBF0FBECDBFA89580911B0388236A
:101DE000B1F00E94FC140091170310911803209188
:101DF000190330911A03DC01CB01801B910BA20B5C
:101E0000B30B813C944DA140B10508F0C4C185EAF3
:101E100094E00E944C0D5FE0E52E53E0F52E10E0BB
:101E200068EE862E63E0962EA12CB12C78EBC72E9F
:101E300071E0D72E1C821B828D829E82AF82B88673
:101E4000DA82C9821D87F701219131917F0180914A
:101E5000A9049091AA042817390749F5CE010196E3
:101E60000E94440D873111F08C3109F5CE010196A5
:101E70000E94CA17892BD9F08B819C819D8F8C8FF2
:101E80008D819E81AF81B8858E8F9F8FA8A3B9A3C6
:101E900089859A85AB85BC858AA39BA3ACA3BDA38A
:101EA00088EB91E09B8F8A8F8D858EA313C01F5F77
:101EB000143009F0BFCF1D8E1C8E88EE93E0A0E099
:101EC000B0E08E8F9F8FA8A3B9A388EB91E09B8F82
:101ED0008A8F1EA38EA1843009F455C0BE01665EB0
:101EE0007F4F88E994E00E94E002882309F44BC008
:101EF00088E994E00E944A188C8D9D8D90939B04F4
:101F000080939A048E8D9F8DA8A1B9A180939C0483
:101F100090939D04A0939E04B0939F048AA19BA1DB
:101F2000ACA1BDA18093A0049093A104A093A204AE
:101F3000B093A3048EA18093A40484E793E09F93BD
:101F40008F930E94C40310927804109279048FEF4B
:101F500080937D048EE080937C0480917B04807E5E
:101F6000836080937B0469E072E087E794E00E94DD
:101F700094190E9457030F900F9080E090E0892BF6
:101F800011F00E9400008091A404843009F4EDC097
:101F900088E994E00E946517811157C083E693E0B9
:101FA0009F938F930E94C40388E994E00E944A188B
:101FB00049C0292F30E08A3009F0F1C0F901E45E10
:101FC000FC4F1082DF92CF92BF92AF920E94C40367
:101FD00010928003AE01495D5F4F63E272E08CE1D5
:101FE00093E00E94A7240F900F900F900F90712CF8
:101FF000E12C00E010E0F12C812C912C009771F580
:10200000053011057CF588E994E00E946517882366
:1020100009F4ABC088E994E00E94CA17892B09F43F
:10202000A4C088E994E00E94B01790918003933691
:1020300008F4BFCF83E493E09F938F930E94C4037F
:10204000109280030F900F9090C08CE1C82E83E017
:10205000D82E9AE5A92E93E0B92ED5CF06301105DA
:1020600009F0A1C01092AC041092AB048091AF04AF
:10207000877F711014C190E0892B982F9F7E9093D9
:10208000AF0434E0E31210C18F70806C8093AF0412
:102090008F2D90E09C0143E0220F331F4A95E1F71A
:1020A0003091AE043770232B2093AE04E8E1EF1596
:1020B00008F4F7C0AC01BE016F5F7F4F82EB94E084
:1020C0000E942A2480E090E0892B21F083E090E0B8
:1020D0000E94000081E2EBEAF4E0A7E7B4E001909F
:1020E0000D928A95E1F780917904811106C1809162
:1020F0007B0483FF1BC081E2E7E7F4E0A6E5B4E0E0
:1021000001900D928A95E1F780915A04877F806152
:1021100080935A0480918D038093570480917804B2
:102120008093580486E594E00E94570380917B04D5
:10213000982F9770933009F0D6C090917C0492301C
:1021400009F0C0C010927804109279042FEF209308
:102150007D04807E836080937B0463E072E087E788
:1021600094E00E9494190E9457030E94FA08A896CE
:102170000FB6F894DEBF0FBECDBFDF91CF911F9198
:102180000F91FF90EF90DF90CF90BF90AF909F9016
:102190008F907F90089580E00E94980338CE8D3014
:1021A00009F088C00BCF0330110521F13CF4013058
:1021B000110579F00230110589F006C004301105CF
:1021C000E9F005301105F9F00E9462248093AD0416
:1021D0005AC00E9462248093B10455C00E946224B8
:1021E000E82E982F97708091AF04887F892B809379
:1021F000AF0449C00E946224782E45C00E94622428
:102200008093B00440C0F4E0EF122AC0F12CFC012E
:1022100020812223C1F12A3314F4205305C0213632
:1022200014F0275501C02753422F4295407F029654
:10223000FC01319720812A3314F4205305C0213644
:1022400014F0275501C0275330E0240F311DE1E081
:10225000F0E0EC0FFD1FEF0DF11D2083F394D7CFBD
:10226000FC0101900020E9F7E81BE2509C012E0FD1
:10227000311DF90120812D3009F4108220812A308E
:1022800009F410824C010F5F1F4FAE01495D5F4F93
:1022900063E272E080E090E00E94A724AFCE98E075
:1022A000EBCE49E150E007CFB4018BEA94E00E9405
:1022B000941908CF9F5F90938003F901E45EFC4F6F
:1022C0008083A1CE953061F48EE794E00E94622471
:1022D00021E0019709F020E0822F0E94980345CF6A
:1022E0000E94821142CF80E090E0892B09F43DCF1B
:1022F00087E794E00E94000038CF87E794E00E94CF
:102300004A0533CF4F925F926F927F92BF92CF92E6
:10231000DF92EF92FF920F931F93CF93DF9300D042
:102320001F92CDB7DEB780917C0410917804111113
:102330002FC28D3099F480E090E0892B21F08AE063
:1023400090E00E94000098E088E10FB6F894A8950C
:10235000809360000FBE90936000FFCF8B3109F433
:102360003AC28630C1F480917E0461E0882319F07E
:102370008D3409F060E06093990383E091E06B8312
:102380000E94A12A6B81681709F425C283E091E0BD
:102390000E94A92A20C2833119F40E94AF0E1BC2E9
:1023A000823171F50E94FC14009192031091930305
:1023B0002091940330919503AB01BC01401B510B5C
:1023C000620B730B80918D03809357041092580415
:1023D0008FEF80935C0486E180935B0483EA8093B3
:1023E0005A04809159048770806280935904409305
:1023F0005D0450935E0460935F0470936004E7C1D2
:10240000813011F580E090E0892B09F4E4C18091DE
:102410007B04829586958770853049F460917E04AF
:1024200070917F0480918004909181040AC0811191
:1024300005C08EE794E00E94802403C060E070E055
:10244000CB010E940000C7C18A3009F041C08091D1
:102450007E04833409F0BFC180E090E0892B21F035
:102460008CE090E00E94000003E010E0C8010E94B0
:10247000A12A8F3F21F06FEFC8010E94A92A0F5FA8
:102480001F4F023041E0140789F782E893E09F93E1
:102490008F930E94C40380918D0380935704109200
:1024A00058048FEF80935C048AE080935B048091F2
:1024B0005A04807E836080935A046EEF71E086E553
:1024C00094E00E9494190E94A50E0F900F9083C172
:1024D0008C3109F082C180917E04823509F057C0A9
:1024E00000E010E03EE8E32E33E0F32EDD24DA9442
:1024F0004CE1C42E53ECB52EC80103960E94A12ACC
:102500008F3F31F40F5F1F4F0F3F1105A9F763C1D4
:102510001F928F931F930F93FF92EF928B830E94D2
:10252000C40390918D039093570410925804D09255
:102530005C04C0925B04B0925A0490915904977065
:1025400090619093590400935D048B8180935E04A5
:1025500086E594E00E94A50E0E94FC142B013C012C
:102560000F900F900F900F900F900F900E94FC14FF
:10257000DC01CB0184199509A609B709883C9105AE
:10258000A105B10508F0BECF0E94D70EEFCF86356A
:1025900091F58EE480937C0066E470E080E090E04A
:1025A0000E94C21480917A00806480937A008091A6
:1025B0007A0086FDFCCF20917800309179008091DF
:1025C0008D0380935704109258048FEF80935C041E
:1025D0008CE180935B0483E680935A0480915904D4
:1025E000877080618093590440E050E064EB7BE2A7
:1025F00081E190E05BC0863409F05FC0F8948FEF12
:1026000086BB109285001092840010928000109278
:102610008200909160002DE088E10FB6F894A895B3
:10262000809360000FBE2093600080916000806402
:1026300080936000A89585E0809381008091600080
:1026400087FFFCCF10928100A8958091600088617F
:102650008093600090936000789460918400709102
:10266000850080918D0380935704109258048FEF5A
:1026700080935C048CE180935B0483E680935A042E
:10268000809159048770806180935904CB01A0E048
:10269000B0E0BC01CD012BE0660F771F881F991FAA
:1026A0002A95D1F720EA36E841E050E00E94EE2A70
:1026B00030935E0420935D048AC08D3441F580918F
:1026C000FC049091FD04009711F480E095E02091C6
:1026D0008D0320935704109258042FEF20935C042D
:1026E0002CE120935B0423E620935A0420915904A3
:1026F00027702061209359049E012F5F3F4FA9014D
:10270000481B590B50935E0440935D0460C08534B0
:1027100009F061C080918D03809357041092580492
:102720008FEF80935C048CE180935B0480915A046A
:10273000807E836080935A046EEF71E086E594E0BA
:102740000E9494190E94A50E00E010E0C8010E94AA
:10275000A12A8F3F21F06FEFC8010E94A92A0F5FC5
:102760001F4F0D3951E0150789F780E090E0892B64
:1027700021F08AE090E00E94000098E088E10FB626
:10278000F894A895809360000FBE90936000FFCFEF
:102790008A3119F50E949F2190918D0390935704DF
:1027A000109358049FEF90935C049BE190935B041B
:1027B00090915904977098609093590493E2909384
:1027C0005A0491E0823008F490E090935D0486E52D
:1027D00094E00E94A50E81E001C080E00F900F9070
:1027E0000F90DF91CF911F910F91FF90EF90DF90AD
:1027F000CF90BF907F906F905F904F900895FC01B5
:10280000838187708860838384818F7180628483F1
:102810006783CF01089580E090E0892B29F00E9422
:10282000151C81110C94000008953FB7F894809115
:10283000880390918903A0918A03B0918B0326B5F8
:10284000A89B05C02F3F19F00196A11DB11D3FBFE8
:10285000BA2FA92F982F8827820F911DA11DB11D76
:10286000BC01CD0142E0660F771F881F991F4A9572
:10287000D1F7089508950E9425241F93CF93DF93E5
:10288000182F66E270E00E941E0CC82FD0E067E2AD
:1028900070E0812F0E941E0CDC2FCC279E01282B7C
:1028A000C901DF91CF911F910895FC01848DDF0153
:1028B000A80FB11DA35ABF4F2C91848D90E00196B3
:1028C0008F739927848FA689B7892C93A089B189A2
:1028D0008C9180648C93938D848D981306C00288AC
:1028E000F389E02D80818F7D8083089590E0FC0145
:1028F000E356FC4F3491FC01E75AFB4F2491FC0155
:10290000EB5BFB4FE491EE2309F43BC0332339F139
:10291000333091F038F43130A9F0323001F584B51C
:102920008F7D12C0373091F03830A1F03430B9F4D7
:10293000809180008F7D03C0809180008F7780938D
:1029400080000DC084B58F7784BD09C08091B00030
:102950008F7703C08091B0008F7D8093B000F0E04E
:10296000EE0FFF1FEF5CFB4FA591B4918FB7F8946A
:10297000EC91611103C020952E2301C02E2B2C93C6
:102980008FBF08958F929F92AF92BF92CF92DF92A6
:10299000EF92FF926B017C010E9415144B015C01C8
:1029A000C114D104E104F104F1F00E941514DC011A
:1029B000CB0188199909AA09BB09883E9340A10552
:1029C000B10570F321E0C21AD108E108F10888EEE0
:1029D000880E83E0981EA11CB11CC114D104E1042F
:1029E000F10419F7DDCFFF90EF90DF90CF90BF900B
:1029F000AF909F908F9008952FB7F89460918403C3
:102A00007091850380918603909187032FBF08956D
:102A10001F920F920FB60F9211242F933F938F9313
:102A20009F93AF93BF938091840390918503A0916E
:102A30008603B09187033091830323E0230F2D3762
:102A400020F40196A11DB11D05C026E8230F0296B2
:102A5000A11DB11D2093830380938403909385036C
:102A6000A0938603B0938703809188039091890394
:102A7000A0918A03B0918B030196A11DB11D809393
:102A8000880390938903A0938A03B0938B03BF912B
:102A9000AF919F918F913F912F910F900FBE0F900B
:102AA0001F9018951F920F920FB60F9211242F931B
:102AB0003F934F935F936F937F938F939F93AF93C6
:102AC000BF93EF93FF93E0910B01F0910C010995F7
:102AD000FF91EF91BF91AF919F918F917F916F91F6
:102AE0005F914F913F912F910F900FBE0F901F90CC
:102AF00018951F920F920FB60F9211242F933F93A8
:102B00004F935F936F937F938F939F93AF93BF93F5
:102B1000EF93FF93E0910901F0910A010995FF916C
:102B2000EF91BF91AF919F918F917F916F915F9145
:102B30004F913F912F910F900FBE0F901F901895BE
:102B40002A9A08952A9808951F93CF93DF93182FF8
:102B500060E270E00E941E0CC82FD0E061E270E0DD
:102B6000812F0E941E0CDC2FCC279E01282BC9012F
:102B7000DF91CF911F9108958EBD00000DB407FE27
:102B8000FDCF8EB50895CF92DF92EF92FF920F9313
:102B90001F93CF93DF93EC017A018B016C01C40E7C
:102BA000D51ECC15DD05A9F00E94A2158FE00E946C
:102BB000BC158D2F0E94BC158C2F0E94BC15219630
:102BC00080E00E94BC15F80181938F010E94A0153E
:102BD000E8CFC701DF91CF911F910F91FF90EF9048
:102BE000DF90CF900895CF92DF92EF92FF920F93F4
:102BF0001F93CF93DF93EC017A018B016C01C40E1C
:102C0000D51ECC15DD05A1F00E94A21580EF0E9413
:102C1000BC158D2F0E94BC158C2F0E94BC152196CF
:102C2000F80181918F010E94BC150E94A015E9CF87
:102C3000C701DF91CF911F910F91FF90EF90DF902F
:102C4000CF9008951F93CF93DF9300D0CDB7DEB719
:102C5000182F6A8399830E94A21580EF0E94BC15E9
:102C60009981892F0E94BC15812F0E94BC156A8111
:102C7000862F0E94BC150E94A01581E00F900F9036
:102C8000DF91CF911F9108951F93CF93DF9300D0D1
:102C9000CDB7DEB7182F80E590E069837A830E9474
:102CA000471821E041E050E069817A81812F0E943C
:102CB000C2210E94461881E090E00F900F90DF91B2
:102CC000CF911F910895FF920F931F93CF93DF939E
:102CD000F82E80E590E00E944718C0E0D0E08F2DEC
:102CE0000E943D148C01892B21F08F2D0E943D14F0
:102CF000EC01C017D10799F70E944618CE01DF9169
:102D0000CF911F910F91FF900895AF92BF92CF92F4
:102D1000DF92EF92FF921F93CF93DF93182F5B0107
:102D20007A0180E590E00E944718C0E0D0E0812F52
:102D30000E943D146C01892B21F0812F0E943D14CB
:102D4000EC01CC15DD0599F7209799F463E070E06C
:102D5000812F0E941E0C8431F1F08823E1F0C1E044
:102D6000D0E08C3111F4C0E0D0E0D195C195D1090B
:102D700012C0EC16FD060CF4E7011C161D065CF4EF
:102D800020E0AE01B501812F0E94C22160E470E015
:102D9000812F0E94B2210E944618CE01DF91CF916F
:102DA0001F91FF90EF90DF90CF90BF90AF9008956C
:102DB000CF93C82F80E590E00E94471860E170E053
:102DC0008C2F0E94B2214FEF62E070E08C2F0E94A6
:102DD000140CCF910C944618FF920F931F93CF932E
:102DE000DF9300D0CDB7DEB7F82E8A012A8369833E
:102DF0000E94D81680E590E00E9447182A816981D8
:102E0000462F422B60E070E08F2D0E94140C0115BC
:102E1000110551F400918103109182030F5F1F4F40
:102E20001093820300938103412F64E070E08F2DA3
:102E30000E94140C402F65E070E08F2D0E94140C4E
:102E400061E070E08F2D0E94B2210E94461881E05F
:102E50000F900F90DF91CF911F910F91FF900895E8
:102E60001F93CF93DF931F92CDB7DEB7182F80E566
:102E700090E00E94471863E070E0812F0E941E0CD2
:102E800089830E94461889810F90DF91CF911F910D
:102E900008950895CF93DF931F92CDB7DEB769836E
:102EA000DC01ED91FC910280F381E02D41E050E0E6
:102EB000BE016F5F7F4F09950F90DF91CF9108950D
:102EC000862F089581E086270895CF93DF93FC0134
:102ED00024852430D1F0EC010E94440D843181F02E
:102EE000882371F0883161F08C3161F4E881F981D7
:102EF0000480F581E02DCE01099521E0892B19F49C
:102F000020E001C021E0822F01C080E0DF91CF915D
:102F100008950F931F93CF93DF931F92CDB7DEB722
:102F20008C01DC01ED91FC910480F581E02D099587
:102F3000892B51F0BE016F5F7F4FF80184850E949D
:102F40004416898190E002C08FEF9FEF0F90DF91D0
:102F5000CF911F910F910895FC0184850C948516E3
:102F6000CF93DF931F92CDB7DEB741E050E0BE01B3
:102F70006F5F7F4FFC0184850E9485161816190625
:102F80001CF4898190E002C08FEF9FEF0F90DF91DA
:102F9000CF910895FC018485843011F00C94631660
:102FA00080E090E00895CF92DF92EF92FF920F932E
:102FB0001F93CF93DF93CDB7DEB7AF970FB6F894DB
:102FC000DEBF0FBECDBF7C016A010EEE11E01A8399
:102FD00009831C861B8688EE93E0A0E0B0E08D8715
:102FE0009E87AF87B88B86E591E09A878987188F8F
:102FF0000F8B198E1A8E1B8E1C8E84E089A31DA345
:103000000CA31EA21FA218A619A680914A04909193
:103010004B04A0914C04B0914D048CA79DA7AEA782
:10302000BFA78B839C83AD83BE8318861F82AE01AE
:103030004C5D5F4FCE0101960E94241F81309105A7
:10304000B1F4D701ED91FC910484F585E02D1BA727
:103050000AA78EA19FA1A8A5B9A58CA79DA7AEA7D9
:10306000BFA7A601BE01665D7F4FC7010995AF9658
:103070000FB6F894DEBF0FBECDBFDF91CF911F9189
:103080000F91FF90EF90DF90CF90089508958CBD41
:103090009DBD0895CF92DF92EF92FF921F93CF9341
:1030A000DF93FC011485143099F1EC0180E590E088
:1030B0000E94471868E070E0812F0E94B2210E94B0
:1030C000FC146B017C01CE010E94440D8823B1F0F9
:1030D00061E070E080E090E00E94C2140E94FC1465
:1030E000DC01CB018C199D09AE09BF09883E9340D4
:1030F000A105B10540F38C850E94D816EC85F0E05F
:10310000EE0FFF1FE15FFC4F1182108284E08C877D
:10311000DF91CF911F91FF90EF90DF90CF900895B6
:103120008F929F92AF92BF92CF92DF92EF92FF92D7
:103130000F931F93CF936C015B017A01FC01C4854F
:10314000C43041F481E090E0F6019383828380E013
:1031500090E04EC08A014130584010F000E018E085
:1031600080E590E00E9447188C2F0E94AE1E4C0113
:1031700063E070E08C2F0E941E0C873111F08C31BF
:1031800021F48016910660F302C000E010E080E5B3
:1031900090E00E9447189801A50160E070E08C2F34
:1031A0000E94491E60E270E08C2F0E94B22162E012
:1031B00070E08C2F0E941E0C84FD10C063E070E054
:1031C0008C2F0E941E0C811104C08C2F0E94D816D7
:1031D000B9CF80E590E00E944718E9CF40E162E076
:1031E00070E08C2F0E94140C012B09F4ABCFC701A7
:1031F000CF911F910F91FF90EF90DF90CF90BF90F4
:10320000AF909F908F900895CF92DF92FF920F938F
:103210001F93CF93DF93FC012485243009F077C0FE
:103220006A01EB018C01F12C8F2D0E943017811166
:1032300003C0F801F48607C08B7F8831D1F3F39483
:10324000F4E0FF12F1CFF8018485843009F45FC007
:1032500020910D0130910E012F5F3F4F11F420E0BE
:1032600030EC30930E0120930D0140910D015091EF
:103270000E0120E061E00E94EC16F801F4848A81DE
:103280008F3F51F48B818F3F91F48C818F3F79F484
:103290008D818F3F61F438C0811109C08B8181110C
:1032A00006C08C81811103C08D81882369F1C1140E
:1032B000D10451F180E590E00E944718BE016E5F95
:1032C0007F4F8F2D90E0982F882744E050E0845F57
:1032D0009B4F0E94F315B6018F2D0E947C0C64E079
:1032E00070E08F2D0E94B221C8010E94440D8731E9
:1032F00089F061E070E080E090E00E94C214C801B3
:103300000E94440D8111F0CF84E0F801848780E0B1
:1033100090E002C081E090E0DF91CF911F910F918A
:10332000FF90DF90CF9008950F931F93CF93DF937B
:10333000EC016115710561F0FB0101900020E9F7D6
:103340003197E61BF70BE931F10518F0E9E101C00F
:10335000E0E00E2F10E0C80123E0880F991F2A95A6
:10336000E1F79B819770892B8B838C818F718C8384
:10337000EE2329F0A801CE0107960E943324FE0116
:10338000E00FF11F1782CE01DF91CF911F910F91B6
:1033900008950F931F93CF93DF938C01EB01FC01F2
:1033A0008481829586958770209709F494C0811155
:1033B00012C0438146954695469550E0B801695F35
:1033C0007F4FCE010E943324F80183818695869534
:1033D0008695FE017BC0813029F4F80187814AE09F
:1033E00090E006C0823039F44AE0F8018781908588
:1033F0000E94CE246EC0833039F44AE0F801878100
:1034000090850E94272565C0843051F4F8016781BA
:103410007085818592852AE0AE010E94D92459C029
:10342000853051F4F80167817085818592852AE0A5
:10343000AE010E9405254DC0873079F4F80123853F
:10344000293008F028E0F801678170858185928530
:103450008E0142E00E9442243CC08630D1F540E01B
:10346000F8018381869586958695481760F5A42F87
:10347000B0E09D01220F331FFE01E20FF31FA00FEA
:10348000B11F17968C911797082E000C990B54E0DA
:10349000959587955A95E1F78F708A3010F4805D85
:1034A00001C0895C80832F5F3F4FFE01E20FF31F55
:1034B00017968C918F708A3010F4805D01C0895C02
:1034C00080834F5FCDCFFE01E80FF11DE80FF11DA6
:1034D0001082CE0102C080E090E0DF91CF911F9179
:1034E0000F910895FF920F931F93CF93DF9300D016
:1034F000CDB7DEB7F82E8B0160E086E02A834983E2
:103500000E94761483E290E00197F1F7EF2DF0E04E
:10351000CF01880F892F881F990B2A814981892B18
:1035200011F0419A01C04198409A329B02C030E8A4
:1035300001C030E04098E6FF02C0419A01C04198C6
:10354000409A329930644098E5FF02C0419A01C028
:103550004198409A329930624098E4FF02C0419A03
:1035600001C04198409A329930614098E3FF02C00F
:10357000419A01C04198409A329938604098E2FFE0
:1035800002C0419A01C04198409A329934604098F3
:10359000E1FF02C0419A01C04198409A32993260DD
:1035A0004098F0FE02C0419A01C04198409A329979
:1035B00031604098F801415008F48AC0222389F113
:1035C000419A409A329B02C030E801C030E04098F6
:1035D000419A409A329930644098419A409A32997F
:1035E00030624098419A409A329930614098419AAD
:1035F000409A329938604098419A409A32993460A2
:103600004098419A409A329932604098419A409A43
:103610003299316040980115110569F23083319675
:10362000CACFBF016F5F7F4F8081E82FF0E0EE0FC0
:10363000EF2FEE1FFF0BEF2B11F0419A01C04198C5
:10364000409A329B02C030E801C030E0409886FFCB
:1036500002C0419A01C04198409A32993064409822
:1036600085FF02C0419A01C04198409A3299306268
:10367000409884FF02C0419A01C04198409A329913
:103680003061409883FF02C0419A01C04198409A3E
:1036900032993860409882FF02C0419A01C0419837
:1036A000409A32993460409881FF02C0419A01C02B
:1036B0004198409A32993260409880FF02C0419A06
:1036C00001C04198409A329931604098FB0173CF14
:1036D00061E086E039830E94761483E290E00197EE
:1036E000F1F73981832F0F900F90DF91CF911F91C8
:1036F0000F91FF900895CF9321E041E060E070E0EA
:1037000086E00E94721AC82F21E041E060E070E07C
:1037100085E00E94721A21E08C3409F020E081E0FB
:10372000C73209F080E08223CF910895CF93DF93D1
:103730001F92CDB7DEB7698320E041E0BE016F5F25
:103740007F4F0E94721A0F90DF91CF9108956FE022
:1037500080E20E94961B60910F016F3F19F08AE290
:103760000E94961B61E085E00C94761420E040E016
:1037700060E070E00C94721ACF92DF92EF92FF92A9
:103780000F931F93CF93DF936C017A018B01C0E0FD
:10379000D0E0CE15DF0589F0D8016D918D01D601FD
:1037A000ED91FC910190F081E02DC6010995892BE6
:1037B00011F47E0102C02196ECCFC701DF91CF91B9
:1037C0001F910F91FF90EF90DF90CF900895FC0133
:1037D000918D828D981761F0828DDF01A80FB11D48
:1037E0005D968C91928D9F5F9F73928F90E008956C
:1037F0008FEF9FEF0895FC01918D828D981731F026
:10380000828DE80FF11D858D90E008958FEF9FEF79
:103810000895FC01918D228D892F90E0805C9F4F4F
:10382000821B91098F73992708958BEA93E00E9478
:10383000091C21E0892B09F420E0822F08954F9282
:103840005F926F927F92EF92FF920F931F93CF93AD
:10385000DF93CDB7DEB7A1970FB6F894DEBF0FBEEA
:10386000CDBF7C01FA01CB0119A2223008F42AE075
:103870008E010F5D1F4F422E512C612C712CBF0108
:10388000A30192010E94EE2AF901CA010150110917
:103890006A3014F4605D01C0695CD8016C93232B1D
:1038A000242B252B61F7B801C7010E944203A19682
:1038B0000FB6F894DEBF0FBECDBFDF91CF911F9141
:1038C0000F91FF90EF907F906F905F904F900895D1
:1038D0008F929F92AF92BF92CF92DF92EF92FF9220
:1038E0000F931F93CF93DF937C01EB016C0182E078
:1038F000C80ED11C4701E5E08E0E911C00E010E0DF
:10390000F60141916F0150E060E070E02AE0CE01E5
:103910000E941F1C5C01E881F9810190F081E02D7B
:103920006EE2CE0109958A0D9B1D080F191FC81460
:10393000D90431F7F701458150E060E070E02AE0FA
:10394000CE010E941F1C800F911FDF91CF911F910C
:103950000F91FF90EF90DF90CF90BF90AF909F902E
:103960008F900895EF92FF920F931F93CF93DF9361
:10397000EC0181E0888F9B8D8C8D981305C0E889C0
:10398000F989808185FD24C0F62E0B8D10E00F5F34
:103990001F4F0F731127E02E8C8DE8120CC00FB64D
:1039A00007FCFACFE889F989808185FFF5CFCE0140
:1039B0000E945514F1CF8B8DFE01E80FF11DE35AE3
:1039C000FF4FF0820B8FEA89FB898081806207C0FC
:1039D000EE89FF896083E889F9898081806480832A
:1039E00081E090E0DF91CF911F910F91FF90EF90D8
:1039F0000895CF93DF93EC01888D8823C9F0EA897D
:103A0000FB89808185FD05C0A889B9898C9186FDD7
:103A10000FC00FB607FCF5CF808185FFF2CFA889D4
:103A2000B9898C9185FFEDCFCE010E945514E7CF67
:103A3000DF91CF910895CF92DF92EF92FF920F9393
:103A40001F93CF93DF93CDB7DEB7C254D1090FB622
:103A5000F894DEBF0FBECDBFFC0182819381A481AB
:103A6000B58123968CAF9DAFAEAFBFAF239721E05A
:103A700023962FAF239723964CAD5DAD6EAD7FADF2
:103A800023974BAB5CAB6DAB7EAB89AF9AAFABAF63
:103A9000BCAF8DA79EA7AFA7B8AB28AB4DA55EA5C1
:103AA0006FA578A94FA358A769A77AA72EAB4BA9F2
:103AB0005CA96DA97EA949A35AA36BA37CA38B8F94
:103AC0009C8FAD8FBE8F4EEE51E05C8B4B8B3FEFEA
:103AD0003D8B3E8B3F8B188E5E874D872AA7CFA0EC
:103AE000D8A4E9A4FAA4CF86D88AE98AFA8A2CA3B2
:103AF00009A11AA12BA13CA109871A872B873C8712
:103B00005A8349838B839C83AD83BE836CE271E0CF
:103B100080E090E00E94C2141FB7F89480918C035B
:103B2000811124C0EFE4F4E08491E3E6F4E09491A1
:103B3000E82FF0E0EE0FFF1FE55CFB4FA591B4917D
:103B4000EC91E92321F461E08AE00E9476148AE096
:103B50000E942A228CB580618CBD8CB580648CBD9E
:103B60008DE00E942A228BE00E942A2280918C0301
:103B70008F5F80938C031FBF229A80E590E00E94A4
:103B8000471860E880E090E00E94221665E58BE12E
:103B900090E00E94221665E58AE190E00E942216DC
:103BA0000E94461880E090E490939C0380939B03CE
:103BB00080E090E69093A4038093A30380E098E4D0
:103BC00090939E0380939D0380E098E69093A603D4
:103BD0008093A50380E090E59093A00380939F03DA
:103BE00080E090E79093A8038093A70380E098E596
:103BF0009093A2038093A10380E098E79093AA0397
:103C00008093A90380E590E00E94471846E050E0C9
:103C100060E171E089E090E00E94F31544E050E03B
:103C2000BE016D5F7F4F8FE090E00E94F31544E08E
:103C300050E0BE01615F7F4F81E090E00E94F3158C
:103C400044E050E0BE016B5E7F4F85E090E00E9453
:103C5000F3150E94461881E08C8789859A85AB858B
:103C6000BC8580934A0490934B04A0934C04B0937A
:103C70004D04CE5BDF4F0FB6F894DEBF0FBECDBF55
:103C8000DF91CF911F910F91FF90EF90DF90CF9038
:103C900008959F92AF92BF92CF92DF92EF92FF92E0
:103CA0000F931F93CF93DF93982E8B015A016901D5
:103CB00064E270E00E941E0CE82EF12C65E270E0D8
:103CC000892D0E941E0CFE2CEE24E82AE701C00F6D
:103CD000D11F9E013770E92CF12CC701880F991F65
:103CE000AC0145565C4F7A01FA0180819181820FC7
:103CF000931FA9014C0D5D1D4130584090F000E02C
:103D000018E0021B130BA801B5010E94F315A601D0
:103D1000401B510BB501600F711FF701808191812C
:103D200002C0A601B5010E94F315CC0DDD1D4D2F7B
:103D300064E270E0892D0E94140C4C2F65E270E063
:103D4000892DDF91CF911F910F91FF90EF90DF9020
:103D5000CF90BF90AF909F900C94140CFF920F9354
:103D60001F93CF93DF93F82EC0E0D0E08F2D0E94F9
:103D7000A4158C01892B21F08F2D0E94A415EC0134
:103D8000C017D10799F7CE01DF91CF911F910F9105
:103D9000FF9008951F920F920FB60F9211242F9348
:103DA0003F934F935F936F937F938F939F93AF93C3
:103DB000BF93EF93FF938BEA93E00E945514FF911A
:103DC000EF91BF91AF919F918F917F916F915F9193
:103DD0004F913F912F910F900FBE0F901F9018950C
:103DE0001F920F920FB60F9211242F938F939F93D0
:103DF000EF93FF93E091BB03F091BC038081E091CE
:103E0000C103F091C20382FD12C090818091C4036E
:103E10008F5F8F732091C503821751F0E091C40327
:103E2000F0E0E555FC4F958F8093C40301C080817D
:103E3000FF91EF919F918F912F910F900FBE0F9057
:103E40001F901895089508952F923F924F925F9278
:103E50006F927F928F929F92AF92BF92CF92DF929A
:103E6000EF92FF920F931F93CF93DF93CDB7DEB7FF
:103E700065970FB6F894DEBF0FBECDBF7C016B0116
:103E80003A01FB0120E080E090E06AE031913323C9
:103E900009F140ED430F4A3080F4689FA001699F0B
:103EA000500D1124CA01C097830F911D37FD9A95BB
:103EB0008F3F910559F350F313C03E3289F42330FC
:103EC00079F0D301A20FB11D12968C932F5F80E081
:103ED00090E0DCCF233021F4F301858381E021C021
:103EE000F7014281538164817581809152049091E0
:103EF0005304A0915404B0915504481759076A0718
:103F00007B0709F49EC10E94FC148701085F1F4FC4
:103F10006F7077277C5FC8010E94E70B813019F032
:103F200080E090E0F3C18EEE91E09A838983F701FF
:103F300082819381A481B5818B839C83AD83BE8371
:103F400045E350E0BE016F5F7F4FC8010E94040D42
:103F5000892B19F4C12CD12C6FC10E94FC14F701DC
:103F6000778366837627672776277A83698342E09B
:103F700050E0BE016F5F7F4FC8010E94270B81E0B8
:103F800090E09E878D8742E050E0BE01635F7F4FE7
:103F9000C8010E94270B80E091E09E878D8742E058
:103FA00050E0BE01635F7F4FC8010E94270B1E8651
:103FB0001D8642E050E0BE01635F7F4FC8010E9452
:103FC000270B42E050E0BE01635F7F4FC8010E94B3
:103FD000270B42E050E0BE01635F7F4FC8010E94A3
:103FE000270B5601F5018081882311F1F6015F014D
:103FF0008191811115C045018C189D081814190470
:1040000094F48F8641E050E0BE01615F7F4FC801AC
:104010000E94270BA401B601C8010E94270B03C010
:104020008E3229F7E8CF6501FFEFCF1ADF0ADACF2A
:104030001F8641E050E0BE01615F7F4FC8010E94D2
:10404000270BC12CDD24D394DE86CD8642E050E0E0
:10405000BE01635F7F4FC8010E94270BDE86CD86BD
:1040600042E050E0BE01635F7F4FC8010E94270B12
:10407000C8010E94440C892B09F46CCF63E0A62E82
:10408000B12CF2E06F0E711C0E94FC141B012C017C
:10409000C8010E94CE0A18161906A4F00E94FC144A
:1040A000DC01CB0182199309A409B5098938934130
:1040B000A105B105D0F462E370E080E090E00E94D9
:1040C000C214E6CFF7014281538164817581808DEE
:1040D000918DA28DB38D481759076A077B0741F46C
:1040E000848D958DC59721F406C02FEF3FEF9AC0C0
:1040F0002EEF3FEF97C0F70181A192A10C970CF42E
:10410000A6C04CE050E0BE016F5F7F4FC8010E9427
:10411000860A8B8190E0982F88272C81822B9A8B9E
:10412000898B298130E0322F22274A81242BF70105
:10413000468157814217530709F086C097FF84C014
:104140008F709270892B09F0DEC0CF80D12CDC2CCF
:10415000CC248885C82AC114D10409F4D1C0812C8B
:10416000912C8D8190E0982F88272E81822B8816A4
:10417000990608F46FC0812C912C41E050E0BE01FB
:104180006D5E7F4FC8010E94860A8B89982F907CB4
:1041900009F093C0811186C08B898111EECF42E076
:1041A00050E0BE01615F7F4FC8010E94860A42E075
:1041B00050E0BE01635F7F4FC8010E94860AC801BC
:1041C0000E94A50AC8010E94A50AC8010E94A50A6A
:1041D000C8010E94A50A42E050E0BE016F5E7F4F19
:1041E000C8010E94860A8F8598898115914009F03F
:1041F00069C02D853E85322723273227213031059E
:1042000009F060C089899A898115944009F075C0C8
:1042100044E050E0B301C8012C8B3D8B0E94860A1C
:104220002C893D896901F1E0AF1AB10829F02FEF1F
:10423000C216D20609F428CFC8010E94D20BC601CB
:1042400065C08EEF9FEF62C02CEF3FEFEBCF2DEFFD
:104250003FEFE8CF41E050E0BE01635F7F4FC80110
:104260000E94860A8D85811113C08D858111F2CF40
:10427000C8010E94A50AC8010E94A50AC8010E949F
:10428000A50AC8010E94A50AFFEF8F1A9F0A69CFED
:104290008D859FEF980F9D87882339F3C8010E9471
:1042A000A50AF6CF8B899FEF980F9B8B882309F483
:1042B00073CFC8010E94A50AF5CFC8010E94A50AC4
:1042C0001B8A6ACF412C512C89899A899827892782
:1042D00098274816590638F4C8010E94A50A8FEF9E
:1042E000481A580AF1CFEFEF8E1A9E0A8C149D04DB
:1042F00009F043CF26EF3FEF95CF27EF3FEF92CF67
:104300002AEF3FEF8FCF2BEF3FEF8CCF65960FB6A5
:10431000F894DEBF0FBECDBFDF91CF911F910F91FB
:10432000FF90EF90DF90CF90BF90AF909F908F90D5
:104330007F906F905F904F903F902F900895809165
:104340007B04829586958770813019F480917E0474
:104350000895811105C08EE794E00E9462240895BB
:1043600080E00895CF93C82F462F61E070E00E944F
:10437000140C61E070E08C2F0E941E0C8111F9CFAB
:10438000CF9108958F929F92AF92BF92CF92DF927A
:10439000EF92FF920F931F93CF93DF93B82E4B01B1
:1043A0008A01A22E68E270E00E941E0CC82FD0E0A5
:1043B00069E270E08B2D0E941E0CDC2FCC27C82BED
:1043C0009E013770CB2CD12CC601880F991FAC01F0
:1043D0004D555C4F6A01FA0180819181820F931FD4
:1043E000A801420F531F4130584098F060E078E038
:1043F0007B01E21AF30AA701B4010E94C315A801C8
:104400004E195F09B4016E0D7F1DF6018081918107
:1044100002C0A801B4010E94C315A1100EC0C00FB4
:10442000D11F4D2F68E270E08B2D0E94140C4C2F91
:1044300069E270E08B2D0E94140CDF91CF911F91E7
:104440000F91FF90EF90DF90CF90BF90AF909F9033
:104450008F90089590E0FC01E75AFB4F2491FC01F6
:10446000EB5BFB4F8491882399F090E0880F991FB4
:10447000FC01E55CFB4FA591B491FC01EF5CFB4FA7
:10448000859194918FB7F894EC91E22BEC938FBFC8
:104490000895CF93DF9300D000D000D0CDB7DEB722
:1044A000789484B5826084BD84B5816084BD85B50F
:1044B000826085BD85B5816085BD80916E0081601B
:1044C00080936E00109281008091810082608093C1
:1044D00081008091810081608093810080918000C3
:1044E0008160809380008091B10084608093B100EE
:1044F0008091B00081608093B00080917A008460E8
:1045000080937A0080917A00826080937A00809113
:104510007A00816080937A0080917A00806880932D
:104520007A001092C100E091BB03F091BC0382E0DD
:104530008083E091B703F091B8031082E091B90352
:10454000F091BA0380E180831092C303E091BF032E
:10455000F091C00386E08083E091BD03F091BE033B
:10456000808180618083E091BD03F091BE038081F2
:1045700088608083E091BD03F091BE0380818068F4
:104580008083E091BD03F091BE0380818F7D8083A5
:1045900080E090E0892B11F00E9400008FE094E011
:1045A0009F938F930E94C40341E050E063E071E069
:1045B00089E993E00E94912A81E090E00E94A12A7B
:1045C0000F900F908F3F29F06FEF81E090E00E94F5
:1045D000A92A8AE191E0909391038093900386E168
:1045E00091E00E94EA028091960382FD04C0A895A2
:1045F0000E94FA08F8CF8EEE91E09A838983809129
:10460000CE049091CF04A091D004B091D1048B83BB
:104610009C83AD83BE83CE0101960E941B1D01EBDE
:1046200013E0F8016491611154C08EEE91E09A8319
:1046300089831B821C821D821E8280E590E00E947D
:10464000471844E050E0BE016D5F7F4F8FE090E07F
:104650000E94C3150E9446186BEA73E0CE010196D2
:104660000E94681C65E272E08BEA93E00E944203BC
:1046700068EE73E080E090E00E94C21485EA94E066
:104680000E94380E0E94AF0E81E080939A0386EB61
:1046900093E09F938F930E94C40380919A031F928B
:1046A0008F9380918F031F928F9380918E031F921F
:1046B0008F9380918D031F928F9380ED93E09F9352
:1046C0008F930E94C4030FB6F894DEBF0FBECDBF18
:1046D00010C0E091AB03F091AC030190F081E02DAC
:1046E0008BEA93E009950F5F1F4F892B09F099CF53
:1046F0009CCF0E94D70E0E940B14FBCFE2EDF4E09A
:104700008EEE91E09183808312821382148215824F
:10471000EBEAF3E01382128248EE53E060E070E0CF
:1047200044835583668377832CE731E0318320838C
:1047300025EC30E03587248724EC30E03787268766
:1047400020EC30E0318B208B21EC30E0338B228B5E
:1047500022EC30E0358B248B26EC30E0378B268B37
:10476000118E128E138E148EE8EDF4E09183808307
:104770001282138214821582EEEDF4E0918380831D
:104780001282138214821582E4EEF4E09183808316
:104790001282138214821582EAEEF4E09183808300
:1047A0001282138214821582E8E4F4E091838083FC
:1047B0001282138214821582E0E5F4E091838083F3
:1047C0001282138214821582E0EFF4E091838083D9
:1047D0001282138214821582E6EFF4E091838083C3
:1047E0001282138214821582ECECF4E091838083B0
:1047F0008AE082831382148289E185831092AD045A
:10480000E5EAF4E0138212828CED91E091838083DB
:104810008BE893E195838483E8E9F4E013821282C4
:10482000448355836683778388EB91E0918380830B
:1048300084E0848710927904109258040895EE0F52
:10484000FF1F0590F491E02D099481E090E0F89429
:104850000C94102BFB01DC0102C001900D92415021
:104860005040D8F70895FB01DC014150504048F01A
:1048700001900D920020C9F701C01D924150504097
:10488000E0F70895EF920F931F93CF93DF93E80122
:1048900047FD02C034E001C034E1E42F440FFF0BB8
:1048A000F7FF03C0F195E195F109E32E022F2E2FBA
:1048B000AE010E946F27CE01DF91CF911F910F9122
:1048C000EF900895FC0188279927E89421912032E0
:1048D000E9F3293010F02E30C8F32B3241F02D329D
:1048E00039F4689404C00E94FD24820F911D219127
:1048F00020532A30C0F31EF4909581959F4F089560
:104900001F93FC0199278827BC01E894119110326C
:10491000E9F3193010F01E30C8F31B3251F01D328C
:1049200049F4689406C00E94E824610F711D811D3E
:10493000911D119110531A30B0F33EF4909580956B
:10494000709561957F4F8F4F9F4F1F910895FA018A
:10495000A191B081009719F41097E1F0CD01DC012D
:10496000CD010D90002011F4C00113C0FB01219175
:10497000222319F02015D9F7F3CFFB01219120153F
:1049800019F41E92119606C02223C1F70D90002043
:10499000A1F7D001FA01A193B0830895BB274A3053
:1049A00031F4992322F4BDE2909581959F4F0C94A8
:1049B0002825BB272A3051F4992342F4BDE2909573
:1049C0008095709561957F4F8F4F9F4F0C94062572
:1049D000592F482F372F262F660F771F881F991FB3
:1049E000660F771F881F991F620F731F841F951F03
:1049F000660F771F881F991F08957AE0979F902D63
:104A0000879F802D910D11240895BB27FA01A62FB1
:104A10006217710581059105330B30FB66F0AA27FB
:104A2000660F771F881F991FAA1FA21710F0A21BDD
:104A300063953850A9F7A05DAA3308F0A95DA1934A
:104A400036F7B111B1931082CA010C94EB29BB2740
:104A5000FB015527AA27880F991FAA1FA41710F03A
:104A6000A41B83955051B9F7A05DAA3308F0A95D46
:104A7000A193009779F7B111B1931192CB010C94E6
:104A8000EB29AEE0B0E0E7E4F5E20C94C52A0D892D
:104A90001E898F89988D2EE02C831A83098397FFB6
:104AA00002C080E090E801979E838D83AE01455E51
:104AB0005F4F698D7A8DCE0101960E949D254D81B3
:104AC0005E8157FD0AC02F813885421753070CF4C9
:104AD0009A01F801E20FF31F10822E96E4E00C9485
:104AE000E12AAEE0B0E0E7E7F5E20C94C52A8C01DC
:104AF000CA014EE04C831A83098377FF02C060E04D
:104B000070E8FB013197FE83ED83A901BC01CE0162
:104B100001960E949D254D815E8157FD0AC02F811F
:104B20003885421753070CF49A01F801E20FF31F7E
:104B300010822E96E4E00C94E12AACE0B0E0E3EAC7
:104B4000F5E20C94B72A7C016B018A01FC01178203
:104B50001682838181FFBDC1CE0101964C01F70110
:104B60009381F60193FD859193FF81916F018823D5
:104B700009F4ABC1853239F493FD859193FF81919E
:104B80006F01853229F4B70190E00E94FB29E7CF3D
:104B9000512C312C20E02032A0F48B3269F030F41B
:104BA000803259F0833269F420612CC08D3239F0A3
:104BB000803339F4216026C02260246023C028603D
:104BC00021C027FD27C030ED380F3A3078F426FF9A
:104BD00006C0FAE05F9E300D1124532E13C08AE008
:104BE000389E300D1124332E20620CC08E3221F4F9
:104BF00026FD6BC1206406C08C3611F4206802C00B
:104C0000883641F4F60193FD859193FF81916F0100
:104C10008111C1CF982F9F7D9554933028F40C5F5C
:104C20001F4FFFE3F9830DC0833631F0833771F0F6
:104C3000833509F05BC022C0F801808189830E5F53
:104C40001F4F44244394512C540115C03801F2E005
:104C50006F0E711CF801A080B18026FF03C0652D86
:104C600070E002C06FEF7FEFC5012C870E94E02942
:104C70002C0183012C852F77222E17C03801F2E0FA
:104C80006F0E711CF801A080B18026FF03C0652D56
:104C900070E002C06FEF7FEFC5012C870E94D5291D
:104CA0002C012C852068222E830123FC1BC0832D20
:104CB00090E048165906B0F4B70180E290E00E94F7
:104CC000FB293A94F4CFF50127FC859127FE8191C9
:104CD0005F01B70190E00E94FB2931103A94F1E0A6
:104CE0004F1A51084114510471F7E5C0843611F090
:104CF000893639F5F80127FF07C06081718182810B
:104D000093810C5F1F4F08C060817181072E000CDA
:104D1000880B990B0E5F1F4F2F76722E97FF09C0DD
:104D200090958095709561957F4F8F4F9F4F20682C
:104D3000722E2AE030E0A4010E94332AA82EA8187F
:104D400044C0853729F42F7EB22E2AE030E025C0FA
:104D5000F22FF97FBF2E8F36C1F018F4883579F025
:104D6000B4C0803719F0883721F0AFC02F2F2061F1
:104D7000B22EB4FE0DC08B2D8460B82E09C024FF66
:104D80000AC09F2F9660B92E06C028E030E005C00B
:104D900020E130E002C020E132E0F801B7FE07C0B8
:104DA00060817181828193810C5F1F4F06C0608199
:104DB000718180E090E00E5F1F4FA4010E94332AB2
:104DC000A82EA818FB2DFF777F2E76FE0BC0372D5F
:104DD0003E7FA51450F474FE0AC072FC08C0372D43
:104DE0003E7E05C0BA2C372D03C0BA2C01C0B52CAD
:104DF00034FF0DC0FE01EA0DF11D8081803311F4F6
:104E0000397E09C032FF06C0B394B39404C0832F27
:104E1000867809F0B39433FD13C030FF06C05A2CD6
:104E2000B31418F4530C5B18B32CB31468F4B70123
:104E300080E290E03C870E94FB29B3943C85F5CF4B
:104E4000B31410F43B1801C0312C34FF12C0B70169
:104E500080E390E03C870E94FB293C8532FF17C02D
:104E600031FD03C088E790E002C088E590E0B7011B
:104E70000CC0832F867859F031FF02C08BE201C04D
:104E800080E237FD8DE2B70190E00E94FB29A51476
:104E900038F4B70180E390E00E94FB295A94F7CFE1
:104EA000AA94F401EA0DF11D8081B70190E00E94FF
:104EB000FB29A110F5CF332009F451CEB70180E2D0
:104EC00090E00E94FB293A94F6CFF7018681978102
:104ED00002C08FEF9FEF2C96E2E10C94D32A4F9201
:104EE0005F926F927F929F92AF92BF92CF92DF922A
:104EF000EF92FF920F931F93CF93DF93CDB7DEB75F
:104F000029970FB6F894DEBF0FBECDBF6A01122FEE
:104F1000B02E2BE3201720F0FF24F394F00E02C0F4
:104F2000BCE3FB2E0F2D27E0AE014F5F5F4F0E94C9
:104F3000FD28AC018981982F9970913031F0E1FC06
:104F400006C0E0FE06C090E205C09DE203C09BE201
:104F500001C090E0EE2DE07183FF3CC0911102C0D2
:104F600083E001C084E0811718F4212F281B01C0C1
:104F700020E0E1110BC0F601822F30E2882319F006
:104F800031938150FBCFC20ED11C20E0992329F030
:104F9000D6019C93F60131966F01C6010396E2FE9D
:104FA0000AC03EE4D6013C9341E411964C9311971C
:104FB00012963C9306C03EE6F601308341E64183FB
:104FC0003283FC01322F40E2332309F442C0419383
:104FD0003150FACF82FF44C0911102C083E001C07A
:104FE00084E0811718F4212F281B01C020E0E11173
:104FF0000BC0F601822F30E2882319F031938150E3
:10500000FBCFC20ED11C20E0992329F0D6019C933E
:10501000F60131966F01C6010396E2FE0BC039E43A
:10502000D6013C933EE411963C93119736E41296D8
:105030003C9307C039E6F60130833EE6318336E61D
:105040003283FC01322F40E2332319F04193315077
:10505000FBCFFC01E20FF11D10828EEF9FEFB7C076
:10506000F1E0911101C0F0E06F2F70E01416150609
:1050700024F49A012F5F3F4F02C021E030E0260F59
:10508000371FBB2029F06B2D70E06F5F7F4F02C090
:1050900060E070E0260F371F612F70E0261737079A
:1050A0001CF4121B212F01C020E03E2D387159F451
:1050B000D601322F60E2332319F06D933150FBCFCC
:1050C000C20ED11C20E0FF2331F0D6019C93B60123
:1050D0006F5F7F4F6B01E1110BC0F601922F30E340
:1050E000992319F031939150FBCFC20ED11C20E0CF
:1050F0009F2D940F3A81782F7071A72E84FF03C0E3
:10510000313309F49150191624F4993018F098E0CD
:1051100001C091E0E42F852F57FF02C0E0E080E05E
:105120006E2F782FE0E0F0E0AEE29A2E3A01691A95
:1051300071082A01461A570A0B2D10E011950195A6
:1051400011096F3F8FEF780729F4D6019C92C601B1
:1051500001966C014617570784F0661677066CF4C3
:105160007F01E40CF51CA1E0B0E0AC0FBD1FEA0E1E
:10517000FB1ED7011196BC9002C090E3B92E61507E
:1051800071093196C60101967C016017710724F000
:10519000D601BC926C01D5CF6417750741F4363344
:1051A00020F4353321F4A11002C081E3B82EF601BA
:1051B000B082F701822F90E2882319F091938150F9
:1051C000FBCFF701E20FF11D108280E090E02996FD
:1051D0000FB6F894DEBF0FBECDBFDF91CF911F9108
:1051E0000F91FF90EF90DF90CF90BF90AF909F9086
:1051F0007F906F905F904F900895283008F027E0DF
:105200003327DA01990F311D87FD91600096610502
:10521000710539F432602E5F3D9330E32A95E1F752
:1052200008959F3F30F080387105610509F03C5FBB
:105230003C5F3D93913008F08068911DDF93CF93E0
:105240001F930F93FF92EF92192F987F9695E92F56
:1052500096959695E90FFF27E953FB4F992733273A
:10526000EE24FF24A701E70105900894079428F491
:10527000360FE71EF81E491F511D660F771F881F46
:10528000991F0694A1F70590079428F4E70EF81EDD
:10529000491F561FC11D770F881F991F661F06944F
:1052A000A1F70590079428F4F80E491F561FC71F51
:1052B000D11D880F991F661F771F0694A1F70590CF
:1052C000079420F4490F561FC71FD81F990F661F58
:1052D000771F881F0694A9F784911095177041F0E5
:1052E000D695C79557954795F794E7941A95C1F7C2
:1052F000EDE6F4E0689415901591359165919591DE
:1053000005907FE27395E118F10A430B560BC90B28
:10531000D009C0F7E10CF11E431F561FC91FD01D55
:105320007EF4703311F48A95E6CFE894015030F0A2
:10533000080F0AF40027021708F4202F2395022FE4
:105340007A3328F079E37D932A95E9F710C07D93AD
:105350002A9589F60694979567953795179517942A
:10536000E118F10A430B560BC90BD00998F02395AD
:105370007E9173957A3308F070E37C932013B8F72D
:105380007E9170617D9330F0839571E37D9370E33E
:105390002A95E1F71124EF90FF900F911F91CF9183
:1053A000DF91992787FD90950895FC010590615044
:1053B00070400110D8F7809590958E0F9F1F08952B
:1053C000FC016150704001900110D8F780959095D4
:1053D0008E0F9F1F0895DC01FC01672F71917723C9
:1053E000E1F7329704C07C916D9370836291AE17A0
:1053F000BF07C8F308950F931F93CF93DF93FB016B
:10540000238121FD03C08FEF9FEF28C022FF16C02C
:1054100046815781248135814217530744F4A08186
:10542000B1819D012F5F3F4F318320838C93268173
:1054300037812F5F3F4F3783268310C0EB01092F41
:10544000182F0084F185E02D0995892BE1F68E81D6
:105450009F8101969F838E83812F902FDF91CF9123
:105460001F910F910895FA01AA27283051F1203198
:1054700081F1E8946F936E7F6E5F7F4F8F4F9F4FE8
:10548000AF4FB1E03ED0B4E03CD0670F781F891F2A
:105490009A1FA11D680F791F8A1F911DA11D6A0FF8
:1054A000711D811D911DA11D20D009F468943F91AB
:1054B0002AE0269F11243019305D3193DEF6CF01AA
:1054C0000895462F4770405D4193B3E00FD0C9F770
:1054D000F6CF462F4F70405D4A3318F0495D31FDDD
:1054E0004052419302D0A9F7EACFB4E0A695979530
:1054F000879577956795BA95C9F700976105710506
:1055000008959B01AC010A2E06945795479537954F
:105510002795BA95C9F7620F731F841F951FA01DA9
:105520000895DC01CB01FC01F999FECF06C0F2BD64
:10553000E1BDF89A319600B40D9241505040B8F751
:105540000895F999FECF92BD81BDF89A992780B54B
:105550000895262FF999FECF1FBA92BD81BD20BDB7
:105560000FB6F894FA9AF99A0FBE019608952F9201
:105570003F924F925F926F927F928F929F92AF92E3
:10558000BF92CF92DF92EF92FF920F931F93CF9330
:10559000DF93CDB7DEB7CA1BDB0B0FB6F894DEBFC7
:1055A0000FBECDBF09942A88398848885F846E84ED
:1055B0007D848C849B84AA84B984C884DF80EE8037
:1055C000FD800C811B81AA81B981CE0FD11D0FB640
:1055D000F894DEBF0FBECDBFED010895A1E21A2EF3
:1055E000AA1BBB1BFD010DC0AA1FBB1FEE1FFF1F87
:1055F000A217B307E407F50720F0A21BB30BE40BD7
:10560000F50B661F771F881F991F1A9469F760951D
:105610007095809590959B01AC01BD01CF010895D7
:04562000F894FFCF2C
:1056240000FCE1A8A82C09DF023A143A1400C0FFD8
:10563400DEADBEEFFEED3A090000060918030000D6
:10564400000580000100000001005E000000000071
:1056540000003B143B143B143B143B143B143B141D
:105664003B143B143B143B143B143B143B143B14BE
:105674003B14000000000F0A270B250AA50A6D0A37
:105684000E0AE70BD20B040D5F0B440CCE0A860AFC
:105694003D0A2D0A290A8D0C00000000B21CBC1B17
:1056A400091CE71BFB1BF91C000000003B143B1406
:1056B4003B143B143B143B143B143B143B143B146E
:1056C4003B143B14000000003B14BC1B3B143B1474
:1056D4003B143B14000000004A179018CA17B01777
:1056E400891749170419D317AC174A186517650A9F
:1056F400621760175A0AE00200000000440AC70D4E
:10570400380E000000003B14BC1B00000000681CA5
:10571400000000003B146263006661696C006F6BFB
:10572400002100322E302E30004761746577617994
:10573400207374617274757020636F6D706C65741E
:08574400652E003B000D0A0078
:00000001FF
