:100000000C9414030C942D0D0C94060D0C943C03CD
:100010000C943C030C943C030C946B160C943C0322
:100020000C943C030C943C030C943C030C943C0354
:100030000C943C030C943C030C943C030C943C0344
:100040000C94BC0C0C943C030C94860B0C94600B2D
:100050000C943C030C943C030C943C030C943C0324
:100060000C943C030C943C03215453503A53454E9A
:10007000443A544E520A00215453503A53414E438D
:10008000484B3A4641494C0A005453503A43525463
:100090003A4F4B0A0049443A202564207669612092
:1000A00025640A004E6F6465207265676973747217
:1000B0006174696F6E3D25640A005453503A434899
:1000C0004B55504C3A4F4B2028464C444354524CCD
:1000D000290A005453503A4D53473A52454C205048
:1000E000784E472028686F70733D2564290A0054B4
:1000F00053503A4D53473A52454C204D53470A000E
:100100005453503A4D53473A465744204243204DAA
:1001100053470A005453503A4D53473A47574C20DF
:100120004F4B0A005453503A4D53473A46504152B0
:1001300020524551202873656E6465723D256429FF
:100140000A005453503A4D53473A42430A0054531D
:10015000503A4D53473A504F4E4720524543562050
:1001600028686F70733D2564290A005453503A4D36
:1001700053473A50494E474544202849443D256459
:100180002C20686F70733D2564290A005453503A3F
:100190004D53473A504152204F4B202849443D256A
:1001A000642C20646973743D2564290A00545350FB
:1001B0003A4D53473A465041522052455320284920
:1001C000443D25642C20646973743D2564290A002C
:1001D0005453503A4D53473A41434B206D73670A8D
:1001E00000215453503A4D53473A50564552206DD2
:1001F00069736D617463680A005453503A4D5347F4
:100200003A524541442025642D25642D25642073F0
:100210003D25642C633D25642C743D25642C70744D
:100220003D25642C6C3D25642C73673D25643A257F
:10023000730A005453503A53414E43484B3A4F4B84
:100240000A0000000000240027002A000000000827
:10025000000201000003040700000000000000008D
:100260004E4F44453A215245470A00010204081006
:100270002040800102040810200102040810200020
:10028000000000250028002B0004040404040404DA
:100290000402020202020203030303030352657114
:1002A0007565737420726567697374726174696FC0
:1002B0006E2E2E2E0A00496E697420636F6D706C6D
:1002C0006574652C2069643D25642C20706172651D
:1002D0006E743D25642C2064697374616E63653DA2
:1002E00025642C20726567697374726174696F6E1E
:1002F0003D25640A005374617274696E67207265EB
:100300007065617465722028524E4E52412D2C202A
:10031000322E302E30290A002154534D3A52414496
:10032000494F3A4641494C0A0054534D3A524144D0
:10033000494F3A4F4B0A0054534D3A494E49540ADB
:100340000054534D3A465041520A002154534D3AFD
:10035000465041523A4641494C0A0054534D3A46A0
:100360005041523A4F4B0A0054534D3A49440A0007
:100370002154534D3A43484B49443A4641494C2055
:100380002849443D2564290A0054534D3A43484BBB
:1003900049443A4F4B202849443D2564290A0054DA
:1003A000534D3A55504C3A4F4B0A002154534D3A55
:1003B00055504C3A4641494C0A0054534D3A555019
:1003C0004C0A0054534D3A52454144590A002154B5
:1003D000534D3A55504C204641494C2C20534E50D9
:1003E0000A0054534D3A5044540A002154534D3A94
:1003F0004641494C5552450A005453503A415353D3
:1004000049474E49443A4F4B202849443D256429E9
:100410000A00215453503A41535349474E49443AF4
:100420004641494C202849443D2564290A0025734A
:100430005453503A4D53473A53454E442025642D6A
:1004400025642D25642D256420733D25642C633D92
:1004500025642C743D25642C70743D25642C6C3D02
:1004600025642C73673D25642C66743D25642C73CC
:10047000743D25733A25730A00215453503A524F64
:100480005554494E473A4445535420554E4B4E4FD0
:10049000574E2028646573743D25642C20535450B6
:1004A0003D2564290A00215453503A465041523A9E
:1004B00041435449564520286D7367206E6F742060
:1004C00073656E64290A005453503A50494E473AB6
:1004D00053454E442028646573743D2564290A0001
:1004E0005453503A43484B55504C3A4641494C209E
:1004F00028686F70733D2564290A005453503A43AD
:10050000484B55504C3A4447574320286F6C643D44
:1005100025642C6E65773D256429005453503A4379
:10052000484B55504C3A4F4B0A0000407A10F35A52
:1005300000A0724E18090010A5D4E80000E8764823
:10054000170000E40B54020000CA9A3B000000E1CF
:10055000F505000080969800000040420F00000062
:10056000A08601000000102700000000E803000042
:1005700000006400000000000A000000000001000C
:10058000000000002C76D888DC674F0823DFC1DF2D
:10059000AE59E1B1B796E5E3E453C63AE651997630
:1005A00096E8E6C28426EB898C9B62ED407C6FFC6A
:1005B000EFBC9C9F40F2BAA56FA5F490055A2AF7AC
:1005C0005C936B6CF9676DC11BFCE0E40D47FEF5B5
:1005D00020E6B500D0ED902E03009435770500801D
:1005E000841E080000204E0A000000C80C3333337C
:1005F000330F986E12831141EF8D2114893BE6551C
:1006000016CFFEE6DB18D1844B381BF77C1D901DFE
:10061000A4BBE424203284725E228100C9F124EC60
:10062000A1E53D27D819C81B11241FBECFEFD8E084
:10063000DEBFCDBF11E0A0E0B1E0E4ECFDE402C01C
:1006400005900D92A83CB107D9F723E0A8ECB1E0E2
:1006500001C01D92A933B207E1F713E0C3E1D3E073
:1006600004C02197FE010E94E91BC231D107C9F7DE
:100670000E94BF1A0C94D5260C94000020912E03E2
:1006800022FD0C948B1288E690E09F938F930E943A
:1006900061120F900F9080E008952F923F924F9239
:1006A0005F926F927F928F929F92AF92BF92CF9202
:1006B000DF92EF92FF920F931F93CF93DF93CDB70B
:1006C000DEB727970FB6F894DEBF0FBECDBF80917F
:1006D0002E0384FB992490F884FF12C50E947A0CA3
:1006E0000091C8011091C9012091CA013091CB013C
:1006F000005A15412F4F3F4F061717072807390794
:1007000018F50E947A0C6093C8017093C901809318
:10071000CA019093CB010E94971981110DC087E700
:1007200090E09F938F930E94611288E091E00E9475
:1007300027120F900F90E4C483E392E09F938F936E
:100740000E9461120F900F9026E02E8340E0A42EAD
:1007500040E0B42ECE0101969C838B8354EB452E52
:100760005BE2552E51E1652E712C65E9262E60E085
:10077000362E8FEF0E94D21990E09595879587705D
:10078000992706970CF0BCC43E8131503E83332339
:1007900009F4B6C421E041E060E070E080E60E9428
:1007A0004819813220F082EE0E94D21980E021E0C7
:1007B000482F6AEF72E081E60E94481960E487E200
:1007C0000E94B219A114B10421F081E090E00E94CE
:1007D0000000C090FE02D090FF021091FB02009139
:1007E000FA028090FC028AEF92E00E941B0A40917C
:1007F000FD022091FE02E12EF12C9F938F9342FB8C
:10080000882780F91F928F934695469546951F92AB
:100810004F93822F8295869587701F928F931F9298
:10082000DF9227701F922F93809100031F928F9366
:100830001F928F921F920F931F921F93A9EFB1E007
:10084000BF93AF930E946112E091FD028E2F8370DF
:100850000FB6F894DEBF0FBECDBF823071F0A11489
:10086000B10421F08BE690E00E94000081EE91E05F
:100870009F938F930E946112AAC32C2D27702D8302
:100880008091CD01881221C38E2F8770E695E69561
:10089000E695E93120F4EE0FEE0FEE0F01C0E8EC23
:1008A000E82BE093FD02E695E695E695F0E0E6504C
:1008B000FD4F17828091CE01081761F033E0E30EFF
:1008C000F11CC7010E942526081721F0602FC701DF
:1008D0000E942D268091FE0283FF21C081E2EAEF73
:1008E000F2E0A9EDB2E001900D928A95E1F78091D6
:1008F000DD02877F80618093DD028091CD0180934E
:10090000DA021093DB0280ED91E09F938F930E94B7
:10091000611289ED92E00E943E030F900F9090913A
:10092000FE0294FDCDC22D81233009F0C9C234E00E
:10093000D31207C08AEF92E00E94F7110E94CD13F4
:1009400018CF88E0D81235C08AEF92E00E94F711E4
:100950001F928F931F921F932DEA31E03F932F93A5
:100960008F830E9461120F900F900F900F900F9045
:100970000F908F818F3F09F4FCCE8F5F8F3F09F47A
:10098000F8CE9091CF01891708F0F3CE90912E0305
:1009900091FDEFCE8093CF011093CE011F928F93E4
:1009A0001F921F938CE891E09F938F930E94611296
:1009B0002AC0A8E1DA122EC08AEF92E00E94F71155
:1009C0001F928F931F921F938BE691E09F938F93BB
:1009D0000E9461128091CD018093DA021093DB02B4
:1009E0008FEF8093DF0289E18093DE028091DD0248
:1009F000807E83608093DD0261E089ED92E00E9459
:100A000010110E948B120F900F900F900F900F906B
:100A10000F90AFCEB9E1DB1212C080912E0383FF9D
:100A2000A8CE877F80932E038AEF92E00E94F71171
:100A3000809330031F928F938EE491E034C08091B5
:100A4000FF022091FB02211138C28D3099F480E021
:100A500090E0892B21F08AE090E00E94000098E06D
:100A600088E10FB6F894A895809360000FBE90932C
:100A70006000FFCF8B3101F58AEF92E00E94F71101
:100A800091E0811101C090E09093CC01A114B104D8
:100A900021F089E090E00E9400008091CC011F923B
:100AA0008F9384EA90E09F938F930E9461120F903E
:100AB0000F900F900F905DCE8630D1F4809101039E
:100AC000882329F061E08D3419F060E001C0692DC0
:100AD0006093240383E091E06F830E9425266F8159
:100AE000681709F446CE83E091E00E942D2641CE9E
:100AF000833119F40E949E113CCE823101F50E948F
:100B000014122091CD012093DA021092DB022FEF14
:100B10002093DF0226E12093DE0223EA2093DD0208
:100B20002091DC02277020622093DC026093E002B7
:100B30007093E1028093E2029093E302F4C081306B
:100B400009F520E030E0232B09F413CE892F82959C
:100B500086958770853049F4609101037091020396
:100B600080910303909104030AC0811105C081E0C4
:100B700093E00E943C1F03C060E070E0CB010E9444
:100B80000000F7CD8A30F1F580910103833409F03C
:100B9000F0CDA114B10421F08CE090E00E9400009F
:100BA00003E010E0C8010E9425268F3F21F06FEF7F
:100BB000C8010E942D260F5F1F4F023021E012074F
:100BC00089F789E890E09F938F930E94611280914A
:100BD000CD018093DA021092DB028FEF8093DF0267
:100BE0008AE08093DE028091DD02807E83608093C4
:100BF000DD026CE371E089ED92E00E941C110E941D
:100C00001C0EE5C18C3109F05BC180910103823576
:100C100009F052C000E010E088248A94C8010396CD
:100C20000E9425268F3F31F40F5F1F4F0F3F1105A4
:100C3000A9F79FCD1F928F931F930F933F922F92EF
:100C40008F830E9461129091CD019093DA021092ED
:100C5000DB028092DF023CE13093DE0293EC909362
:100C6000DD029091DC02977090619093DC0200931A
:100C7000E0028F818093E10289ED92E00E941C0ED8
:100C80000E947A0C6B017C010F900F900F900F90D7
:100C90000F900F900E947A0CDC01CB018C199D09FA
:100CA000AE09BF09883C9105A105B10508F0BCCF8C
:100CB000A8950E940812EECF8635D1F58EE4809378
:100CC0007C0066E470E080E090E00E94400C80913F
:100CD0007A00806480937A0080917A0086FDFCCF50
:100CE00020917800309179008091CD018093DA02D3
:100CF0001092DB028FEF8093DF028CE18093DE02A3
:100D000083E68093DD028091DC02877080618093AE
:100D1000DC0240E050E0C301B2010E94A4263093FF
:100D2000E1022093E00289ED92E00E941C0E21CDA9
:100D3000863409F059C0F8948FEF86BB1092850075
:100D400010928400109280001092820090916000B6
:100D50002DE088E10FB6F894A895809360000FBE4F
:100D60002093600080916000806480936000A8956B
:100D700085E0809381008091600087FFFCCF109216
:100D80008100A895809160008861809360009093B5
:100D90006000789460918400709185008091CD010D
:100DA0008093DA021092DB028FEF8093DF028CE1F6
:100DB0008093DE0283E68093DD028091DC028770FF
:100DC00080618093DC02CB01A0E0B0E0BC01CD01EA
:100DD0003BE0660F771F881F991F3A95D1F720EAED
:100DE00036E841E050E099CF8D3431F580913503FC
:100DF00090913603009711F489E393E02091CD019F
:100E00002093DA021092DB022FEF2093DF022CE115
:100E10002093DE0223E62093DD022091DC0227707E
:100E200020612093DC02AB81BC81A81BB90BB0937D
:100E3000E102A093E00277CF853409F09ACC80914B
:100E4000CD018093DA021092DB028FEF8093DF02F4
:100E50008CE18093DE028091DD02807E836080934E
:100E6000DD026CE371E089ED92E00E941C110E94AA
:100E70001C0E00E010E0C8010E9425268F3F21F0E3
:100E80006FEFC8010E942D260F5F1F4F0D39B1E093
:100E90001B0789F780E090E0892B21F08AE090E041
:100EA0000E94000098E088E10FB6F894A89580931E
:100EB00060000FBE90936000FFCF8A3109F459CCD7
:100EC0008AEF92E00E94751654CC2FEF8212B6C0C2
:100ED000A2E4B1E0BF93AF930E9461120F900F9014
:100EE0003D81333009F09CC090912E038091CE015A
:100EF00092FF70C097E0D9126DC0181709F439CC71
:100F00001F921F93A4E2B1E0BF93AF930E946112BE
:100F100033E0E30EF11CC7010E9425260F900F90CD
:100F20000F900F90181721F0612FC7010E942D26F6
:100F30000E947A0C209131033091320340913303A7
:100F400050913403DC01CB01821B930BA40BB50B36
:100F500080319742A105B10508F0B2C08AEB90E05C
:100F60009F938F930E9461120F900F900E947A0CB2
:100F7000609331037093320380933303909334036F
:100F800084E191E09F938F930E9461120E947A0CFA
:100F90007370882799270E94400C6091CF0180913F
:100FA000CD018093DA021093DB028FEF8093DF0292
:100FB00088E08093DE028091DD02807E83608093F2
:100FC000DD0289ED92E00E9410110E948B120F90B9
:100FD0000F90CFCB34E1D31223C0081321C00E945D
:100FE0007A0C7370882799270E94400C6091CE017B
:100FF0008091CD018093DA021093DB028FEF809312
:10100000DF0285E18093DE028091DD02807E8360D5
:101010008093DD0289ED92E00E9410110E948B12F4
:101020008091CE010813A5CB8091CD01181709F44A
:1010300062C080912E0382FD49C05DC080912E0365
:1010400082FF97CBAFEEB0E0BF93AF930E946112E7
:101050000F900F908091CE01081761F033E0E30EFE
:10106000F11CC7010E942526081721F0602FC70137
:101070000E942D262D812330F1F488EE8D0D8230D3
:10108000D0F48AEF92E00E94F7118E3FA1F01F92F8
:101090008F93A3EDB0E0BF93AF938F830E94611253
:1010A0008F8161E0680F8AEF92E00E9410110F902B
:1010B0000F900F900F908AEF92E00E948B1259CB05
:1010C0000E94A118882309F454CB50CFA0E0B1E0CE
:1010D000BF93AF930E9461128AEF92E00E948B123D
:1010E0000F900F903D81333009F443CB8091CE01B6
:1010F00008133FCBE5CE2D81233009F0E1CE39CB6B
:1011000027960FB6F894DEBF0FBECDBFDF91CF910B
:101110001F910F91FF90EF90DF90CF90BF90AF9015
:101120009F908F907F906F905F904F903F902F9007
:101130000895CF92DF92EF92FF920F931F93CF9378
:10114000DF936C017A018B01C0E0D0E0CE15DF05A2
:1011500089F0D8016D918D01D601ED91FC9101903E
:10116000F081E02DC6010995892B11F47E0102C0A2
:101170002196ECCFC701DF91CF911F910F91FF9086
:10118000EF90DF90CF900895FC01918D828D98179C
:1011900061F0828DDF01A80FB11D5D968C91928D5B
:1011A0009F5F9F73928F90E008958FEF9FEF089558
:1011B000FC01918D828D981731F0828DE80FF11D21
:1011C000858D90E008958FEF9FEF0895FC01918D3C
:1011D000228D892F90E0805C9F4F821B91098F7335
:1011E0009927089583E092E00E94E60821E0892B88
:1011F00009F420E0822F0895FC01848DDF01A80FFF
:10120000B11DA35ABF4F2C91848D90E001968F732E
:101210009927848FA689B7892C93A089B1898C914D
:1012200080648C93938D848D981306C00288F38913
:10123000E02D80818F7D80830895EF92FF920F9340
:101240001F93CF93DF93EC0181E0888F9B8D8C8D72
:10125000981305C0E889F989808185FD24C0F62EA0
:101260000B8D10E00F5F1F4F0F731127E02E8C8D39
:10127000E8120CC00FB607FCFACFE889F989808123
:1012800085FFF5CFCE010E94FC08F1CF8B8DFE01CA
:10129000E80FF11DE35AFF4FF0820B8FEA89FB89BB
:1012A0008081806207C0EE89FF896083E889F989BF
:1012B00080818064808381E090E0DF91CF911F91F5
:1012C0000F91FF90EF900895CF93DF93EC01888DFD
:1012D0008823C9F0EA89FB89808185FD05C0A8893A
:1012E000B9898C9186FD0FC00FB607FCF5CF8081C0
:1012F00085FFF2CFA889B9898C9185FFEDCFCE010A
:101300000E94FC08E7CFDF91CF91089580E090E044
:10131000892B29F00E94F20881110C940000089595
:101320003FB7F8948091200390912103A09122036C
:10133000B091230326B5A89B05C02F3F19F0019655
:10134000A11DB11D3FBFBA2FA92F982F8827820F4B
:10135000911DA11DB11DBC01CD0142E0660F771F9B
:10136000881F991F4A95D1F7089508950E94611D1D
:101370008F929F92AF92BF92CF92DF92EF92FF92A5
:101380002091A0023091A10282179307B8F54B017A
:10139000AA24BB24F82DC52ED62EE72EFF24EC2D33
:1013A000342F2091A502222361F0829E4001112456
:1013B000F92DC29E60011124ED2D429FA001112440
:1013C000352FAC01440F551F840F951F4091A60285
:1013D0005091A702840F951F2091A802DC01A20F53
:1013E000B11DFC932091A902DC01A20FB11DEC9369
:1013F0002091AA02FC01E20FF11D3083FF90EF90D3
:10140000DF90CF90BF90AF909F908F9008950097FE
:1014100069F0FC0101900020E9F73197AF01481B0A
:10142000590BBC0183E092E00C94990880E090E0B5
:1014300008950C94070A0F931F93CF93DF93EC0149
:101440008C8182958695877091F44B81469546955F
:10145000469550E0BE01695F7F4F80ED91E00E94AC
:10146000661DEB81E695E695E695F0E077C0813064
:1014700031F48F814AE060ED71E090E007C0823086
:1014800041F44AE060ED71E08F8198850E94631F0E
:1014900068C0833041F44AE060ED71E08F81988547
:1014A0000E94BC1F5EC0843051F46F8178858985AD
:1014B0009A852AE040ED51E00E946E1F52C08530AF
:1014C00051F46F81788589859A852AE040ED51E055
:1014D0000E949A1F46C0873071F42B85293008F08E
:1014E00028E06F81788589859A8500ED11E042E0DA
:1014F0000E94751D36C08630A1F520E0EB81E6958F
:10150000E695E6952E1738F5E22FF0E0AF01440F8F
:10151000551FDA01A053BE4FEC0FFD1F8781082E27
:10152000000C990B34E0959587953A95E1F78F700B
:101530008A3010F4805D01C0895C8C93DA01AF526F
:10154000BE4F87818F708A3010F4805D01C0895C46
:101550008C932F5FD3CFF0E0EE0FFF1FE053FE4FD1
:10156000108280ED91E0DF91CF911F910F9108954E
:10157000FC018091CD0181839481907F916094835F
:101580008091CC01882319F0CF010C943E0380E6B2
:1015900092E09F938F930E9461120F900F9080E0D2
:1015A00008958F929F92AF92BF920F931F93CF9304
:1015B000DF93CDB7DEB7A1970FB6F894DEBF0FBEAD
:1015C000CDBF19A2423008F44AE08E010F5D1F4FD3
:1015D000842E912CA12CB12CA50194010E94A4264B
:1015E000E62FB901CA0101501109EA3014F4E05D97
:1015F00001C0E95CD801EC93232B242B252B61F748
:10160000C8010E94070AA1960FB6F894DEBF0FBE6C
:10161000CDBFDF91CF911F910F91BF90AF909F9061
:101620008F900895CF92DF92EF92FF92CF93DF9346
:101630006B017C01E0910302F09104020190F081C2
:10164000E02D6DE283E092E00995EC0166277727B3
:10165000CB016C197D098E099F094AE00E94D10ACD
:101660008C0F9D1FDF91CF91FF90EF90DF90CF9077
:101670000895BC01990F880B990B97FD0C94120BE0
:101680004AE00C94D10A8F3F19F021E531E002C005
:101690002FE331E09091CD019093DA021092DB02BA
:1016A0008093DF026093DE028091DD02807E809372
:1016B000DD02B90189ED92E00E941C110C941C0E10
:1016C0001F920F920FB60F9211242F933F934F93B7
:1016D0005F936F937F938F939F93AF93BF93EF939A
:1016E000FF9383E092E00E94FC08FF91EF91BF918D
:1016F000AF919F918F917F916F915F914F913F91AA
:101700002F910F900FBE0F901F9018951F920F9260
:101710000FB60F9211242F938F939F93EF93FF9304
:10172000E0911302F09114028081E0911902F0918E
:101730001A0282FD12C0908180911C028F5F8F730C
:1017400020911D02821751F0E0911C02F0E0ED5F44
:10175000FD4F958F80931C0201C08081FF91EF9116
:101760009F918F912F910F900FBE0F901F90189502
:1017700090E0FC01E45BFD4F3491FC01E559FD4F25
:101780002491FC01E757FD4FE491EE2309F43BC09F
:10179000332339F1333091F038F43130A9F032305D
:1017A00001F584B58F7D12C0373091F03830A1F04B
:1017B0003430B9F4809180008F7D03C08091800027
:1017C0008F77809380000DC084B58F7784BD09C06A
:1017D0008091B0008F7703C08091B0008F7D80939F
:1017E000B000F0E0EE0FFF1FE158FD4FA591B4915E
:1017F0008FB7F894EC91611103C020952E2301C09E
:101800002E2B2C938FBF0895CF93DF9390E0FC0194
:10181000E559FD4F2491FC01E757FD4F8491882342
:1018200061F190E0880F991FFC01EE5BFD4FC591BF
:10183000D491FC01E158FD4FA591B491611109C00B
:101840009FB7F8948881209582238883EC912E237A
:101850000BC0623061F49FB7F8943881822F809575
:1018600083238883EC912E2B2C939FBF06C08FB7C8
:10187000F894E8812E2B28838FBFDF91CF910895B4
:101880008F929F92AF92BF92CF92DF92EF92FF9290
:101890006B017C010E9490094B015C01C114D104D1
:1018A000E104F104F1F00E949009DC01CB018819F8
:1018B0009909AA09BB09883E9340A105B10570F3B7
:1018C00021E0C21AD108E108F10888EE880E83E011
:1018D000981EA11CB11CC114D104E104F10419F734
:1018E000DDCFFF90EF90DF90CF90BF90AF909F90B3
:1018F0008F9008952FB7F89460911C0370911D0389
:1019000080911E0390911F032FBF0895CF92DF9205
:10191000EF92FF92CF93DF93D82F0E947A0C6B0146
:101920007C0181E0D11180E08093FF02C0E00E9441
:101930007A0CAB01BC014C195D096E097F09403D71
:1019400057406105710580F4C1110EC0A8950E9431
:1019500008129091FE029770933049F7C1E0809190
:10196000FF028D13E3CFE3CF8C2FDF91CF91FF9058
:10197000EF90DF90CF9008951F920F920FB60F92C5
:1019800011242F933F938F939F93AF93BF93809195
:101990001C0390911D03A0911E03B0911F03309171
:1019A0001B0323E0230F2D3720F40196A11DB11D49
:1019B00005C026E8230F0296A11DB11D20931B032D
:1019C00080931C0390931D03A0931E03B0931F03E9
:1019D0008091200390912103A0912203B0912303D1
:1019E0000196A11DB11D8093200390932103A09324
:1019F0002203B0932303BF91AF919F918F913F91A9
:101A00002F910F900FBE0F901F9018951F920F925D
:101A10000FB60F9211242F933F934F935F936F93C1
:101A20007F938F939F93AF93BF93EF93FF93E09137
:101A30000201F09103010995FF91EF91BF91AF91E0
:101A40009F918F917F916F915F914F913F912F91D6
:101A50000F900FBE0F901F9018951F920F920FB608
:101A60000F9211242F933F934F935F936F937F9324
:101A70008F939F93AF93BF93EF93FF93E0910001F8
:101A8000F09101010995FF91EF91BF91AF919F9165
:101A90008F917F916F915F914F913F912F910F9017
:101AA0000FBE0F901F901895CF92DF92EF92FF928A
:101AB0000F931F93CF93DF93CDB7DEB729970FB660
:101AC000F894DEBF0FBECDBF8C01DC0116968D9160
:101AD0009C911797892B09F49DC00E949009F801E9
:101AE000C484D584E684F784DC01CB018C199D097C
:101AF000AE09BF09C297A105B10578F3F8948281B8
:101B000093819A8389830680F781E02D7F01BFEF5F
:101B1000EB1AFB0A80818987F80193850088F18997
:101B2000E02DD80152968C9191FF30C09081982B76
:101B300098879081809589238F838F818C8388E01B
:101B40008B8358856F8149853B812C8189819A815E
:101B5000D701508347FD252F3A952083262F39F052
:101B6000441F00C000006083000000C0F2CF38E0D6
:101B70004D9160830000019761F7D8015196FC9365
:101B8000EE93509749873B832C833AC09081982BE2
:101B900098879081809589238F838F818E8388E0B9
:101BA0008D8358856F8149853D812E8189819A81F8
:101BB000D701508347FD252F00C000C0208300C0FF
:101BC00000C000C000C000C060830000262F3A950E
:101BD00041F0441F000000C000C000C000C000C0B1
:101BE000E8CF38E04D9100C0608300C0019709F74D
:101BF000D8015196FC93EE93509749873D832E83ED
:101C00009A83898378940E949009F8016487758784
:101C10008687978729960FB6F894DEBF0FBECDBF93
:101C2000DF91CF911F910F91FF90EF90DF90CF90B8
:101C300008951092250308950C943E03FC018481BD
:101C40008F718064848383818770806183837087D0
:101C50006783CF0108958F929F92AF92BF92CF92E8
:101C6000DF92EF92FF920F931F93CF93DF93CDB745
:101C7000DEB7A1970FB6F894DEBF0FBECDBF80913F
:101C80002503811158C081E08093250385E491E00C
:101C90000E94070A8FE491E00E94070A8091B8022F
:101CA0001B828F8313E01E8360E070E0CE010196FB
:101CB0000E941E0E0E94B80A8091B9021B828F8377
:101CC0001E8360E070E0CE0101960E941E0E0E940D
:101CD000B80A8091BA021B828F831E8360E070E095
:101CE000CE0101960E941E0E0E94B80A8091B70292
:101CF0001B828F831E8360E070E0CE0101960E94FC
:101D00001E0E0E94B80A15E002E01B821F830E839C
:101D100060E070E0CE0101960E941E0E0E94B80A9B
:101D20001F5F193091F71092B3021092B402109213
:101D3000B5021092B6028091B302882309F4B6C0AE
:101D40000E947A0C0091D5021091D6022091D70200
:101D50003091D8025B016C01A01AB10AC20AD30A01
:101D6000960185014091C5025091C6026A01550F46
:101D7000EE08FF080C151D052E053F0508F43DC2B1
:101D80006093D5027093D6028093D7029093D802C5
:101D90006091BD027091BE02A090BB02B090BC02E7
:101DA0000091BF021091C0026115710539F4A114B0
:101DB000B10421F40115110509F44AC0072E000CE5
:101DC000880B990B0E94F82420E030E048EC52E4A4
:101DD0000E945C1C20E030E04FE753E40E9457254E
:101DE0000E94CE1CC62ED12CE12CF12C7601DD24D4
:101DF000CC24B501BB0C880B990B0E94F82420E081
:101E000030E048EC52E40E945C1C20E030E04FE7F8
:101E100053E40E9457250E94CE1CD62AB801110F08
:101E2000880B990B0E94F82420E030E048EC52E443
:101E30000E945C1C20E030E04FE753E40E945725ED
:101E40000E94CE1CD701C601862BAC01BD0104C087
:101E500040E05FEF60E070E08091C3029091C402C7
:101E60002091A0023091A10282179307D0F401962D
:101E70009093C4028093C3020E94B8098091C30268
:101E80009091C4020A9797FF06C02091A00230915A
:101E9000A102820F931F40E050E0BA010E94B809EE
:101EA00069C11092C4021092C302A7C18091B4020A
:101EB000882309F486C00E947A0C0091D502109103
:101EC000D6022091D7023091D8025B016C01A01A92
:101ED000B10AC20AD30A960185014091C902509104
:101EE000CA026A01550FEE08FF080C151D052E05E4
:101EF0003F0508F482C16093D5027093D6028093A7
:101F0000D7029093D8028091C7029091C80201969F
:101F10009093C8028093C702E12CF12C00E010E0FE
:101F20006091A0027091A10206171707C8F5C701BA
:101F30000E94D51B4091C702640F653570F4462F8F
:101F4000440F640F862F8095462F50E060E070E0CC
:101F5000BA0155274427582B1CC06A3A58F46555D6
:101F6000462F440F460F842F809550E060E070E0CC
:101F7000682B0FC06A5A862F880F680F462F40952E
:101F8000842F90E0A0E0B0E05C016D01B62AB601BC
:101F9000A501C8010E94B8090F5F1F4FF394C0CF7D
:101FA00080EA92E00E94540D8091C7029091C8028D
:101FB0008115954009F021C11092C8021092C70204
:101FC0001CC18091B502882309F4D9C08091D10247
:101FD000811113C181E08093D1026091BD027091A3
:101FE000BE02072E000C880B990B0E94F82420E0FB
:101FF00030E048EC52E40E945C1C20E030E04FE707
:1020000053E40E9457250E94CE1CC62ED12CE12CF1
:10201000F12C7601DD24CC246091BB027091BC02CE
:10202000072E000C880B990B0E94F82420E030E06A
:1020300048EC52E40E945C1C20E030E04FE753E49F
:102040000E9457250E94CE1CD62A6091BF02709133
:10205000C002072E000C880B990B0E94F82420E088
:1020600030E048EC52E40E945C1C20E030E04FE796
:1020700053E40E9457250E94CE1CC62A00E010E0BF
:102080008091A0029091A1020817190708F072C070
:10209000B701A601C8010E94B8090F5F1F4FF0CF1A
:1020A0006091BD027091BE02072E000C880B990B47
:1020B0000E94F82420E030E048EC52E40E945C1CCE
:1020C00020E030E04FE753E40E9457250E94CE1CE9
:1020D000C62ED12CE12CF12C7601DD24CC2460918C
:1020E000BB027091BC02072E000C880B990B0E945A
:1020F000F82420E030E048EC52E40E945C1C20E030
:1021000030E04FE753E40E9457250E94CE1CD62AA8
:102110006091BF027091C002072E000C880B990BD2
:102120000E94F82420E030E048EC52E40E945C1C5D
:1021300020E030E04FE753E40E9457250E94CE1C78
:10214000C62A05E010E090ED892E912CA12CB12C2F
:102150000E94101FA50194010E943B26DC01CB01C7
:102160000196A11DB11DB701A6010E94B809015039
:10217000110971F780EA92E00E94540D3EC08091EF
:10218000B6028823D1F10E947A0C0091D5021091F9
:10219000D6022091D7023091D8025B016C01A01ABF
:1021A000B10AC20AD30A960185014091CF0250912B
:1021B000D0026A01550FEE08FF080C151D052E050B
:1021C0003F05D8F06093D5027093D6028093D70272
:1021D0009093D80200E010E08091A0029091A102BB
:1021E0000817190708F05CCF40E050E0BA01C801B9
:1021F0000E94B8090F5F1F4FEFCFA1960FB6F8945A
:10220000DEBF0FBECDBFDF91CF911F910F91FF9029
:10221000EF90DF90CF90BF90AF909F908F900895F8
:10222000FC01838187708860838384818F718062E1
:1022300084836783CF0108950F931F93CF93DF9318
:10224000EC016115710561F0FB0101900020E9F7D7
:102250003197E61BF70BE931F10518F0E9E101C010
:10226000E0E00E2F10E0C80123E0880F991F2A95A7
:10227000E1F79B819770892B8B838C818F718C8385
:10228000EE2329F0A801CE0107960E94661DFE01EB
:10229000E00FF11F1782CE01DF91CF911F910F91B7
:1022A0000895CF9364E080E00E94430B64E081E0F6
:1022B0000E94430B64E082E00E94430B64E083E0F1
:1022C0000E94430BC5E063E08C2F0E94430BCF5F5D
:1022D000C930C9F78091CD018093DA021092DB02F8
:1022E000CFEFC093DF028BE08093DE028091DD02AE
:1022F000807E83608093DD0262E571E089ED92E08B
:102300000E941C110E941C0E8091CD018093DA0264
:102310001092DB02C093DF028CE08093DE0280919A
:10232000DD02807E83608093DD0261E671E089EDED
:1023300092E00E941C11CF910C941C0ECF9380E070
:1023400090E0892B21F08BE090E00E9400008091CA
:10235000CD018093DA021092DB02CFEFC093DF024F
:102360008FE08093DE028091DD02807E8360809327
:10237000DD0261E571E089ED92E00E941C1180911F
:10238000DC02877080618093DC028091DD028F71B6
:10239000806C8093DD0281E08093E0021092E10284
:1023A00089ED92E00E943E0362E18FEF0E94430BB1
:1023B0006091CE018091CD018093DA021092DB0210
:1023C000C093DF0286E08093DE028091DD02807E92
:1023D00083608093DD0289ED92E00E9410110E94DB
:1023E0001C0E86E00E94860CCF910C945111FC01CA
:1023F0002481229526952770213011F48781089534
:10240000211104C007960E941E1F089580E00895C0
:10241000E0912803F09129030280F381E02D3097A9
:1024200009F009950C944D030F931F930E947A0CA9
:1024300000912A0310912B0320912C0330912D033E
:10244000601B710B820B930B1F910F9108959C01E0
:10245000409128035091290390912F03421753076D
:1024600041F0907F90932F0330932903209328030A
:1024700007C081E0890F8F70907F982B90932F0376
:10248000E0912803F09129030190F081E02D30972D
:1024900009F009950E947A0C60932A0370932B032C
:1024A00080932C0390932D0308950E9414126131A0
:1024B00077428105910520F084E091E00C94271289
:1024C0000895CF93DF93CDB7DEB7CC52D1400FB68E
:1024D000F894DEBF0FBECDBF9E012F5C3E4FF901C9
:1024E000419151919F016BE271E0CE0101960E94F2
:1024F000D61FCE0101960E94190A83E092E00E9445
:102500006409C45DDE4F0FB6F894DEBF0FBECDBFC9
:10251000DF91CF9108959F92AF92BF92CF92DF92B9
:10252000EF92FF920F931F93CF93DF938C01DC0107
:102530001296CC9180912E0380FF0CC0CF3F99F171
:1025400086EA94E09F938F930E9461120F900F9000
:10255000D0E016C1C11103C0C091CE0124C0CF3F4D
:1025600011F1EC2EF12CC70103960E9425268F3F16
:10257000C9F48091CE01F80190819817A1F01F92C3
:102580008F93FF92CF9389E794E09F938F930E945C
:102590006112C091CE010F900F900F900F900F908D
:1025A0000F9001C0C82FD8011396DC911397DC7FE0
:1025B000D2601396DC9313978091CD018C93D2FD5A
:1025C00008C0D695D695D69580E090E0892B31F459
:1025D00009C080E090E0892B39F0D0E280E090E003
:1025E0000E940000DA3110F0D0E201C0D95F60E053
:1025F00089E00E94B80B83E092E00197F1F76EE06A
:1026000080E20E94B2198BE891E00197F1F76C2FFC
:102610008AE20E94B2196C2F80E30E94B21981EE07
:102620000E94D21920E04D2FB80180EA0E9448197B
:1026300061E089E00E94B80BEE24EA94FE2C8FEF53
:102640000E94D219D82F807349F4C7010197EF284F
:1026500011F07C01F4CFEE24EA94FE2C60E089E0D6
:102660000E94B80B60E387E20E94B219D4FF03C056
:1026700081EE0E94D2190E94C319D5FF03C0D1E098
:10268000EF2809F4D0E0C8010E941B0ACF3F29F0CF
:10269000D11106C066E671E005C063E671E002C0D4
:1026A0006CE371E0E0912F039E2E92942FE0922232
:1026B000F801238122FBAA24A0F8522F56955695A3
:1026C00056952481B22EB294B69437E0B322C580D9
:1026D000422F4770D680E280AC2FB0E0F0801181AD
:1026E000D11105C0CF3F19F02BE631E002C021E542
:1026F00031E09F938F937F936F931F929F921F92CE
:10270000AF921F925F931F92BF921F92CF921F9220
:102710004F931F92DF921F92EF92BF93AF931F923E
:10272000FF921F921F933F932F938EE294E09F930B
:102730008F930E9461128DB79EB74E960FB6F89494
:102740009EBF0FBE8DBFD11104C0D1E0CF3F09F0B5
:10275000D0E08091CE01C81313C0D1110CC080E02D
:1027600090E0892B21F085E690E00E9400008091A6
:102770002F03805F03C080912F038F7080932F03FE
:102780008D2FDF91CF911F910F91FF90EF90DF90F0
:10279000CF90BF90AF909F900895CF93C82F8FEFA9
:1027A0008C0F8E3F38F5C093CD01C093210163E0BB
:1027B00082E20E94B21961E081E20E94B2190E9495
:1027C000C31980E090E00E942526C81729F06C2FDD
:1027D00080E090E00E942D261F92CF9389EF93E036
:1027E0009F938F930E9461120F900F900F900F9004
:1027F000CF9108951F92CF9382E194E09F938F939E
:102800000E9461120F900F900F900F9080E090E067
:10281000892B21F08CE690E00E94000088E091E096
:10282000CF910C9427128BEE93E09F938F930E948D
:10283000611280912E038B7F8F7E80932E030F90E9
:102840000F9080E090E0892B21F087E690E00E94D5
:10285000000082EE93E09F938F930E94611260E0EC
:1028600089E00E94B80B0F900F906CE080E20C940E
:10287000B21980912F0382958F7090E00B9764F0CE
:102880008EEC93E09F938F930E9461120F900F90B4
:102890008DE191E00C942712089583EC93E09F93CF
:1028A0008F930E946112EEE2F3E080818460808366
:1028B0000F900F9008958AEB93E09F938F930E945F
:1028C00061120E94A1180F900F90882359F08FE990
:1028D00093E09F938F930E9461120F900F9089E174
:1028E00091E00AC08BEA93E09F938F930E9461125C
:1028F0000F900F908DE191E00C9427128091CD0103
:102900008F3FB9F01F928F9389E893E09F938F9345
:102910000E9461120F900F900F900F9080E090E056
:10292000892B21F087E090E00E94000085E191E092
:1029300028C00E941412613D77408105910518F16D
:1029400080912F038F7090E003971CF481E191E058
:1029500018C08091CD011F928F9380E793E09F93E1
:102960008F930E9461120F900F900F900F9080E054
:1029700090E0892B21F089E690E00E94000088E039
:1029800091E00C942712089588E693E09F938F932B
:102990000E9461120F900F908091CD018F3F11F531
:1029A00080E090E0892B21F086E090E00E9400001A
:1029B0008091CD018093DA021092DB028FEF809339
:1029C000DF0283E08093DE028091DD02807E8360FF
:1029D0008093DD0261E571E089ED92E00E941C11B7
:1029E0000C948B1208950E941412613D774081056A
:1029F000910520F480912E0381FF08958091CE01EE
:102A00008F3FC1F08BE593E09F938F930E946112FB
:102A100080912E038E7F80932E030F900F9080E085
:102A200090E0892B21F085E090E00E94000081E198
:102A300091E022C00E941412613D7740810591050A
:102A4000E8F080912F038F7090E003971CF48DE1E4
:102A500091E012C08BE493E09F938F930E946112E8
:102A60000F900F9080E090E0892B21F088E690E0B5
:102A70000E94000088E091E00C942712089581E400
:102A800093E09F938F930E94611280912E038D7F1C
:102A900090912F039F7090932F0381608B7F809381
:102AA0002E038FEF8093CF018093CE010F900F9074
:102AB00080E090E0892B21F084E090E00E9400000B
:102AC0008091CD018093DA028FEF8093DB028093B7
:102AD000DF0287E08093DE028091DD02807E8360EA
:102AE0008093DD0261E571E089ED92E00E941C11A6
:102AF0000C948B12CF9387E393E09F938F930E9464
:102B0000611280912F038F7080932F0380912E0389
:102B1000877F8F7E80932E030E947A0C6093C8017A
:102B20007093C9018093CA019093CB011092310335
:102B300010923203109233031092340343E050E0BA
:102B400060E070E08DEC91E00E94152661E089E084
:102B50000E94040C61E08AE00E94040CCFB7F89454
:102B60000F900F9080912703811127C0E3E9F2E0D5
:102B70008491E5E7F2E09491E82FF0E0EE0FFF1F7B
:102B8000EE5BFD4FA591B491EC91E92321F461E056
:102B90008AE00E94B80B61E08AE00E94040C8CB5C8
:102BA00080618CBD8CB580648CBD61E08DE00E943D
:102BB000040C61E08BE00E94040C809127038F5F7E
:102BC00080932703CFBF60E089E00E94B80B61E0EB
:102BD0008AE00E94B80B6EE080E20E94B21965E0C4
:102BE00070E080E090E00E94400C63E083E20E948D
:102BF000B2196FE584E20E94B2196CE485E20E948A
:102C0000B21967E286E20E94B2190E9497198823DE
:102C100009F44EC063E780E30E94B21966E08DE3D9
:102C20000E94B21962E082E20E94B21960E081E281
:102C30000E94B21963E08CE30E94B2198FEF809377
:102C40000C0120E045E06CE071E08BE20E94481945
:102C500020E045E06CE071E08AE20E94481920E043
:102C600045E06CE071E080E30E94481982EE0E942A
:102C7000D21981EE0E94D21960E787E20E94B21950
:102C800089E293E09F938F930E94611280912E03BB
:102C9000806180932E038091CD010F900F908F3F24
:102CA00011F00E94CD138DE191E0CF910C94271289
:102CB00088E193E09F938F930E9461120F900F9091
:102CC00080E090E0892B21F087E690E00E940000F0
:102CD00088E091E0EACF1F920F920FB60F92112475
:102CE0000F900FBE0F901F9018954F925F926F92AA
:102CF0007F928F929F92AF92BF92CF92DF92EF928C
:102D0000FF920F931F93CF93DF93CDB7DEB7A297B8
:102D10000FB6F894DEBF0FBECDBFFC01D5802EEFFD
:102D20002D0D223008F0F6C18C012681243008F0E8
:102D30004CC107962AA30E941E1F2AA1F2E0DF16AB
:102D400019F041E050E002C044E650E0849F800169
:102D5000859F100D949F100D11240536110514F058
:102D600004E610E017FF02C000E010E0211105C0EA
:102D70001093BC020093BB0225C1213029F41093AB
:102D8000BE020093BD021EC1223029F41093C0027E
:102D90000093BF0217C1A090BB02B090BC02C090CC
:102DA000BD02D090BE029C2D8D2DCA14DB0414F4FC
:102DB0009A2D8B2D8090BF029090C002E92EF82EA4
:102DC000E814F9040CF47401B801012E000C880B0E
:102DD000990B0E94F8242B013C01B7010F2C000C29
:102DE000880B990B0E94F8249B01AC01C301B2012E
:102DF0000E945C1C2B013C01E114F10409F43EC06B
:102E000020E030E0A9010E945C1D1816BCF5B50158
:102E1000BB0C880B990B0E94F824A30192010E941D
:102E200057250E94041D0E94CE1C7093BC02609323
:102E3000BB02B601DD0C880B990B0E94F824A3019C
:102E400092010E9457250E94041D0E94CE1C70937F
:102E5000BE026093BD02B401990C880B990B0E94CD
:102E6000F824A30192010E9457250E94041D0E948C
:102E7000CE1C7093C0026093BF020CC01093BC02C2
:102E80000093BB021093BE020093BD021093C002D8
:102E90000093BF028DE691E00E94190AC8010E94CA
:102EA000390B8DE791E00E94190AC7010E94390B86
:102EB00087E891E00E94190AC301B2010E94CE1C6A
:102EC0006B017C01CB010E94390B8BE991E00E94E0
:102ED000190A20E030E0A901C301B2010E945C1D83
:102EE0000D2C000CEE08FF0887FD09C0C701B601D4
:102EF0000E94F8249B01AC01C301B20106C0C701C6
:102F0000B6010E94F824A30192010E94EF1B20E069
:102F100030E44CE156E40E9457250E94D51CD62E81
:102F2000E72EF82E092F13E05AE0852E912CA12CC4
:102F3000B12CA50194010E94A426CA01B901232B3A
:102F4000242B252B11F01150F4CF112331F083E401
:102F500091E00E94190A1150F8CF4AE06D2D7E2DA4
:102F60008F2D902F0E94D10A8FE491E00E94070AD2
:102F70006091BB027091BC021B821F8213E01E8312
:102F8000CE0101960E941E0E0E94B80A6091BD02F9
:102F90007091BE021B8281E08F831E83CE01019659
:102FA0000E941E0E0E94B80A6091BF027091C0027A
:102FB0001B8282E08F831E83CE0101960E941E0E2B
:102FC0000E94B80A1092D102A5C08DE991E00E943A
:102FD000190AF801668170E080E090E04AE00E9402
:102FE000D10A89EB91E00E94190AC8010E94F711E9
:102FF000812C912C54018394811103C0812C912C3C
:1030000054014AE0C501B4010E94D10A8FE491E065
:103010000E94070AC8010E94F711D82EF801068104
:1030200010E0045011098091B302811118C0809101
:10303000B402811118C08091B502811104C0809141
:10304000B602882341F18091B502811110C08091B0
:10305000B602882379F034E0E32EF12C0BC0EE2485
:10306000E394F12C07C092E0E92EF12C03C083E039
:10307000E82EF12CE016F10671F01B8294E09E0D13
:103080009F8382E08E8360E070E0CE0101960E9413
:103090001E0E0E94B80A1092B3021092B40210924F
:1030A000B5021092B602DD20E9F00230110591F070
:1030B0003CF40130110571F581E08093B3022AC020
:1030C0000330110559F00430110521F581E080939A
:1030D000B60220C081E08093B4021CC081E08093DE
:1030E000B50218C01092D10200E010E08091A00259
:1030F0009091A1020817190748F440E050E0BA0186
:10310000C8010E94B8090F5F1F4FF0CF80EA92E01C
:103110000E94540DA2960FB6F894DEBF0FBECDBF2D
:10312000DF91CF911F910F91FF90EF90DF90CF90A3
:10313000BF90AF909F908F907F906F905F904F90D7
:103140000895CF92DF92EF92FF92CF9380912E035A
:1031500083FD78C0C091CD01CC2309F44AC08860BA
:1031600080932E03CFEFC09330031F921F9287EC02
:1031700094E09F938F930E9461128091CD01809380
:10318000DA021092DB02C093DF0288E18093DE0254
:103190008091DD02807E83608093DD0261E089EDB5
:1031A00092E00E9410110E948B120E947A0C6B0117
:1031B0007C011092FF020F900F900F900F90C0E0D3
:1031C0000E947A0CDC01CB018C199D09AE09BF0964
:1031D000803D9740A105B10518F4CC2309F443C004
:1031E00080912E03877F80932E03C0913003CF3FC1
:1031F00049F10E947A0C60933103709332038093FB
:103200003303909334038BE195E09F938F930E9457
:1032100061128091CF010F900F90C81711F11F928A
:10322000CF931F928F938BEF94E09F938F930E9485
:103230006112C093CF010F900F900F900F900F90DD
:103240000F900FC01F928FEF8F9380EE94E09F93AB
:103250008F930E9461120F900F900F900F9080E05B
:1032600011C081E00FC00E944D038091FE02877063
:10327000833009F0A5CFC1E08091FF02893109F0C8
:103280009ECF9ECFCF91FF90EF90DF90CF9008958B
:10329000FF920F931F93CF93DF9300D0CDB7DEB78C
:1032A000F82E8B0181E58CBD81E08DBD60E08AE068
:1032B0002A8349830E94B80BE3E2F0E03197F1F7EB
:1032C000FEBC000049812A810DB407FEFDCFFEB48B
:1032D000F8018FEF4150D0F0222361F08EBD000045
:1032E0000DB407FEFDCFFEB40115110599F3F08270
:1032F0003196F0CFBF016F5F7F4F90819EBD000080
:103300000DB407FEFDCFFEB4FB01E4CF61E08AE01F
:103310000E94B80B83E290E00197F1F78F2D0F9098
:103320000F90DF91CF911F910F91FF900895CF9350
:1033300021E041E060E070E086E00E944819C82F7B
:1033400021E041E060E070E085E00E94481921E062
:103350008C3409F020E081E0C73209F080E082235C
:10336000CF910895CF93DF931F92CDB7DEB76983D6
:1033700020E041E0BE016F5F7F4F0E9448190F902F
:10338000DF91CF9108956FE080E20E94B2196091C1
:1033900021016F3F19F08AE20E94B21961E089E0D1
:1033A0000C94B80B20E040E060E070E00C94481909
:1033B000CF93DF93109206021092050288EE93E0FD
:1033C000A0E0B0E08093070290930802A093090266
:1033D000B0930A0280E391E0909304028093030289
:1033E00085EC90E09093100280930F0284EC90E0C3
:1033F000909312028093110280EC90E0909314025B
:103400008093130281EC90E0909316028093150252
:1034100082EC90E0909318028093170286EC90E083
:1034200090931A028093190210921C0210921D02AE
:1034300010921E0210921F021092FC021092DB02E8
:1034400081ED90E09093A1028093A002C3E7D2E0C7
:10345000D093A302C093A20286E08093A4021092AC
:10346000A50282E08093AB021092AC021092AD02F2
:103470001092AE021092AF02EFE8F2E0E491F0E0B9
:10348000EE0FFF1FE158FD4F859194919093B1028B
:103490008093B002E1E7F2E0E491E093B20283E7C7
:1034A00092E00E94951D9093A7028093A602009738
:1034B00031F0FC019E01119221503040E1F7109251
:1034C000A80281E08093A90292E09093AA02109250
:1034D000B3021092B4021092B5021092B60210928A
:1034E000BC021092BB021092BE021092BD0210925A
:1034F000C0021092BF021092C2021092C10210923A
:10350000C4021092C30225E030E03093C60220933B
:10351000C5021092C8021092C7022AE030E0309330
:10352000CA022093C9021092CC021092CB023093AF
:10353000CE022093CD022CE330E03093D0022093D2
:10354000CF021092D1028093D20224E130E0309376
:10355000D4022093D3021092B8028093B9029093C0
:10356000BA0283E08093B70261E086E00E94040C17
:1035700060E08091A402DF91CF910C94B80B789415
:1035800084B5826084BD84B5816084BD85B5826068
:1035900085BD85B5816085BD80916E008160809319
:1035A0006E00109281008091810082608093810082
:1035B0008091810081608093810080918000816092
:1035C000809380008091B10084608093B1008091ED
:1035D000B00081608093B00080917A008460809315
:1035E0007A0080917A00826080937A0080917A00DC
:1035F000816080937A0080917A00806880937A005D
:103600001092C100E0911302F091140282E08083D5
:10361000E0910F02F09110021082E0911102F091FE
:10362000120280E1808310921B02E0911702F09158
:10363000180286E08083E0911502F09116028081E5
:1036400080618083E0911502F0911602808188608C
:103650008083E0911502F09116028081806880835A
:10366000E0911502F091160280818F7D808380E0C9
:1036700090E0892B11F00E94000085EF92E09F936B
:103680008F930E94611241E050E063E071E084E2B8
:1036900093E00E94152681E090E00E9425260F907D
:1036A0000F908F3F29F06FEF81E090E00E942D2670
:1036B00088E091E0909329038093280384E091E0CF
:1036C0000E94271280912E0382FD04C0A8950E94BB
:1036D0000812F8CF109225030E949E118DE992E006
:1036E0009F938F930E9461120F900F9080E090E063
:1036F000892B21F088E090E00E94000081E0809317
:10370000CC01C4E0DFEF1AE18091CD018093DA02B1
:103710001092DB02D093DF021093DE028091DD0273
:10372000807E83608093DD0262E089ED92E00E94FA
:1037300010110E941C0E8BE10E94860C811102C0A8
:10374000C15011F78091CC011F928F938091CF01CE
:103750001F928F938091CE011F928F938091CD0104
:103760001F928F9386EB92E09F938F930E9461123A
:103770008DB79EB70A960FB6F8949EBF0FBE8DBF49
:10378000A8950E9408120E942B0E0E948609F8CF6D
:103790008091A6029091A702009711F00E942A1E24
:1037A00060E08091A4020C94040CAA1BBB1B51E1A5
:1037B00007C0AA1FBB1FA617B70710F0A61BB70BA1
:1037C000881F991F5A95A9F780959095BC01CD0146
:1037D0000895EE0FFF1F0590F491E02D09945058C5
:1037E000BB27AA270E94071C0C94DB250E94CD252D
:1037F00038F00E94D42520F039F49F3F19F426F4C4
:103800000C94CA250EF4E095E7FB0C94C425E92F2F
:103810000E94EC2558F3BA176207730784079507CF
:1038200020F079F4A6F50C940E260EF4E0950B2EFC
:10383000BA2FA02D0B01B90190010C01CA01A00102
:103840001124FF27591B99F0593F50F4503E68F15D
:103850001A16F040A22F232F342F4427585FF3CF9E
:10386000469537952795A795F0405395C9F77EF46F
:103870001F16BA0B620B730B840BBAF09150A1F0B8
:10388000FF0FBB1F661F771F881FC2F70EC0BA0F3E
:10389000621F731F841F48F4879577956795B795C6
:1038A000F7959E3F08F0B0CF9395880F08F09927C1
:1038B000EE0F9795879508950E94701C0C94DB2558
:1038C0000E94D42558F00E94CD2540F029F45F3F96
:1038D00029F00C94C42551110C940F260C94CA2580
:1038E0000E94EC2568F39923B1F3552391F3951BBE
:1038F000550BBB27AA2762177307840738F09F5F11
:103900005F4F220F331F441FAA1FA9F335D00E2E7D
:103910003AF0E0E832D091505040E695001CCAF7EA
:103920002BD0FE2F29D0660F771F881FBB1F2617AD
:1039300037074807AB07B0E809F0BB0B802DBF0184
:10394000FF2793585F4F3AF09E3F510578F00C9453
:10395000C4250C940F265F3FE4F3983ED4F386957C
:1039600077956795B795F7959F5FC9F7880F911D74
:103970009695879597F90895E1E0660F771F881F60
:10398000BB1F621773078407BA0720F0621B730B13
:10399000840BBA0BEE1F88F7E09508950E94D51CA2
:1039A0006894B1110C940F2608950E94F42588F0B4
:1039B0009F5798F0B92F9927B751B0F0E1F0660FF3
:1039C000771F881F991F1AF0BA95C9F714C0B13034
:1039D00091F00E940E26B1E008950C940E26672FF8
:1039E000782F8827B85F39F0B93FCCF38695779563
:1039F0006795B395D9F73EF490958095709561954C
:103A00007F4F8F4F9F4F08950E94441D90F09F3726
:103A100048F4911116F00C940F2660E070E080E8F5
:103A20009FEB089526F41B16611D711D811D0C94DA
:103A30001B1D0C94361D882371F4772321F09850B8
:103A4000872B762F07C0662311F499270DC090515C
:103A5000862B70E060E02AF09A95660F771F881F2A
:103A6000DAF7880F9695879597F908959F3F31F07B
:103A7000915020F4879577956795B795880F911D9C
:103A80009695879597F908950E94F425A0F0BEE7D2
:103A9000B91788F4BB279F3860F41616B11D672F3D
:103AA000782F8827985FF7CF869577956795B11D12
:103AB00093959639C8F308950E94332508F48FEF43
:103AC000089581E090E0F8940C94D526FB01DC0188
:103AD0004150504048F001900D920020C9F701C0BC
:103AE0001D9241505040E0F70895EF920F931F93BD
:103AF000CF93DF93E80147FD02C034E001C034E119
:103B0000E42F440FFF0BF7FF03C0F195E195F10996
:103B1000E32E022F2E2FAE010E94D421CE01DF9181
:103B2000CF911F910F91EF900895CF93DF93823043
:103B3000910510F482E090E0E0913703F0913803B2
:103B400020E030E0C0E0D0E0309711F140815181B9
:103B500048175907C0F04817590761F482819381CB
:103B6000209719F09B838A832BC09093380380930E
:103B7000370326C02115310519F04217530718F4F1
:103B80009A01BE01DF01EF010280F381E02DDCCF5D
:103B90002115310509F1281B390B2430310590F42A
:103BA00012968D919C9113976115710521F0FB017F
:103BB0009383828304C09093380380933703FD017D
:103BC000329644C0FD01E20FF31F8193919322507E
:103BD00031092D933C933AC020913503309136033F
:103BE000232B41F420912401309125013093360399
:103BF00020933503209122013091230121153105B5
:103C000041F42DB73EB74091260150912701241B66
:103C1000350BE0913503F0913603E217F307A0F47A
:103C20002E1B3F0B2817390778F0AC014E5F5F4F12
:103C30002417350748F04E0F5F1F5093360340930B
:103C400035038193919302C0E0E0F0E0CF01DF9172
:103C5000CF9108950F931F93CF93DF93009709F4AB
:103C60008CC0FC01329713821282009137031091AD
:103C700038030115110581F420813181820F931FD2
:103C800020913503309136032817390779F5F093E1
:103C90003603E093350371C0D80140E050E0AE1721
:103CA000BF0750F412962D913C911397AD01211549
:103CB000310509F1D901F3CF9D01DA013383228364
:103CC00060817181860F971F8217930769F4EC0159
:103CD00028813981260F371F2E5F3F4F3183208384
:103CE0008A819B8193838283452B29F4F093380347
:103CF000E093370342C01396FC93EE931297ED01C5
:103D0000499159919E01240F351FE217F30771F471
:103D100080819181840F951F029611969C938E93BA
:103D20008281938113969C938E931297E0E0F0E04A
:103D3000D80112968D919C911397009719F0F80174
:103D40008C01F6CF8D919C9198012E5F3F4F820F91
:103D5000931F20913503309136032817390769F4F2
:103D6000309729F4109238031092370302C013825F
:103D700012821093360300933503DF91CF911F9188
:103D80000F9108958F929F92AF92BF92CF92DF9240
:103D9000EF92FF92CF93DF93EC01688179818A8162
:103DA0009B81611571058105910521F464E279ED2E
:103DB0008BE597E02DE133EF41E050E00E943B2698
:103DC00049015A019B01AC01A7EAB1E40E945A26BD
:103DD0006B017C01ACEEB4EFA50194010E94682652
:103DE000DC01CB018C0D9D1DAE1DBF1DB7FF03C0B7
:103DF0000197A109B04888839983AA83BB83BC013A
:103E0000CD019F77DF91CF91FF90EF90DF90CF9022
:103E1000BF90AF909F908F9008950E94C21E08950A
:103E200088E291E00E94C21E089560932801709379
:103E3000290180932A0190932B010895FC01882782
:103E40009927E89421912032E9F3293010F02E309F
:103E5000C8F32B3241F02D3239F4689404C00E942B
:103E6000921F820F911D219120532A30C0F31EF41E
:103E7000909581959F4F08951F93FC01992788275E
:103E8000BC01E89411911032E9F3193010F01E30A2
:103E9000C8F31B3251F01D3249F4689406C00E94E9
:103EA0007D1F610F711D811D911D119110531A30DD
:103EB000B0F33EF490958095709561957F4F8F4F4C
:103EC0009F4F1F910895BB274A3031F4992322F464
:103ED000BDE2909581959F4F0C94BD1FBB272A3062
:103EE00051F4992342F4BDE29095809570956195C7
:103EF0007F4F8F4F9F4F0C949B1F592F482F372F69
:103F0000262F660F771F881F991F660F771F881F40
:103F1000991F620F731F841F951F660F771F881FDD
:103F2000991F08957AE0979F902D879F802D910D7E
:103F300011240895BB27FA01A62F62177105810588
:103F40009105330B30FB66F0AA27660F771F881F99
:103F5000991FAA1FA21710F0A21B63953850A9F74A
:103F6000A05DAA3308F0A95DA19336F7B111B19312
:103F70001082CA010C945024BB27FB015527AA27A5
:103F8000880F991FAA1FA41710F0A41B83955051E6
:103F9000B9F7A05DAA3308F0A95DA193009779F75E
:103FA000B111B1931192CB010C945024AEE0B0E06A
:103FB000ECEDFFE10C947B268C01CA014EE04C83B2
:103FC0001A83098377FF02C060E070E8FB01319734
:103FD000FE83ED83A901BC01CE0101960E9402205F
:103FE0004D815E8157FD0AC02F81388542175307E6
:103FF0000CF49A01F801E20FF31F10822E96E4E010
:104000000C949726ACE0B0E0E8E0F0E20C946D266A
:104010007C016B018A01FC0117821682838181FF7A
:10402000BDC1CE0101964C01F7019381F60193FDCC
:10403000859193FF81916F01882309F4ABC185328B
:1040400039F493FD859193FF81916F01853229F4B5
:10405000B70190E00E946024E7CF512C312C20E082
:104060002032A0F48B3269F030F4803259F0833280
:1040700069F420612CC08D3239F0803339F421602D
:1040800026C02260246023C0286021C027FD27C0ED
:1040900030ED380F3A3078F426FF06C0FAE05F9E24
:1040A000300D1124532E13C08AE0389E300D112498
:1040B000332E20620CC08E3221F426FD6BC12064A9
:1040C00006C08C3611F4206802C0883641F4F6012F
:1040D00093FD859193FF81916F018111C1CF982F3D
:1040E0009F7D9554933028F40C5F1F4FFFE3F983B5
:1040F0000DC0833631F0833771F0833509F05BC032
:1041000022C0F801808189830E5F1F4F44244394AD
:10411000512C540115C03801F2E06F0E711CF801EA
:10412000A080B18026FF03C0652D70E002C06FEF54
:104130007FEFC5012C870E9445242C0183012C852B
:104140002F77222E17C03801F2E06F0E711CF80194
:10415000A080B18026FF03C0652D70E002C06FEF24
:104160007FEFC5012C870E943A242C012C85206802
:10417000222E830123FC1BC0832D90E04816590694
:10418000B0F4B70180E290E00E9460243A94F4CF4A
:10419000F50127FC859127FE81915F01B70190E031
:1041A0000E94602431103A94F1E04F1A51084114F2
:1041B000510471F7E5C0843611F0893639F5F801FC
:1041C00027FF07C060817181828193810C5F1F4F3F
:1041D00008C060817181072E000C880B990B0E5F5F
:1041E0001F4F2F76722E97FF09C09095809570957E
:1041F00061957F4F8F4F9F4F2068722E2AE030E0ED
:10420000A4010E949824A82EA81844C0853729F438
:104210002F7EB22E2AE030E025C0F22FF97FBF2E8C
:104220008F36C1F018F4883579F0B4C0803719F0B2
:10423000883721F0AFC02F2F2061B22EB4FE0DC001
:104240008B2D8460B82E09C024FF0AC09F2F966072
:10425000B92E06C028E030E005C020E130E002C001
:1042600020E132E0F801B7FE07C0608171818281F0
:1042700093810C5F1F4F06C06081718180E090E0E8
:104280000E5F1F4FA4010E949824A82EA818FB2D92
:10429000FF777F2E76FE0BC0372D3E7FA51450F49E
:1042A00074FE0AC072FC08C0372D3E7E05C0BA2CD1
:1042B000372D03C0BA2C01C0B52C34FF0DC0FE0150
:1042C000EA0DF11D8081803311F4397E09C032FF7F
:1042D00006C0B394B39404C0832F867809F0B394D6
:1042E00033FD13C030FF06C05A2CB31418F4530C1E
:1042F0005B18B32CB31468F4B70180E290E03C87FC
:104300000E946024B3943C85F5CFB31410F43B189D
:1043100001C0312C34FF12C0B70180E390E03C872C
:104320000E9460243C8532FF17C031FD03C088E73E
:1043300090E002C088E590E0B7010CC0832F86783A
:1043400059F031FF02C08BE201C080E237FD8DE2FF
:10435000B70190E00E946024A51438F4B70180E30F
:1043600090E00E9460245A94F7CFAA94F401EA0DD9
:10437000F11D8081B70190E00E946024A110F5CF6B
:10438000332009F451CEB70180E290E00E9460240E
:104390003A94F6CFF7018681978102C08FEF9FEFA5
:1043A0002C96E2E10C9489264F925F926F927F9255
:1043B0009F92AF92BF92CF92DF92EF92FF920F93B4
:1043C0001F93CF93DF93CDB7DEB729970FB6F8943D
:1043D000DEBF0FBECDBF6A01122FB02E2BE3201718
:1043E00020F0FF24F394F00E02C0BCE3FB2E0F2D4F
:1043F00027E0AE014F5F5F4F0E946223AC018981CD
:10440000982F9970913031F0E1FC06C0E0FE06C0B3
:1044100090E205C09DE203C09BE201C090E0EE2D5A
:10442000E07183FF3CC0911102C083E001C084E0D1
:10443000811718F4212F281B01C020E0E1110BC0C7
:10444000F601822F30E2882319F031938150FBCF9F
:10445000C20ED11C20E0992329F0D6019C93F601CD
:1044600031966F01C6010396E2FE0AC03EE4D60112
:104470003C9341E411964C93119712963C9306C0DD
:104480003EE6F601308341E641833283FC01322F60
:1044900040E2332309F442C041933150FACF82FF06
:1044A00044C0911102C083E001C084E0811718F478
:1044B000212F281B01C020E0E1110BC0F601822F43
:1044C00030E2882319F031938150FBCFC20ED11C0A
:1044D00020E0992329F0D6019C93F60131966F01D3
:1044E000C6010396E2FE0BC039E4D6013C933EE4DC
:1044F00011963C93119736E412963C9307C039E627
:10450000F60130833EE6318336E63283FC01322FFA
:1045100040E2332319F041933150FBCFFC01E20F0D
:10452000F11D10828EEF9FEFB7C0F1E0911101C035
:10453000F0E06F2F70E01416150624F49A012F5F37
:104540003F4F02C021E030E0260F371FBB2029F08B
:104550006B2D70E06F5F7F4F02C060E070E0260F50
:10456000371F612F70E0261737071CF4121B212F0D
:1045700001C020E03E2D387159F4D601322F60E29F
:10458000332319F06D933150FBCFC20ED11C20E0C4
:10459000FF2331F0D6019C93B6016F5F7F4F6B0113
:1045A000E1110BC0F601922F30E3992319F03193FA
:1045B0009150FBCFC20ED11C20E09F2D940F3A8169
:1045C000782F7071A72E84FF03C0313309F4915006
:1045D000191624F4993018F098E001C091E0E42F06
:1045E000852F57FF02C0E0E080E06E2F782FE0E0DB
:1045F000F0E0AEE29A2E3A01691A71082A01461AD1
:10460000570A0B2D10E01195019511096F3F8FEF9F
:10461000780729F4D6019C92C60101966C014617D1
:10462000570784F0661677066CF47F01E40CF51CDE
:10463000A1E0B0E0AC0FBD1FEA0EFB1ED701119642
:10464000BC9002C090E3B92E615071093196C60149
:1046500001967C016017710724F0D601BC926C01B1
:10466000D5CF6417750741F4363320F4353321F480
:10467000A11002C081E3B82EF601B082F701822FAB
:1046800090E2882319F091938150FBCFF701E20F5C
:10469000F11D108280E090E029960FB6F894DEBFFD
:1046A0000FBECDBFDF91CF911F910F91FF90EF9083
:1046B000DF90CF90BF90AF909F907F906F905F9072
:1046C0004F900895283008F027E03327DA01990F3A
:1046D000311D87FD916000966105710539F43260E6
:1046E0002E5F3D9330E32A95E1F708959F3F30F028
:1046F00080387105610509F03C5F3C5F3D93913066
:1047000008F08068911DDF93CF931F930F93FF9262
:10471000EF92192F987F9695E92F96959695E90F28
:10472000FF27EC57FA4F99273327EE24FF24A701E0
:10473000E70105900894079428F4360FE71EF81E49
:10474000491F511D660F771F881F991F0694A1F7F7
:104750000590079428F4E70EF81E491F561FC11D47
:10476000770F881F991F661F0694A1F7059007947D
:1047700028F4F80E491F561FC71FD11D880F991F17
:10478000661F771F0694A1F70590079420F4490F40
:10479000561FC71FD81F990F661F771F881F0694C3
:1047A000A9F784911095177041F0D695C795579544
:1047B0004795F794E7941A95C1F7EAE2F5E0689413
:1047C0001590159135916591959105907FE27395BE
:1047D000E118F10A430B560BC90BD009C0F7E10CE5
:1047E000F11E431F561FC91FD01D7EF4703311F4F4
:1047F0008A95E6CFE894015030F0080F0AF40027BC
:10480000021708F4202F2395022F7A3328F079E33A
:104810007D932A95E9F710C07D932A9589F6069431
:1048200097956795379517951794E118F10A430BFB
:10483000560BC90BD00998F023957E9173957A3366
:1048400008F070E37C932013B8F77E9170617D933C
:1048500030F0839571E37D9370E32A95E1F711249D
:10486000EF90FF900F911F91CF91DF91992787FDD6
:1048700090950895FC010590615070400110D8F7A3
:10488000809590958E0F9F1F0895FC016150704098
:1048900001900110D8F7809590958E0F9F1F089575
:1048A000DC01FC01672F71917723E1F7329704C097
:1048B0007C916D9370836291AE17BF07C8F3089522
:1048C0000F931F93CF93DF93FB01238121FD03C03F
:1048D0008FEF9FEF28C022FF16C0468157812481A9
:1048E00035814217530744F4A081B1819D012F5FA8
:1048F0003F4F318320838C93268137812F5F3F4F39
:104900003783268310C0EB01092F182F0084F1850F
:10491000E02D0995892BE1F68E819F8101969F8379
:104920008E83812F902FDF91CF911F910F9108954A
:10493000FA01AA27283051F1203181F1E8946F93D0
:104940006E7F6E5F7F4F8F4F9F4FAF4FB1E03ED076
:10495000B4E03CD0670F781F891F9A1FA11D680F14
:10496000791F8A1F911DA11D6A0F711D811D911D47
:10497000A11D20D009F468943F912AE0269F1124BC
:104980003019305D3193DEF6CF010895462F477020
:10499000405D4193B3E00FD0C9F7F6CF462F4F707B
:1049A000405D4A3318F0495D31FD4052419302D0D9
:1049B000A9F7EACFB4E0A69597958795779567957F
:1049C000BA95C9F700976105710508959B01AC017F
:1049D0000A2E06945795479537952795BA95C9F7A6
:1049E000620F731F841F951FA01D0895E89409C0CE
:1049F00097FB3EF490958095709561957F4F8F4F12
:104A00009F4F9923A9F0F92F96E9BB279395F69527
:104A1000879577956795B795F111F8CFFAF4BB0FA5
:104A200011F460FF1BC06F5F7F4F8F4F9F4F16C009
:104A3000882311F096E911C0772321F09EE8872F93
:104A4000762F05C0662371F096E8862F70E060E04F
:104A50002AF09A95660F771F881FDAF7880F9695C8
:104A6000879597F90895990F0008550FAA0BE0E86C
:104A7000FEEF16161706E807F907C0F01216130620
:104A8000E407F50798F0621B730B840B950B39F460
:104A90000A2661F0232B242B252B21F408950A26C6
:104AA00009F4A140A6958FEF811D811D08950E94F4
:104AB0006A250C94DB250E94CD2538F00E94D42570
:104AC00020F0952311F00C94C4250C94CA251124D0
:104AD0000C940F260E94EC2570F3959FC1F3950F5F
:104AE00050E0551F629FF001729FBB27F00DB11D72
:104AF000639FAA27F00DB11DAA1F649F6627B00D02
:104B0000A11D661F829F2227B00DA11D621F739FEA
:104B1000B00DA11D621F839FA00D611D221F749FF8
:104B20003327A00D611D231F849F600D211D822F3F
:104B3000762F6A2F11249F5750409AF0F1F0882366
:104B40004AF0EE0FFF1FBB1F661F771F881F915093
:104B50005040A9F79E3F510580F00C94C4250C9459
:104B60000F265F3FE4F3983ED4F3869577956795DB
:104B7000B795F795E7959F5FC1F7FE2B880F911DBD
:104B80009695879597F9089597F99F6780E870E063
:104B900060E008959FEF80EC089500240A941616B3
:104BA000170618060906089500240A94121613061B
:104BB000140605060895092E0394000C11F48823A9
:104BC00052F0BB0F40F4BF2B11F460FF04C06F5FC5
:104BD0007F4F8F4F9F4F089557FD9058440F551F9B
:104BE00059F05F3F71F04795880F97FB991F61F06F
:104BF0009F3F79F087950895121613061406551FE6
:104C0000F2CF4695F1DF08C0161617061806991F51
:104C1000F1CF86957105610508940895E894BB2746
:104C200066277727CB0197F90895DC01CB01FC01BA
:104C3000F999FECF06C0F2BDE1BDF89A319600B4F5
:104C40000D9241505040B8F70895F999FECF92BDAA
:104C500081BDF89A992780B50895262FF999FECF3E
:104C60001FBA92BD81BD20BD0FB6F894FA9AF99A89
:104C70000FBE01960895052E97FB1EF400940E9426
:104C8000522657FD07D00E94A42607FC03D04EF4FD
:104C90000C94522650954095309521953F4F4F4F9B
:104CA0005F4F089590958095709561957F4F8F4FD8
:104CB0009F4F08950E94C626A59F900DB49F900D0A
:104CC000A49F800D911D11240895B7FF0C945A26BE
:104CD0000E945A26821B930B08952F923F924F9267
:104CE0005F926F927F928F929F92AF92BF92CF927C
:104CF000DF92EF92FF920F931F93CF93DF93CDB785
:104D0000DEB7CA1BDB0B0FB6F894DEBF0FBECDBFFC
:104D100009942A88398848885F846E847D848C84CD
:104D20009B84AA84B984C884DF80EE80FD800C81D6
:104D30001B81AA81B981CE0FD11D0FB6F894DEBFB9
:104D40000FBECDBFED010895A1E21A2EAA1BBB1B19
:104D5000FD010DC0AA1FBB1FEE1FFF1FA217B30747
:104D6000E407F50720F0A21BB30BE40BF50B661F5D
:104D7000771F881F991F1A9469F760957095809521
:104D800090959B01AC01BD01CF010895A29FB00198
:104D9000B39FC001A39F700D811D1124911DB29F6F
:104DA000700D811D1124911D089513E0C3E1D3E01E
:104DB00004C0FE010E94E91B2196C431D107C9F746
:044DC000F894FFCF95
:104DC400B509B5097A1500001314551200FCE1A8C1
:104DD400A8C4147E145B1400004D1439143F15F359
:104DE40014FF0000390380000100000000000000EF
:104DF4001D099908E608C408D80864096F6B0032D5
:104E04002E302E3000536574416C6C4F6666000D75
:104E14000A0057533238787820506C61666F6E649C
:104E24000032006263006661696C00210072657182
:104E34007565737465644C6576656C2000206869DB
:104E4400676865737420002070657263656E7420F2
:104E54006368616E676520697320002E00496E6384
:104E64006F6D696E67206368616E676520666F7237
:104E74002073656E736F723A002C204E6577207331
:084E840074617475733A20009B
:00000001FF
