:100000000C94B2020C94EB0D0C94C40D0C94DA0217
:100010000C94DA020C94DA020C94C5070C94DA0200
:100020000C94DA020C94DA020C94DA020C94DA02E0
:100030000C94DA020C94DA020C94DA020C94DA02D0
:100040000C947A0D0C94DA020C9478160C945216D7
:100050000C94DA020C94DA020C94DA020C94DA02B0
:100060000C94DA020C94DA022154534D3A52414472
:10007000494F3A4641494C0A0054534D3A52414483
:10008000494F3A4F4B0A0054534D3A494E49540A8E
:100090000054534D3A465041520A002154534D3AB0
:1000A000465041523A4641494C0A0054534D3A4653
:1000B0005041523A4F4B0A0054534D3A49440A00BA
:1000C0002154534D3A43484B49443A4641494C2008
:1000D0002849443D2564290A0054534D3A43484B6E
:1000E00049443A4F4B202849443D2564290A00548D
:1000F00053503A50494E473A53454E442028646580
:1001000073743D2564290A005453503A43484B55B3
:10011000504C3A4641494C2028686F70733D256425
:10012000290A005453503A43484B55504C3A4447DF
:10013000574320286F6C643D25642C6E65773D2500
:100140006429005453503A43484B55504C3A4F4B56
:100150000A0054534D3A55504C3A4F4B0A00215423
:10016000534D3A55504C3A4641494C0A0054534D70
:100170003A55504C0A0054534D3A52454144590A9D
:10018000002154534D3A55504C204641494C2C20A7
:10019000534E500A0054534D3A5044540A002154CF
:1001A000534D3A4641494C5552450A005453503A32
:1001B00041535349474E49443A4F4B202849443D07
:1001C0002564290A00215453503A41535349474E5C
:1001D00049443A4641494C202849443D2564290A6E
:1001E0000025735453503A4D53473A53454E4420DB
:1001F00025642D25642D25642D256420733D2564FB
:100200002C633D25642C743D25642C70743D25645D
:100210002C6C3D25642C73673D25642C66743D254C
:10022000642C73743D25733A25730A00215453508E
:100230003A465041523A41435449564520286D733D
:1002400067206E6F742073656E64290A00000000D9
:1002500000240027002A0000000000250028002BB1
:10026000000404040404040404020202020202035F
:100270000303030303010204081020408001020469
:1002800008102001020408102000000008000201EC
:100290000000030407000000000000000021545388
:1002A000503A53454E443A544E520A004E6F6465DC
:1002B00020726567697374726174696F6E3D25643D
:1002C0000A002154534D3A4D53473A52454C204D64
:1002D00053472C20627574206E6F74206120726504
:1002E0007065617465720A005453503A4D53473A31
:1002F00042430A005453503A4D53473A504F4E47E9
:1003000020524543562028686F70733D2564290AA2
:10031000005453503A4D53473A50494E47454420B4
:100320002849443D25642C20686F70733D2564295D
:100330000A005453503A4D53473A504152204F4BC4
:10034000202849443D25642C20646973743D25644C
:10035000290A005453503A4D53473A4650415220CF
:10036000524553202849443D25642C206469737408
:100370003D2564290A005453503A4D53473A4143AE
:100380004B206D73670A00215453503A4D53473A3E
:1003900050564552206D69736D617463680A00544C
:1003A00053503A4D53473A524541442025642D2538
:1003B000642D256420733D25642C633D25642C74D5
:1003C0003D25642C70743D25642C6C3D25642C7394
:1003D000673D25643A25730A0000000000230026CB
:1003E0000029004E4F44453A215245470A005265C4
:1003F000717565737420726567697374726174696D
:100400006F6E2E2E2E0A00496E697420636F6D7018
:100410006C6574652C2069643D25642C20706172C4
:10042000656E743D25642C2064697374616E636528
:100430003D25642C20726567697374726174696FFD
:100440006E3D25640A005374617274696E6720738F
:10045000656E736F722028524E4E4E412D2C203205
:100460002E302E30290A0000407A10F35A00A07274
:100470004E18090010A5D4E80000E87648170000DF
:10048000E40B54020000CA9A3B000000E1F50500AD
:100490000080969800000040420F000000A08601F6
:1004A000000000102700000000E8030000000064C6
:1004B00000000000000A0000000000010000000031
:1004C000002C76D888DC674F0823DFC1DFAE59E106
:1004D000B1B796E5E3E453C63AE651997696E8E675
:1004E000C28426EB898C9B62ED407C6FFCEFBC9C48
:1004F0009F40F2BAA56FA5F490055A2AF75C936B5A
:100500006CF9676DC11BFCE0E40D47FEF520E6B514
:1005100000D0ED902E0300943577050080841E08EE
:100520000000204E0A000000C80C333333330F980C
:100530006E12831141EF8D2114893BE65516CFFED3
:10054000E6DB18D1844B381BF77C1D901DA4BBE45F
:1005500024203284725E228100C9F124ECA1E53DA1
:100560002700311811241FBECFEFD8E0DEBFCDBF6A
:1005700011E0A0E0B1E0E6E7F4E402C005900D92DE
:10058000A03EB107D9F723E0A0EEB1E001C01D9273
:10059000A437B207E1F712E0C2EBD2E004C0219722
:1005A000FE010E94A519C13BD107C9F70E94761828
:1005B0000C9439220C940000E0916603F0916703DB
:1005C0000280F381E02D309709F0099408950F938C
:1005D0001F930E94050A00916803109169032091FE
:1005E0006A0330916B03601B710B820B930B1F919D
:1005F0000F9108959C01409166035091670390917B
:100600006D034217530741F0907F90936D03309331
:1006100067032093660307C081E0890F8F70907F86
:10062000982B90936D03E0916603F091670301901E
:10063000F081E02D309709F009950E94050A60933A
:1006400068037093690380936A0390936B03089522
:100650000E94E702613177428105910520F08AE12D
:1006600091E00C94FA020895CF93DF93CDB7DEB7F3
:10067000CC52D1400FB6F894DEBF0FBECDBF9E0165
:100680002F5C3E4FF901419151919F016BE271E066
:10069000CE0101960E94981BCE0101960E9406137E
:1006A00087E492E00E94E412C45DDE4F0FB6F89436
:1006B000DEBF0FBECDBFDF91CF9108959F92AF9265
:1006C000BF92CF92DF92EF92FF920F931F93CF933F
:1006D000DF938C01DC0112968C9190916C0390FF5A
:1006E0000CC08F3F79F08CE292E09F938F930E9431
:1006F00034030F900F90C0E0F9C08F3F19F0D091F4
:10070000120201C0DFEFF801C381CC7FC260C38356
:10071000809111028083C2FD08C0C695C695C6951A
:1007200080E090E0892B31F409C080E090E0892BD3
:1007300039F0C0E280E090E00E940000CA3110F081
:10074000C0E201C0C95F60E089E00E94DE0883E08A
:1007500092E00197F1F76EE080E20E940B188BE8BF
:1007600091E00197F1F76D2F8AE20E940B186D2F2F
:1007700080E30E940B1881EE0E942B1820E04C2F82
:10078000B80180EA0E94120E61E089E00E94DE0852
:10079000EE24EA94FE2C8FEF0E942B18C82F807352
:1007A00049F4C7010197EF2811F07C01F4CFEE2442
:1007B000EA94FE2C60E089E00E94DE0860E387E2B4
:1007C0000E940B18C4FF03C081EE0E942B180E94E8
:1007D0001C18C5FF03C0C1E0EF2809F4C0E0C80140
:1007E0000E942914DF3F29F0C11106C06BE371E0BC
:1007F00005C068E371E002C060E471E0E0916D0360
:100800009E2E92942FE09222D80113962C9113974A
:1008100022FBAA24A0F8522F569556955695149669
:100820002C911497B22EB294B69437E0B322159659
:10083000CC901597422F47701696DC90169712961B
:10084000EC90AD2FB0E0F801F0801181C11105C02E
:10085000DF3F19F023E431E002C024E731E09F9349
:100860008F937F936F931F929F921F92AF921F92CD
:100870005F931F92BF921F92CF921F924F931F922E
:10088000DF921F92EF92BF93AF931F92FF921F923E
:100890001F933F932F9381EE91E09F938F930E943C
:1008A00034038DB79EB74E960FB6F8949EBF0FBE19
:1008B0008DBFC11104C0C1E0DF3F09F0C0E08091ED
:1008C0001202D81313C0C1110CC080E090E0892B34
:1008D00021F085E690E00E94000080916D03805F2A
:1008E00003C080916D038F7080936D038C2FDF9117
:1008F000CF911F910F91FF90EF90DF90CF90BF901D
:10090000AF909F900895CF93C82F8FEF8C0F8E3F9D
:1009100038F5C0931102C093190163E082E20E948E
:100920000B1861E081E20E940B180E941C1880E005
:1009300090E00E94EC21C81729F06C2F80E090E035
:100940000E94F4211F92CF938CEA91E09F938F93A2
:100950000E9434030F900F900F900F90CF91089545
:100960001F92CF9385EC91E09F938F930E94340365
:100970000F900F900F900F9080E090E0892B21F066
:100980008CE690E00E9400008EE191E0CF910C9403
:10099000FA028EE991E09F938F930E943403809135
:1009A0006C038B7F8F7E80936C030F900F9080E0A1
:1009B00090E0892B21F087E690E00E94000085E915
:1009C00091E09F938F930E94340360E089E00E943E
:1009D000DE080F900F906CE080E20C940B18809171
:1009E0006D0382958F7090E0069764F081E891E046
:1009F0009F938F930E9434030F900F9081E191E0B9
:100A00000C94FA02089586E791E09F938F930E94D9
:100A10003403ECE6F3E08081846080830F900F90D4
:100A20000895CF92DF92EF92FF92CF938DE691E0FF
:100A30009F938F930E94340380916C030F900F90CB
:100A400083FD78C0C0911102CC2309F44AC08860AC
:100A500080936C03CFEFC0936E031F921F928FEEB3
:100A600090E09F938F930E943403809111028093B2
:100A7000050310920603C0930A0388E180930903DB
:100A800080910803807E83608093080361E084E0A6
:100A900093E00E9460170E945E030E94050A6B01AA
:100AA0007C0110922A030F900F900F900F90C0E0DE
:100AB0000E94050ADC01CB018C199D09AE09BF0912
:100AC000803D9740A105B10518F4CC2309F44AC034
:100AD00080916C03877F80936C03C0916E03CF3F3E
:100AE00049F10E94050A6093E2017093E30180934B
:100AF000E4019093E50183E491E09F938F930E943A
:100B00003403809113020F900F90C817D1F11F92F8
:100B1000CF931F928F9383E291E09F938F930E94D4
:100B20003403C09313020F900F900F900F900F900B
:100B30000F9027C01F928FEF8F9388E091E09F93D3
:100B40008F930E9434038EE591E09F938F930E94D0
:100B500034030F900F900F900F900F900F9081E142
:100B600091E019C00E94700E809129038770833034
:100B700009F09ECFC1E080912A03893109F097CF17
:100B800097CF82E591E09F938F930E9434030F905B
:100B90000F908DE091E0CF91FF90EF90DF90CF909C
:100BA0000C94FA02809111028F3FB9F01F928F933B
:100BB00089ED90E09F938F930E9434030F900F90E4
:100BC0000F900F9080E090E0892B21F087E090E07B
:100BD0000E94000089E091E028C00E94E702613D88
:100BE00077408105910518F180916D038F7090E039
:100BF00003971CF485E091E018C0809111021F92C8
:100C00008F9380EC90E09F938F930E9434030F901A
:100C10000F900F900F9080E090E0892B21F089E6F3
:100C200090E00E9400008EE191E00C94FA02089599
:100C300088EB90E09F938F930E9434030F900F9066
:100C4000809111028F3F11F580E090E0892B21F017
:100C500086E090E00E9400008091110280930503DD
:100C6000109206038FEF80930A0383E080930903B9
:100C700080910803807E83608093080364E771E0BD
:100C800084E093E00E946C170C945E0308950E9428
:100C9000E702613D77408105910520F480916C0366
:100CA00081FF0895809112028F3FC1F08BEA90E09E
:100CB0009F938F930E94340380916C038E7F809367
:100CC0006C030F900F9080E090E0892B21F085E07D
:100CD00090E00E94000085E091E022C00E94E702BF
:100CE000613D774081059105E8F080916D038F703B
:100CF00090E003971CF481E191E012C08BE990E051
:100D00009F938F930E9434030F900F9080E090E0A8
:100D1000892B21F088E690E00E9400008EE191E0AE
:100D20000C94FA02089581E990E09F938F930E94BA
:100D3000340380916C038D7F90916D039F7090932D
:100D40006D0381608B7F80936C038FEF8093130220
:100D5000809312020F900F9080E090E0892B21F099
:100D600084E090E00E9400008091110280930503CE
:100D70008FEF8093060380930A0387E08093090333
:100D800080910803807E83608093080364E771E0AC
:100D900084E093E00E946C170C945E03CF9387E885
:100DA00090E09F938F930E94340380916D038F7026
:100DB00080936D0380916C03877F8F7E80936C039B
:100DC0001092E2011092E3011092E4011092E50109
:100DD00043E050E060E070E081E192E00E94DC21BD
:100DE00061E089E00E948F0961E08AE00E948F093A
:100DF000CFB7F8940F900F908091E101811127C037
:100E0000EBE6F2E08491EFE7F2E09491E82FF0E076
:100E1000EE0FFF1FE35BFD4FA591B491EC91E92329
:100E200021F461E08AE00E94DE0861E08AE00E942D
:100E30008F098CB580618CBD8CB580648CBD61E000
:100E40008DE00E948F0961E08BE00E948F09809104
:100E5000E1018F5F8093E101CFBF60E089E00E94F4
:100E6000DE0861E08AE00E94DE086EE080E20E9417
:100E70000B1865E070E080E090E00E94CB0963E031
:100E800083E20E940B186FE584E20E940B186CE469
:100E900085E20E940B1867E286E20E940B1821E0AF
:100EA00041E060E070E086E00E94120EC82F21E071
:100EB00041E060E070E085E00E94120E8C3409F0A1
:100EC00051C0C73209F04EC063E780E30E940B189F
:100ED00066E08DE30E940B1862E082E20E940B182C
:100EE00060E081E20E940B1863E08CE30E940B1823
:100EF0008FEF8093000120E045E060E071E08BE23D
:100F00000E94120E20E045E060E071E08AE20E945B
:100F1000120E20E045E060E071E080E30E94120ED6
:100F200082EE0E942B1881EE0E942B1860E787E268
:100F30000E940B1889E790E09F938F930E943403DF
:100F400080916C03806180936C03809111020F90FB
:100F50000F908F3F11F00E94830481E191E0CF91C7
:100F60000C94FA0288E690E09F938F930E943403DA
:100F70000F900F9080E090E0892B21F087E690E0C1
:100F80000E9400008EE191E0EACF1F920F920FB60F
:100F90000F9211240F900FBE0F901F901895FC0117
:100FA000918D828D981761F0828DDF01A80FB11DA0
:100FB0005D968C91928D9F5F9F73928F90E00895C4
:100FC0008FEF9FEF0895FC01918D828D981731F07E
:100FD000828DE80FF11D858D90E008958FEF9FEFD2
:100FE0000895FC01918D228D892F90E0805C9F4FA8
:100FF000821B91098F739927089580E090E0892BD7
:1010000029F00E94911281110C94000008953FB7BD
:10101000F89480910C0290910D02A0910E02B09173
:101020000F0226B5A89B05C02F3F19F00196A11D00
:10103000B11D3FBFBA2FA92F982F8827820F911D6E
:10104000A11DB11DBC01CD0142E0660F771F881FB5
:10105000991F4A95D1F708950895CF93DF93CDB79F
:10106000DEB7A1970FB6F894DEBF0FBECDBFFC016F
:1010700080811B828F8382E08E838D818F7180645B
:101080008D838C81877080618C8319861886CE0150
:1010900001960E94C614A1960FB6F894DEBF0FBE4B
:1010A000CDBFDF91CF910895EF92FF921F93CF9321
:1010B000DF936DE080E00E94FD1567E081E00E9413
:1010C000FD1566E082E00E94FD1567E083E00E9466
:1010D000FD1566E084E00E94FD1563E085E00E9456
:1010E000FD1563E086E00E94FD1563E087E00E9445
:1010F000FD1563E088E00E94FD1563E089E00E9431
:10110000FD1563E08AE00E94FD1563E08BE00E941C
:10111000FD1563E08CE00E94FD15C4E0D3E081E1A1
:10112000E82E82E0F82EF701808189831A821FEF72
:101130001E838BE08D838C81807E83608C8365E44D
:1011400071E0CE010E946C170E945E17F70180814A
:1011500089831A821E838CE08D838C81807E8360DC
:101160008C8366E571E0CE010E946C17DF91CF9110
:101170001F91FF90EF900C945E17FC01848DDF01AE
:10118000A80FB11DA35ABF4F2C91848D90E00196FA
:101190008F739927848FA689B7892C93A089B189E9
:1011A0008C9180648C93938D848D981306C00288F3
:1011B000F389E02D80818F7D8083089590E0FC018C
:1011C000E757FD4F3491FC01EB58FD4F2491FC0192
:1011D000EF59FD4FE491EE2309F43BC0332339F17D
:1011E000333091F038F43130A9F0323001F584B564
:1011F0008F7D12C0373091F03830A1F03430B9F41F
:10120000809180008F7D03C0809180008F778093D4
:1012100080000DC084B58F7784BD09C08091B00077
:101220008F7703C08091B0008F7D8093B000F0E095
:10123000EE0FFF1FE95AFD4FA591B4918FB7F894B7
:10124000EC91611103C020952E2301C02E2B2C930D
:101250008FBF0895EF92FF920F931F93CF93DF9369
:101260008C017B01CB0107960E94E01AEC018AE514
:1012700091E00E940613F80162817381072E000C31
:10128000880B990B97FF03C00E94D61503C04AE054
:101290000E94181380E691E00E940613BE01DD0F44
:1012A000880B990B97FF03C00E94D61503C04AE034
:1012B0000E94181382E791E00E940613C7010E9462
:1012C000FA1761E0811101C060E0F8018281DF91CD
:1012D000CF911F910F91FF90EF900C94DE08BC010D
:1012E000FC01858182508230C8F48681863061F0AD
:1012F00018F4853031F00895873049F0883051F086
:10130000089583E092E008C08FEF91E005C08BEF75
:1013100091E002C087EF91E00C942A090895CF93E1
:10132000DF9390E0FC01EB58FD4F2491FC01EF5955
:10133000FD4F8491882361F190E0880F991FFC0193
:10134000E35BFD4FC591D491FC01E95AFD4FA59196
:10135000B491611109C09FB7F894888120958223C8
:101360008883EC912E230BC0623061F49FB7F89410
:101370003881822F809583238883EC912E2B2C93A8
:101380009FBF06C08FB7F894E8812E2B28838FBFAC
:10139000DF91CF9108958F929F92AF92BF92CF929B
:1013A000DF92EF92FF926B017C010E9407084B01D4
:1013B0005C01C114D104E104F104F1F00E940708BA
:1013C000DC01CB0188199909AA09BB09883E934021
:1013D000A105B10570F321E0C21AD108E108F108B6
:1013E00088EE880E83E0981EA11CB11CC114D104A4
:1013F000E104F10419F7DDCFFF90EF90DF90CF907B
:10140000BF90AF909F908F9008952FB7F894609100
:1014100008027091090280910A0290910B022FBF7D
:1014200008954F925F926F927F928F929F92AF92A8
:10143000BF92CF92DF92EF92FF921F93CF93DF93F1
:10144000CDB7DEB7A9970FB6F894DEBF0FBECDBFFC
:101450008091F601811123C081E08093F60183E041
:1014600092E00E942D088FEF91E00E942D088BEFF3
:1014700091E00E942D0887EF91E00E942D0882EFF5
:1014800091E00E942D088EEE91E00E942D088AEED8
:1014900091E00E942D0886EE91E00E942D080E94A6
:1014A000050AC0900003D0900103E0900203F09081
:1014B00003034B015C018C189D08AE08BF08C09067
:1014C000FC02D090FD02E090FE02F090FF028C142E
:1014D0009D04AE04BF0408F4F7C260930003709348
:1014E000010380930203909303030E94DF14882377
:1014F000B1F18091EA028B3041F188F1855182305F
:1015000070F56091E40270E080E090E00E94BD2000
:1015100020E030E040E853E40E941E216B017C0192
:101520008091E502682F70E080E090E00E94BF208B
:101530009B01AC01C701B6010E94AC192DEC3CEC3B
:101540004CEC5DE30E941E2107C06091E40270E054
:1015500080E090E00E94BD206B017C0106C0C12CA0
:10156000D12C80ECE82E8FE7F82E0E94DF14882320
:10157000D1F18091EA028B3029F0A8F185518230B7
:1015800048F031C06091E60270E080E090E00E9497
:10159000BD202DC01091E602612F6F7770E080E0D2
:1015A00090E00E94BF2020E030E040E853E40E9439
:1015B0001E214B015C018091E702682F70E080E002
:1015C00090E00E94BF209B01AC01C501B4010E94C4
:1015D000AC192DEC3CEC4CEC5DE30E941E2117FF96
:1015E00006C0905804C060E070E080EC9FE726E6FB
:1015F00036E646EE5FE30E941E2120E030E040E048
:1016000052E40E94AC194B015C0120E030E044E759
:1016100052E40E94AC192B013C0120E030E048E884
:1016200052E4C501B4010E94AB192AE939E949E93C
:101630005FE30E941E219B01AC01C301B2010E9425
:10164000AC192B013C0122E133E840EC5DE3C7011A
:10165000B6010E941E219B01AC01C301B2010E9490
:10166000AC1920E030E040E05FE30E941E212B0136
:101670003C0120E030E04EE952E40E94471A18167F
:101680000CF07DC1A5019401C501B4010E941E2189
:101690002B013C01A7019601C701B6010E941E2142
:1016A0006EA37FA388A799A721E133E243E050E42A
:1016B000C501B4010E941E2129E134E849E252E447
:1016C0000E94AB196AA37BA38CA39DA326E13BE4F4
:1016D00042E251E4C701B6010E941E219B01AC0108
:1016E0006AA17BA18CA19DA10E94AC196AA37BA3D6
:1016F0008CA39DA328E436E246E65EEBC501B40167
:101700000E941E21A70196010E941E219B01AC018F
:101710006AA17BA18CA19DA10E94AC196AA37BA3A5
:101720008CA39DA320EE3FE040EE5BEBC301B20132
:101730000E941E219B01AC016AA17BA18CA19DA1ED
:101740000E94AC196AA37BA38CA39DA328EF37E862
:1017500040E65DEB6EA17FA188A599A50E941E21A0
:101760009B01AC016AA17BA18CA19DA10E94AC1937
:101770006AA37BA38CA39DA32CEA3DE041EA5AE334
:10178000C301B2010E941E21A70196010E941E21E1
:101790009B01AC016AA17BA18CA19DA10E94AC1907
:1017A0006AA37BA38CA39DA328EC3FE84FE55AE3F3
:1017B000C501B4010E941E212EA13FA148A559A533
:1017C0000E941E219B01AC016AA17BA18CA19DA15D
:1017D0000E94AC196AA37BA38CA39DA321EF3BE8D5
:1017E00045E056EBC301B2010E941E212EA13FA18C
:1017F00048A559A50E941E219B01AC016AA17BA1AD
:101800008CA19DA10E94AC192B013C0120E030E08D
:1018100040E551E4C701B6010E94B82087FF60C0CF
:1018200020E030E040EA52E4C501B4010E94471ACA
:1018300087FD56C020E030E040EE52E4C501B4011F
:101840000E94B82018160CF433C1A701960160E07D
:1018500070E080E591E40E94AB1920E030E040E8C0
:101860005EE30E941E216EA37FA388A799A720E0B4
:1018700030E04EEB52E4C501B4010E94AB194B01BC
:101880005C0120E030E0A9010E94471A18164CF4D0
:10189000A501940160E070E088E891E40E94AB1932
:1018A00008C020E030E048E851E4C501B4010E94DE
:1018B000AC192EE33DEE40E75DE30E941E210E943D
:1018C000521A9B01AC016EA17FA188A599A50E9427
:1018D0001E219B01AC01C301B2010E94AB194DC096
:1018E00020E030E04AEA52E4C701B6010E94471AFC
:1018F00018160CF044C020E030E040EA52E4C50184
:10190000B4010E94471A87FD3AC020E030E04EEA59
:1019100052E4C501B4010E94B820181684F120E0F9
:1019200030E04AEA52E4C701B6010E94AB192DEC3F
:101930003CEC4CEC5DE30E941E216EA37FA388A7C4
:1019400099A7A501940160E070E08EEA92E40E94FC
:10195000AB192DEC3CEC4CE45EE30E941E219B0194
:10196000AC016EA17FA188A599A50E941E219B01B3
:10197000AC01C301B2010E94AC192B013C0120E073
:1019800030E040E052E4C301B2010E94AB1926E806
:1019900038E34EE05FE30E941E214B015C019B0196
:1019A000AC010E94921A8823F9F085E791E00E9429
:1019B000061382E791E00E9406138091F6021B82D3
:1019C0008F831E828C81877088628C838D81806E6C
:1019D0008D83188619861A861B8682E08C87CE0135
:1019E00001960E94C6141EC08091F6021B828F834E
:1019F0001E828C81877088628C838D81806E8D833E
:101A000088869986AA86BB8682E08C87CE0101965D
:101A10000E94C61489E991E00E940613C501B40131
:101A20000E945913A7019601C701B6010E94921A9C
:101A30008823F9F080EA91E00E94061382E791E0A2
:101A40000E9406138091F8021B828F8381E08E83AF
:101A50008C81877088628C838D81806E8D831886DF
:101A600019861A861B861C86CE0101960E94C61412
:101A70002BC08091F8021B828F8381E08E838C8142
:101A8000877088628C838D81806E8D83C886D986AD
:101A9000EA86FB861C86CE0101960E94C61481EC64
:101AA00091E00E940613C701B6010E9459130CC0B1
:101AB00020E030E04AEA52E4C701B6010E94471A2A
:101AC00018160CF422CF5BCFA9960FB6F894DEBFA0
:101AD0000FBECDBFDF91CF911F91FF90EF90DF90B0
:101AE000CF90BF90AF909F908F907F906F905F90BE
:101AF0004F9008951F920F920FB60F9211242F93BB
:101B00003F938F939F93AF93BF93809108029091DF
:101B10000902A0910A02B0910B023091070223E062
:101B2000230F2D3720F40196A11DB11D05C026E815
:101B3000230F0296A11DB11D209307028093080276
:101B400090930902A0930A02B0930B0280910C02B9
:101B500090910D02A0910E02B0910F020196A11D6D
:101B6000B11D80930C0290930D02A0930E02B093CE
:101B70000F02BF91AF919F918F913F912F910F9045
:101B80000FBE0F901F9018951F920F920FB60F92D5
:101B900011242F933F934F935F936F937F938F9372
:101BA0009F93AF93BF93EF93FF93E0911701F09151
:101BB00018010995FF91EF91BF91AF919F918F917E
:101BC0007F916F915F914F913F912F910F900FBE39
:101BD0000F901F9018951F920F920FB60F9211241D
:101BE0002F933F934F935F936F937F938F939F9325
:101BF000AF93BF93EF93FF93E0911501F09116011E
:101C00000995FF91EF91BF91AF919F918F917F9136
:101C10006F915F914F913F912F910F900FBE0F9059
:101C20001F901895FF920F931F93CF93DF9300D0CF
:101C3000CDB7DEB7F82E8B0181E58CBD81E08DBD7F
:101C400060E08AE02A8349830E94DE08E3E2F0E054
:101C50003197F1F7FEBC000049812A810DB407FEDF
:101C6000FDCFFEB4F8018FEF4150D0F0222361F098
:101C70008EBD00000DB407FEFDCFFEB401151105A9
:101C800099F3F0823196F0CFBF016F5F7F4F908163
:101C90009EBD00000DB407FEFDCFFEB4FB01E4CFF6
:101CA00061E08AE00E94DE0883E290E00197F1F7AC
:101CB0008F2D0F900F90DF91CF911F910F91FF907B
:101CC000089520916C0322FD0C945E038DE992E04F
:101CD0009F938F930E9434030F900F9080E008959C
:101CE0002F923F924F925F926F927F928F929F922C
:101CF000AF92BF92CF92DF92EF92FF920F931F931A
:101D0000CF93DF93CDB7DEB728970FB6F894DEBF39
:101D10000FBECDBF80916C0384FB222720F92E8358
:101D200084FF6DC336E0F32E40E0C42E40E0D42E95
:101D3000BE016F5F7F4F7C836B8350EA452E56E870
:101D4000552E66246394712C64EB862E6BE2962EDE
:101D500061E1A62EB12C74EF272E72E0372E8FEFA3
:101D60000E942B1890E09595879587709927069784
:101D70000CF045C3FA94FF2009F441C321E041E08F
:101D800060E070E080E60E94120E813220F082EE68
:101D90000E942B1880E021E0482F65E273E081E685
:101DA0000E94120E60E487E20E940B18C114D10455
:101DB00021F081E090E00E94000050912903009101
:101DC0002A0310912603E09025032091270385E242
:101DD00093E028875F830E94291440912803309163
:101DE00029039F938F9342FB882780F91F928F933B
:101DF0004695469546951F924F93832F82958695DB
:101E000087701F928F931F920F9337701F923F938B
:101E100080912B031F928F931F9228852F931F92DF
:101E2000EF921F921F93AFE9B3E0BF93AF93288760
:101E30000E943403E09128038E2F83700FB6F8942C
:101E4000DEBF0FBECDBF28855F81823061F0C11437
:101E5000D10421F08BE690E00E94000087E893E037
:101E60009F938F93C7C257705D838091110228138F
:101E70007AC28E2F8770E695E695E695E93120F4D3
:101E8000EE0FEE0FEE0F01C0E8ECE82BE093280315
:101E9000E695E695E695F0E0EB5DFC4F17828091C4
:101EA000290383FF1FC081E2E5E2F3E0A4E0B3E091
:101EB00001900D928A95E1F780910803877F8061F8
:101EC00080930803209305031093060386E793E0AD
:101ED0009F938F930E94340384E093E00E94610EED
:101EE0000F900F909091290394FD38C27D8173303B
:101EF00009F034C2043039F485E293E00E94FA1705
:101F00000E9483042CCF0830A9F585E293E00E945B
:101F1000FA171F928F931F921F9323E533E03F938D
:101F20002F938F830E9434030F900F900F900F9088
:101F30000F900F908F818F3F09F411CF8F5F8F3FEC
:101F400009F40DCF90911302891708F008CF9091F2
:101F50006C0391FD04CF80931302109312021F9221
:101F60008F931F921F9382E393E09F938F930E941E
:101F7000340329C0083171F585E293E00E94FA1715
:101F80001F928F931F921F93A1E1B3E0BF93AF9372
:101F90000E9434038091110280930503109306037D
:101FA0008FEF80930A0389E18093090380910803EE
:101FB000807E83608093080361E084E093E00E9468
:101FC00060170E945E030F900F900F900F900F907C
:101FD0000F90C5CE093191F480916C0383FFBFCE81
:101FE000877F80936C0385E293E00E94FA178093C9
:101FF0006E031F928F933F922F9236C080912A03D7
:10200000209126032111A7C18D3099F480E090E042
:10201000892B21F08AE090E00E94000098E088E19E
:102020000FB6F894A895809360000FBE909360005F
:10203000FFCF8B3101F585E293E00E94FA1791E022
:10204000811101C090E090931002C114D10421F0DD
:1020500089E090E00E940000809110021F928F930F
:10206000ACEAB2E0BF93AF930E9434030F900F909D
:102070000F900F9074CE8630D1F480912C0388237A
:1020800029F061E08D3419F060E001C06E81609349
:102090006F0383E091E06F830E94EC216F816817EA
:1020A00009F45DCE83E091E00E94F42158CE8331A3
:1020B00019F40E94A11753CE823101F50E94E70264
:1020C0002091110220930503109206032FEF209315
:1020D0000A0326E12093090323EA209308032091B1
:1020E0000703277020622093070360930B0370930C
:1020F0000C0380930D0390930E0365C0813009F5A6
:1021000060E070E0672B09F42ACE892F82958695CE
:102110008770853049F460912C0370912D03809174
:102120002E0390912F030AC0811105C08CE293E029
:102130000E94FE1A03C060E070E0CB010E94000024
:102140000ECE8A3009F40BCE8C3109F007C1809194
:102150002C03823509F403CE8635D1F58EE48093C5
:102160007C0066E470E080E090E00E94CB09809102
:102170007A00806480937A0080917A0086FDFCCF9B
:1021800020917800309179008091110280930503AD
:10219000109206038FEF80930A038CE1809309036A
:1021A00083E68093080380910703877080618093A2
:1021B000070340E050E0C501B4010E948319309349
:1021C0000C0320930B0384E093E00E945E17C7CDBD
:1021D000863409F057C0F8948FEF86BB10928500C3
:1021E0001092840010928000109282009091600002
:1021F0002DE088E10FB6F894A895809360000FBE9B
:102200002093600080916000806480936000A895B6
:1022100085E0809381008091600087FFFCCF109261
:102220008100A89580916000886180936000909300
:102230006000789460918400709185008091110213
:1022400080930503109206038FEF80930A038CE1BD
:102250008093090383E680930803809107038770C6
:10226000806180930703CB01A0E0B0E0BC01CD0109
:10227000EBE0660F771F881F991FEA95D1F7A3013E
:1022800092019BCF8D3431F5809170039091710351
:10229000009711F484E793E0209111022093050345
:1022A000109206032FEF20930A032CE120930903D9
:1022B00023E62093080320910703277020612093D1
:1022C0000703AB81BC81A81BB90BB0930C03A0938F
:1022D0000B0379CF853409F042CD809111028093B0
:1022E0000503109206038FEF80930A038CE180931D
:1022F000090380910803807E83608093080360E473
:1023000071E084E093E00E946C170E945E1700E089
:1023100010E0C8010E94EC218F3F21F06FEFC8014F
:102320000E94F4210F5F1F4F0D39B1E01B0789F7A1
:1023300080E090E0892B21F08AE090E00E9400008C
:1023400098E088E10FB6F894A895809360000FBEDE
:1023500090936000FFCF8A3109F401CD85E293E0CC
:102360000E946F09FCCC2F3F09F040C0A8EEB2E0FC
:10237000BF93AF930E9434030F900F903D81333091
:1023800081F580916C0382FF03C0073009F4E7CC2C
:10239000043109F0E4CC80911202E812E0CC0E94F2
:1023A000050A7370882799270E94CB096091120251
:1023B0008091110280930503109306038FEF8093A1
:1023C0000A0385E18093090380910803807E83607E
:1023D0008093080384E093E00E9460170E945E03EC
:1023E000BECC80911202E812BACCB8CFA2ECB2E017
:1023F000BF93AF930E9434030F900F90B0CC2896F8
:102400000FB6F894DEBF0FBECDBFDF91CF911F9105
:102410000F91FF90EF90DF90CF90BF90AF909F9083
:102420008F907F906F905F904F903F902F90089586
:102430008F929F92AF92BF92CF92DF92EF92FF92D4
:10244000CF93DF93A091EB02882311F03A2F01C0C4
:1024500030E08091EC0290E0880F991F87529C4FEA
:10246000C090F102D090F202E090F302F090F402FA
:1024700040E050E0BA01FC01C591D49128812A23A3
:1024800023130FC04A015B012FEF821A920AA20A9E
:10249000B20A4C155D056E057F0538F4B501A4013F
:1024A000EACF342F252FCB0104C030E020E080E0BC
:1024B00090E0632F722FDF91CF91FF90EF90DF902C
:1024C000CF90BF90AF909F908F900895CF92DF9262
:1024D000EF92FF920F931F93CF93DF936C017A01DA
:1024E0008B01C0E0D0E0CE15DF0589F0D8016D91F9
:1024F0008D01D601ED91FC910190F081E02DC60196
:102500000995892B11F47E0102C02196ECCFC701F9
:10251000DF91CF911F910F91FF90EF90DF90CF90BF
:10252000089587E492E00E94F10721E0892B09F4E5
:1025300020E0822F08950E94AC1AEF92FF920F9331
:102540001F93CF93DF93EC0181E0888F9B8D8C8D5F
:10255000981305C0E889F989808185FD24C0F62E8D
:102560000B8D10E00F5F1F4F0F731127E02E8C8D26
:10257000E8120CC00FB607FCFACFE889F989808110
:1025800085FFF5CFCE010E94BD08F1CF8B8DFE01F6
:10259000E80FF11DE35AFF4FF0820B8FEA89FB89A8
:1025A0008081806207C0EE89FF896083E889F989AC
:1025B00080818064808381E090E0DF91CF911F91E2
:1025C0000F91FF90EF900895CF93DF93EC01888DEA
:1025D0008823C9F0EA89FB89808185FD05C0A88927
:1025E000B9898C9186FD0FC00FB607FCF5CF8081AD
:1025F00085FFF2CFA889B9898C9185FFEDCFCE01F7
:102600000E94BD08E7CFDF91CF910895009769F050
:10261000FC0101900020E9F73197AF01481B590BED
:10262000BC0187E492E00C94661280E090E008958B
:102630008F929F92AF92BF920F931F93CF93DF938E
:10264000CDB7DEB7A1970FB6F894DEBF0FBECDBFF2
:1026500019A2423008F44AE08E010F5D1F4F842E0C
:10266000912CA12CB12CA50194010E948319E62F75
:10267000B901CA0101501109EA3014F4E05D01C04A
:10268000E95CD801EC93232B242B252B61F7C8019F
:102690000E940613A1960FB6F894DEBF0FBECDBF01
:1026A000DF91CF911F910F91BF90AF909F908F902E
:1026B00008954F925F926F927F928F929F92AF9206
:1026C000BF92CF92DF92EF92FF926B017C019B0150
:1026D000AC010E94921A882319F08CEC91E01AC088
:1026E00046015701E894B7F82FEF3FEF4FE75FE758
:1026F000C501B4010E94921A811110C02FEF3FEF63
:102700004FE75FE7C501B4010E94B820181634F402
:1027100080ED91E00E9406137C0188C02FEF3FEF0F
:102720004FE75FE4C701B6010E94471A18161CF470
:1027300084ED91E0EFCF2FEF3FEF4FE75FECC70164
:10274000B6010E94B82087FDF3CF20E030E0A90158
:10275000C701B6010E94B82087FF11C0E09147026F
:10276000F09148020190F081E02D6DE287E492E063
:1027700009955C01F7FAF094F7F8F09402C0A12CE7
:10278000B12C2AE037ED43EA5BE3C701B6010E94B2
:10279000AC192B013C010E94181A6B017C010E94AC
:1027A000BD209B01AC01C301B2010E94AB192B01FA
:1027B0003C014AE0C701B6010E9418137C01EA0CF3
:1027C000FB1C88ED91E00E940613E80EF91E20E044
:1027D00030E040E251E4C301B2010E941E212B010E
:1027E0003C010E94181A4B01A12CB12C4AE0C501F2
:1027F000B4010E941813E80EF91EC501B4010E942D
:10280000BD209B01AC01C301B2010E94AB1920E0C5
:1028100030E040E251E40E941E210E94181A80E03C
:1028200090E04AE00E941813E80EF91E82E791E05A
:102830000E9406138E0D9F1DFF90EF90DF90CF90AA
:10284000BF90AF909F908F907F906F905F904F90D0
:1028500008950F931F93CF93DF93EC018C818295A2
:102860008695877091F44B8146954695469550E044
:10287000BE01695F7F4F84E192E00E94B11AEB8153
:10288000E695E695E695F0E077C0813031F48F81EA
:102890004AE064E172E090E007C0823041F44AE02F
:1028A00064E172E08F8198850E94251B68C08330A7
:1028B00041F44AE064E172E08F8198850E947E1BBA
:1028C0005EC0843051F46F81788589859A852AE0CD
:1028D00044E152E00E94301B52C0853051F46F81B8
:1028E000788589859A852AE044E152E00E945C1B44
:1028F00046C0873071F42B85293008F028E06F81BD
:10290000788589859A8504E112E042E00E94C01A28
:1029100036C08630A1F520E0EB81E695E695E69598
:102920002E1738F5E22FF0E0AF01440F551FDA0102
:10293000AC5EBD4FEC0FFD1F8781082E000C990B7C
:1029400034E0959587953A95E1F78F708A3010F4C9
:10295000805D01C0895C8C93DA01AB5EBD4F8781DD
:102960008F708A3010F4805D01C0895C8C932F5F7A
:10297000D3CFF0E0EE0FFF1FEC5EFD4F108284E13D
:1029800092E0DF91CF911F910F910895FC0180910A
:10299000110281839481907F9160948380911002D1
:1029A000882319F0CF010C94610E83EE93E09F937E
:1029B0008F930E9434030F900F9080E00895CF9280
:1029C000DF92EF92FF920F931F93CF93DF93CDB7D8
:1029D000DEB7C054D1400FB6F894DEBF0FBECDBFF6
:1029E0000E94050A0091ED021091EE022091EF0283
:1029F0003091F0026B017C01C01AD10AE20AF30A9D
:102A000040EDC41647E0D406E104F10418F48091C7
:102A1000F502BCC06093ED027093EE028093EF026A
:102A20009093F0021092E8021092E7021092E602F0
:102A30001092E5021092E40261E08091E9020E94A6
:102A4000DE086AEF70E080E090E00E94CB0961E070
:102A50008091E9020E948F0960E08091E9020E9462
:102A6000DE0864E170E080E090E00E94CB09F89419
:102A700061E08091E9020E94DE088BE990E0019715
:102A8000F1F762E08091E9020E948F0983E290E011
:102A90000197F1F780E00E941812672B682B692BD1
:102AA00021F41092F50278943EC081E00E94181241
:102AB000672B682B692BA9F38E010F5F1F4F6E01E7
:102AC0008FEBC81A8EEFD80A780180E00E941812A6
:102AD000F701608371838283938381E00E941812DF
:102AE000F7016483758386839783F8E0EF0EF11C0A
:102AF000EC14FD0451F7789420E030E0F8014081B7
:102B0000518162817381C480D580E680F780411550
:102B100051056105710529F0C114D104E104F104E6
:102B200021F41092F50280E031C0F90183E0F595BF
:102B3000E7958A95E1F7EC51FD4F8081880F4C15A0
:102B40005D056E057F0508F4816080832F5F3F4F30
:102B5000085F1F4F2832310589F62091E80230E0E6
:102B60004091E4028091E50290E0840F911D409134
:102B7000E602840F911D4091E702840F911D992771
:102B80002817390771F681E08093F502C05CDE4FAB
:102B90000FB6F894DEBF0FBECDBFDF91CF911F916E
:102BA0000F91FF90EF90DF90CF900895CF92DF923A
:102BB000EF92FF92CF93DF936B017C01E09147028C
:102BC000F09148020190F081E02D6DE287E492E0FF
:102BD0000995EC0166277727CB016C197D098E09D1
:102BE0009F094AE00E9418138C0F9D1FDF91CF911F
:102BF000FF90EF90DF90CF9008958F3F19F024E77A
:102C000031E002C02AED31E090911102909305036A
:102C10001092060380930A036093090380910803CE
:102C2000807E80930803B90184E093E00E946C17D2
:102C30000C945E17CF92DF92EF92FF92CF93DF93C7
:102C4000D82F0E94050A6B017C0181E0D11180E040
:102C500080932A03C0E00E94050AAB01BC014C1915
:102C60005D096E097F09403D57406105710590F48B
:102C7000C11110C0A8950E94DC020E94700E9091B4
:102C800029039770933039F7C1E080912A038D139F
:102C9000E1CFE1CF8C2FDF91CF91FF90EF90DF90CC
:102CA000CF9008951F920F920FB60F9211242F9379
:102CB0003F934F935F936F937F938F939F93AF93C4
:102CC000BF93EF93FF9387E492E00E94BD08FF91CA
:102CD000EF91BF91AF919F918F917F916F915F9194
:102CE0004F913F912F910F900FBE0F901F9018950D
:102CF0001F920F920FB60F9211242F938F939F93D1
:102D0000EF93FF93E0915702F09158028081E09198
:102D10005D02F0915E0282FD12C09081809160029E
:102D20008F5F8F7320916102821751F0E0916002F2
:102D3000F0E0E95BFD4F958F8093600201C08081D8
:102D4000FF91EF919F918F912F910F900FBE0F9058
:102D50001F901895CF92DF92EF92FF920F931F93DF
:102D6000CF93DF931092F601C4EED2E002E010E0C0
:102D70001B8B0A8B81E090E09D8B8C8B80E190E037
:102D80009F8B8E8BE5E8F2E08491E1E7F2E0E4913D
:102D900090E19D839BE09E838F83E88780E89EE39C
:102DA000A0E0B0E08D879E87AF87B88B62E080E1BE
:102DB0000E948F0980E398EFAFEFBFEF89879A8772
:102DC000AB87BC870E94050AC88CD98CEA8CFB8C27
:102DD000DC01CB018C199D09AE09BF098C8F9D8F39
:102DE000AE8FBF8FE3E0F2E085E0C82ED12CD18218
:102DF000C0821383028361E082E00E948F09EFEFBB
:102E0000F1E096E0E92EF12CF182E08283E090E09F
:102E10009383828361E00E948F09EBEFF1E007E08A
:102E200010E01183008384E090E09383828361E06B
:102E30000E948F09E7EFF1E0C8E0D0E0D183C083C2
:102E4000D382C28261E085E00E948F09E2EFF1E067
:102E500089E090E091838083F382E28261E086E002
:102E60000E948F09EEEEF1E08AE090E0918380838A
:102E70001383028361E087E00E948F09EAEEF1E0AC
:102E80008BE090E091838083D383C28361E088E00C
:102E90000E948F09E6EEF1E08CE090E09183808360
:102EA0001382128261E080E0DF91CF911F910F9138
:102EB000FF90EF90DF90CF900C948F090C94610EEF
:102EC000FC01838187708860838384818F71806235
:102ED00084836783CF0108950F931F93CF93DF936C
:102EE000EC016115710561F0FB0101900020E9F72B
:102EF0003197E61BF70BE931F10518F0E9E101C064
:102F0000E0E00E2F10E0C80123E0880F991F2A95FA
:102F1000E1F79B819770892B8B838C818F718C83D8
:102F2000EE2329F0A801CE0107960E94B11AFE01F6
:102F3000E00FF11F1782CE01DF91CF911F910F910A
:102F40000895CF9380E090E0892B21F08BE090E012
:102F50000E940000809111028093050310920603E5
:102F6000CFEFC0930A038FE0809309038091080399
:102F7000807E83608093080364E771E084E093E0DF
:102F80000E946C178091070387708061809307030C
:102F9000809108038F71806C8093080381E0809397
:102FA0000B0310920C0384E093E00E94610E61E138
:102FB0008FEF0E94FD1560911202809111028093A3
:102FC000050310920603C0930A0386E08093090369
:102FD00080910803807E83608093080384E093E0FF
:102FE0000E9460170E945E1786E00E941A16CF9119
:102FF0000C945408FC0124812295269527702130D9
:1030000011F487810895211104C007960E94E01AE7
:10301000089580E00895CF93DF931F92CDB7DEB778
:10302000698320E041E0BE016F5F7F4F0E94120E76
:103030000F90DF91CF9108956FE080E20E940B180E
:10304000609119016F3F19F08AE20E940B1861E04C
:1030500089E00C94DE0820E040E060E070E00C9431
:10306000120EE7E4F2E01382128288EE93E0A0E011
:10307000B0E084839583A683B7838CE291E091834B
:10308000808385EC90E09587848784EC90E0978737
:10309000868780EC90E0918B808B81EC90E0938B25
:1030A000828B82EC90E0958B848B86EC90E0978B02
:1030B000868B118E128E138E148E1092270310920F
:1030C000060380E69AEEA0E0B0E08093FC029093C5
:1030D000FD02A093FE02B093FF0280935E039093E3
:1030E0005F03A0936003B09361030895789484B55F
:1030F000826084BD84B5816084BD85B5826085BDF4
:1031000085B5816085BD80916E00816080936E0081
:103110001092810080918100826080938100809173
:103120008100816080938100809180008160809324
:1031300080008091B10084608093B1008091B000E4
:1031400081608093B00080917A00846080937A00DF
:1031500080917A00826080937A0080917A00816009
:1031600080937A0080917A00806880937A00109230
:10317000C100E0915702F091580282E08083E09113
:103180005302F09154021082E0915502F0915602E0
:1031900080E1808310925F02E0915B02F0915C021B
:1031A00086E08083E0915902F0915A02808180612B
:1031B0008083E0915902F0915A0280818860808377
:1031C000E0915902F0915A02808180688083E091F9
:1031D0005902F0915A0280818F7D808380E090E0D7
:1031E000892B11F00E94000086E494E09F938F9356
:1031F0000E94340341E050E063E071E08FE693E029
:103200000E94DC2181E090E00E94EC210F900F9061
:103210008F3F29F06FEF81E090E00E94F4218EE172
:1032200091E090936703809366038AE191E00E94A6
:10323000FA0280916C0382FD06C0A8950E94DC0210
:103240000E94700EF6CF0E94AA160E94A1178EEE61
:1032500093E09F938F930E9434030F900F9080E030
:1032600090E0892B21F088E090E00E94000081E04E
:1032700080931002C4E0DFEF1AE180911102809385
:10328000050310920603D0930A031093090380915B
:103290000803807E83608093080362E084E093E00B
:1032A0000E9460170E945E178BE10E941A1681111E
:1032B00002C0C15011F7809110021F928F9380912C
:1032C00013021F928F93809112021F928F9380910D
:1032D00011021F928F9387E094E09F938F930E9437
:1032E00034038DB79EB70A960FB6F8949EBF0FBEF3
:1032F0008DBFA8950E94DC020E94700E0E94110AE8
:103300000E94FD07F6CFA1E21A2EAA1BBB1BFD01EE
:103310000DC0AA1FBB1FEE1FFF1FA217B307E407B4
:10332000F50720F0A21BB30BE40BF50B661F771F0C
:10333000881F991F1A9469F76095709580959095EC
:103340009B01AC01BD01CF010895EE0FFF1F059059
:10335000F491E02D09945058BB27AA270E94C31965
:103360000C94A2210E94942138F00E949B2120F00D
:1033700039F49F3F19F426F40C9491210EF4E09552
:10338000E7FB0C948B21E92F0E94B32158F3BA1765
:10339000620773078407950720F079F4A6F50C946B
:1033A000D5210EF4E0950B2EBA2FA02D0B01B901FB
:1033B00090010C01CA01A0011124FF27591B99F0AB
:1033C000593F50F4503E68F11A16F040A22F232FB7
:1033D000342F4427585FF3CF469537952795A79507
:1033E000F0405395C9F77EF41F16BA0B620B730BAE
:1033F000840BBAF09150A1F0FF0FBB1F661F771F1F
:10340000881FC2F70EC0BA0F621F731F841F48F4D3
:10341000879577956795B795F7959E3F08F0B0CF5C
:103420009395880F08F09927EE0F97958795089543
:103430000E94BB2188F09F5798F0B92F9927B75168
:10344000B0F0E1F0660F771F881F991F1AF0BA9548
:10345000C9F714C0B13091F00E94D521B1E00895B0
:103460000C94D521672F782F8827B85F39F0B93FA2
:10347000CCF3869577956795B395D9F73EF49095FB
:103480008095709561957F4F8F4F9F4F08950E9453
:10349000FA2008F48FEF089519F416F40C94912192
:1034A0000C94971A0E94BB21B8F39923C9F3B6F381
:1034B0009F57550B87FF0E94A51A0024A0E640EAFB
:1034C000900180585695979528F4805C660F771F79
:1034D000881F20F026173707480730F4621B730B4C
:1034E000840B202931294A2BA6951794079420256F
:1034F00031254A2758F7660F771F881F20F02617B7
:103500003707480730F4620B730B840B200D311D15
:10351000411DA09581F7B901842F9158880F969588
:10352000879508950E94FA20880B990B08959F3F74
:1035300031F0915020F4879577956795B795880F6E
:10354000911D9695879597F9089591505040660F73
:10355000771F881FD2F7089581E090E0F8940C94CB
:103560003922FB01DC014150504048F001900D929E
:103570000020C9F701C01D9241505040E0F7089566
:10358000EF920F931F93CF93DF93E80147FD02C0A3
:1035900034E001C034E1E42F440FFF0BF7FF03C018
:1035A000F195E195F109E32E022F2E2FAE010E9435
:1035B000961DCE01DF91CF911F910F91EF9008954D
:1035C000FC0188279927E89421912032E9F32930DA
:1035D00010F02E30C8F32B3241F02D3239F46894BC
:1035E00004C00E94541B820F911D219120532A3048
:1035F000C0F31EF4909581959F4F08951F93FC0191
:1036000099278827BC01E89411911032E9F3193009
:1036100010F01E30C8F31B3251F01D3249F468948B
:1036200006C00E943F1B610F711D811D911D1191EC
:1036300010531A30B0F33EF49095809570956195D3
:103640007F4F8F4F9F4F1F910895BB274A3031F412
:10365000992322F4BDE2909581959F4F0C947F1B96
:10366000BB272A3051F4992342F4BDE2909580950E
:10367000709561957F4F8F4F9F4F0C945D1B592F15
:10368000482F372F262F660F771F881F991F660F29
:10369000771F881F991F620F731F841F951F660F66
:1036A000771F881F991F08957AE0979F902D879F15
:1036B000802D910D11240895BB27FA01A62F6217C2
:1036C000710581059105330B30FB66F0AA27660F63
:1036D000771F881F991FAA1FA21710F0A21B6395BE
:1036E0003850A9F7A05DAA3308F0A95DA19336F779
:1036F000B111B1931082CA010C941220BB27FB01B7
:103700005527AA27880F991FAA1FA41710F0A41BDA
:1037100083955051B9F7A05DAA3308F0A95DA19334
:10372000009779F7B111B1931192CB010C9412204B
:10373000AEE0B0E0EEE9FBE10C9410228C01CA018E
:103740004EE04C831A83098377FF02C060E070E883
:10375000FB013197FE83ED83A901BC01CE010196E7
:103760000E94C41B4D815E8157FD0AC02F813885A0
:10377000421753070CF49A01F801E20FF31F10826D
:103780002E96E4E00C942C22ACE0B0E0EAECFBE1F5
:103790000C9402227C016B018A01FC0117821682C3
:1037A000838181FFBDC1CE0101964C01F701938158
:1037B000F60193FD859193FF81916F01882309F4B0
:1037C000ABC1853239F493FD859193FF81916F01EF
:1037D000853229F4B70190E00E942220E7CF512CD6
:1037E000312C20E02032A0F48B3269F030F48032AA
:1037F00059F0833269F420612CC08D3239F0803366
:1038000039F4216026C02260246023C0286021C0D2
:1038100027FD27C030ED380F3A3078F426FF06C078
:10382000FAE05F9E300D1124532E13C08AE0389EBB
:10383000300D1124332E20620CC08E3221F426FD6F
:103840006BC1206406C08C3611F4206802C0883633
:1038500041F4F60193FD859193FF81916F018111F0
:10386000C1CF982F9F7D9554933028F40C5F1F4F44
:10387000FFE3F9830DC0833631F0833771F0833570
:1038800009F05BC022C0F801808189830E5F1F4F61
:1038900044244394512C540115C03801F2E06F0EBA
:1038A000711CF801A080B18026FF03C0652D70E077
:1038B00002C06FEF7FEFC5012C870E9407202C010B
:1038C00083012C852F77222E17C03801F2E06F0E6E
:1038D000711CF801A080B18026FF03C0652D70E047
:1038E00002C06FEF7FEFC5012C870E94FC1F2C01E7
:1038F0002C852068222E830123FC1BC0832D90E0A1
:1039000048165906B0F4B70180E290E00E942220E8
:103910003A94F4CFF50127FC859127FE81915F0150
:10392000B70190E00E94222031103A94F1E04F1A42
:1039300051084114510471F7E5C0843611F08936FD
:1039400039F5F80127FF07C0608171818281938179
:103950000C5F1F4F08C060817181072E000C880B1F
:10396000990B0E5F1F4F2F76722E97FF09C090950F
:103970008095709561957F4F8F4F9F4F2068722E75
:103980002AE030E0A4010E945A20A82EA81844C0C2
:10399000853729F42F7EB22E2AE030E025C0F22FA1
:1039A000F97FBF2E8F36C1F018F4883579F0B4C096
:1039B000803719F0883721F0AFC02F2F2061B22E49
:1039C000B4FE0DC08B2D8460B82E09C024FF0AC040
:1039D0009F2F9660B92E06C028E030E005C020E198
:1039E00030E002C020E132E0F801B7FE07C060819C
:1039F0007181828193810C5F1F4F06C0608171814C
:103A000080E090E00E5F1F4FA4010E945A20A82E74
:103A1000A818FB2DFF777F2E76FE0BC0372D3E7F3B
:103A2000A51450F474FE0AC072FC08C0372D3E7E07
:103A300005C0BA2C372D03C0BA2C01C0B52C34FFF9
:103A40000DC0FE01EA0DF11D8081803311F4397E35
:103A500009C032FF06C0B394B39404C0832F8678A4
:103A600009F0B39433FD13C030FF06C05A2CB314D1
:103A700018F4530C5B18B32CB31468F4B70180E24C
:103A800090E03C870E942220B3943C85F5CFB3148C
:103A900010F43B1801C0312C34FF12C0B70180E391
:103AA00090E03C870E9422203C8532FF17C031FD08
:103AB00003C088E790E002C088E590E0B7010CC041
:103AC000832F867859F031FF02C08BE201C080E27B
:103AD00037FD8DE2B70190E00E942220A51438F452
:103AE000B70180E390E00E9422205A94F7CFAA9475
:103AF000F401EA0DF11D8081B70190E00E942220BF
:103B0000A110F5CF332009F451CEB70180E290E047
:103B10000E9422203A94F6CFF7018681978102C055
:103B20008FEF9FEF2C96E2E10C941E224F925F9252
:103B30006F927F929F92AF92BF92CF92DF92EF925D
:103B4000FF920F931F93CF93DF93CDB7DEB72997E3
:103B50000FB6F894DEBF0FBECDBF6A01122FB02E94
:103B60002BE3201720F0FF24F394F00E02C0BCE3F7
:103B7000FB2E0F2D27E0AE014F5F5F4F0E94241FE9
:103B8000AC018981982F9970913031F0E1FC06C029
:103B9000E0FE06C090E205C09DE203C09BE201C0CA
:103BA00090E0EE2DE07183FF3CC0911102C083E0F4
:103BB00001C084E0811718F4212F281B01C020E0E8
:103BC000E1110BC0F601822F30E2882319F0319306
:103BD0008150FBCFC20ED11C20E0992329F0D601E1
:103BE0009C93F60131966F01C6010396E2FE0AC06E
:103BF0003EE4D6013C9341E411964C931197129602
:103C00003C9306C03EE6F601308341E641833283B1
:103C1000FC01322F40E2332309F442C0419331507A
:103C2000FACF82FF44C0911102C083E001C084E05A
:103C3000811718F4212F281B01C020E0E1110BC0CF
:103C4000F601822F30E2882319F031938150FBCFA7
:103C5000C20ED11C20E0992329F0D6019C93F601D5
:103C600031966F01C6010396E2FE0BC039E4D6011E
:103C70003C933EE411963C93119736E412963C93A4
:103C800007C039E6F60130833EE6318336E63283FB
:103C9000FC01322F40E2332319F041933150FBCF26
:103CA000FC01E20FF11D10828EEF9FEFB7C0F1E033
:103CB000911101C0F0E06F2F70E01416150624F486
:103CC0009A012F5F3F4F02C021E030E0260F371FDF
:103CD000BB2029F06B2D70E06F5F7F4F02C060E06A
:103CE00070E0260F371F612F70E0261737071CF48E
:103CF000121B212F01C020E03E2D387159F4D6014E
:103D0000322F60E2332319F06D933150FBCFC20E96
:103D1000D11C20E0FF2331F0D6019C93B6016F5FE8
:103D20007F4F6B01E1110BC0F601922F30E3992315
:103D300019F031939150FBCFC20ED11C20E09F2D82
:103D4000940F3A81782F7071A72E84FF03C031330E
:103D500009F49150191624F4993018F098E001C034
:103D600091E0E42F852F57FF02C0E0E080E06E2F46
:103D7000782FE0E0F0E0AEE29A2E3A01691A71087D
:103D80002A01461A570A0B2D10E0119501951109C9
:103D90006F3F8FEF780729F4D6019C92C6010196F8
:103DA0006C014617570784F0661677066CF47F019E
:103DB000E40CF51CA1E0B0E0AC0FBD1FEA0EFB1E49
:103DC000D7011196BC9002C090E3B92E61507109E1
:103DD0003196C60101967C016017710724F0D60167
:103DE000BC926C01D5CF6417750741F4363320F4CB
:103DF000353321F4A11002C081E3B82EF601B08260
:103E0000F701822F90E2882319F091938150FBCF24
:103E1000F701E20FF11D108280E090E029960FB6C5
:103E2000F894DEBF0FBECDBFDF91CF911F910F91F0
:103E3000FF90EF90DF90CF90BF90AF909F907F90DA
:103E40006F905F904F900895283008F027E0332757
:103E5000DA01990F311D87FD9160009661057105AA
:103E600039F432602E5F3D9330E32A95E1F70895EF
:103E70009F3F30F080387105610509F03C5F3C5F81
:103E80003D93913008F08068911DDF93CF931F938D
:103E90000F93FF92EF92192F987F9695E92F9695A1
:103EA0009695E90FFF27EF53FB4F99273327EE2411
:103EB000FF24A701E70105900894079428F4360F22
:103EC000E71EF81E491F511D660F771F881F991F97
:103ED0000694A1F70590079428F4E70EF81E491FF1
:103EE000561FC11D770F881F991F661F0694A1F7E3
:103EF0000590079428F4F80E491F561FC71FD11DBF
:103F0000880F991F661F771F0694A1F705900794E5
:103F100020F4490F561FC71FD81F990F661F771F20
:103F2000881F0694A9F784911095177041F0D695D3
:103F3000C79557954795F794E7941A95C1F7E7E623
:103F4000F4E06894159015913591659195910590DF
:103F50007FE27395E118F10A430B560BC90BD009A8
:103F6000C0F7E10CF11E431F561FC91FD01D7EF480
:103F7000703311F48A95E6CFE894015030F0080FC1
:103F80000AF40027021708F4202F2395022F7A3312
:103F900028F079E37D932A95E9F710C07D932A955F
:103FA00089F6069497956795379517951794E118B4
:103FB000F10A430B560BC90BD00998F023957E915B
:103FC00073957A3308F070E37C932013B8F77E91F1
:103FD00070617D9330F0839571E37D9370E32A9552
:103FE000E1F71124EF90FF900F911F91CF91DF9196
:103FF000992787FD90950895FC01059061507040C8
:104000000110D8F7809590958E0F9F1F0895FC01A1
:104010006150704001900110D8F7809590958E0FF7
:104020009F1F0895DC01FC01672F71917723E1F751
:10403000329704C07C916D9370836291AE17BF0775
:10404000C8F308950F931F93CF93DF93FB01238150
:1040500021FD03C08FEF9FEF28C022FF16C04681CD
:104060005781248135814217530744F4A081B181DF
:104070009D012F5F3F4F318320838C9326813781B1
:104080002F5F3F4F3783268310C0EB01092F182F76
:104090000084F185E02D0995892BE1F68E819F81C1
:1040A00001969F838E83812F902FDF91CF911F9157
:1040B0000F910895FA01AA27283051F1203181F19A
:1040C000E8946F936E7F6E5F7F4F8F4F9F4FAF4F20
:1040D000B1E03ED0B4E03CD0670F781F891F9A1F33
:1040E000A11D680F791F8A1F911DA11D6A0F711DE7
:1040F000811D911DA11D20D009F468943F912AE0F3
:10410000269F11243019305D3193DEF6CF010895DA
:10411000462F4770405D4193B3E00FD0C9F7F6CF0B
:10412000462F4F70405D4A3318F0495D31FD4052D3
:10413000419302D0A9F7EACFB4E0A6959795879569
:1041400077956795BA95C9F7009761057105089548
:104150009B01AC010A2E06945795479537952795F4
:10416000BA95C9F7620F731F841F951FA01D08958C
:104170000E94FA2008F481E00895E89409C097FBB2
:104180003EF490958095709561957F4F8F4F9F4F2E
:104190009923A9F0F92F96E9BB279395F695879572
:1041A00077956795B795F111F8CFFAF4BB0F11F435
:1041B00060FF1BC06F5F7F4F8F4F9F4F16C08823DC
:1041C00011F096E911C0772321F09EE8872F762F12
:1041D00005C0662371F096E8862F70E060E02AF053
:1041E0009A95660F771F881FDAF7880F969587953F
:1041F00097F90895990F0008550FAA0BE0E8FEEF14
:1042000016161706E807F907C0F012161306E4079A
:10421000F50798F0621B730B840B950B39F40A2693
:1042200061F0232B242B252B21F408950A2609F471
:10423000A140A6958FEF811D811D08950E94312117
:104240000C94A2210E94942138F00E949B2120F01E
:10425000952311F00C948B210C94912111240C9432
:10426000D6210E94B32170F3959FC1F3950F50E0C2
:10427000551F629FF001729FBB27F00DB11D639F18
:10428000AA27F00DB11DAA1F649F6627B00DA11DBE
:10429000661F829F2227B00DA11D621F739FB00D64
:1042A000A11D621F839FA00D611D221F749F3327D4
:1042B000A00D611D231F849F600D211D822F762F6D
:1042C0006A2F11249F5750409AF0F1F088234AF04A
:1042D000EE0FFF1FBB1F661F771F881F91505040B6
:1042E000A9F79E3F510580F00C948B210C94D621A8
:1042F0005F3FE4F3983ED4F3869577956795B7953D
:10430000F795E7959F5FC1F7FE2B880F911D969556
:10431000879597F9089597F99F6780E870E060E0C6
:1043200008959FEF80EC089500240A94161617064E
:1043300018060906089500240A9412161306140696
:1043400005060895092E0394000C11F4882352F0F9
:10435000BB0F40F4BF2B11F460FF04C06F5F7F4FB1
:104360008F4F9F4F089557FD9058440F551F59F098
:104370005F3F71F04795880F97FB991F61F09F3F52
:1043800079F087950895121613061406551FF2CF7B
:104390004695F1DF08C0161617061806991FF1CFCB
:1043A00086957105610508940895E894BB276627F2
:1043B0007727CB0197F90895DC01CB01FC01F9992E
:1043C000FECF06C0F2BDE1BDF89A319600B40D9261
:1043D00041505040B8F70895F999FECF92BD81BD84
:1043E000F89A992780B50895262FF999FECF1FBA1C
:1043F00092BD81BD20BD0FB6F894FA9AF99A0FBE0E
:10440000019608952F923F924F925F926F927F9202
:104410008F929F92AF92BF92CF92DF92EF92FF92D4
:104420000F931F93CF93DF93CDB7DEB7CA1BDB0B80
:104430000FB6F894DEBF0FBECDBF09942A88398825
:1044400048885F846E847D848C849B84AA84B9842C
:10445000C884DF80EE80FD800C811B81AA81B98138
:10446000CE0FD11D0FB6F894DEBF0FBECDBFED014C
:064470000895F894FFCF4F
:1044760000FCE1A8A81806D205110500000305EF07
:1044860004930647062C082C08FFCE060000C90434
:104496002803000074038000000000009D126612CD
:1044A600F107CF07E307E4126263006661696C00F7
:1044B6006F6B00210048656174657246616E204C21
:1044C6006976696E6700322E300050696E3A2000B8
:1044D600207265717565737465644C6576656C3AB2
:1044E60020000D0A004661696C656420726561648E
:1044F600696E672074656D7065726174757265208A
:1045060066726F6D204448540054656D703A200001
:104516004661696C65642072656164696E672068CE
:10452600756D69646974792066726F6D20444854AC
:104536000048756D69646974793A20006E616E0091
:10454600696E66006F7666002E00322E302E3000C1
:00000001FF
