:100000000C9415030C94F8190C941F1A0C943D03CE
:100010000C943D030C943D030C94FD040C943D039F
:100020000C943D030C943D030C943D030C943D0350
:100030000C943D030C943D030C943D030C943D0340
:100040000C94461A0C943D030C941C1D0C944E1DEC
:100050000C943D030C943D030C943D030C943D0320
:100060000C943D030C943D0349443A2025642076CA
:1000700069612025640A004E6F64652072656769B6
:100080007374726174696F6E3D25640A004E4F444B
:10009000453A215245470A005265717565737420CF
:1000A000726567697374726174696F6E2E2E2E0AA1
:1000B00000496E697420636F6D706C6574652C20E7
:1000C00069643D25642C20706172656E743D256401
:1000D0002C2064697374616E63653D25642C207205
:1000E0006567697374726174696F6E3D25640A0097
:1000F0005374617274696E672072657065617465AE
:10010000722028524E4E52412D2C20322E302E304D
:10011000290A0025735453503A4D53473A53454EDC
:10012000442025642D25642D25642D256420733DF0
:1001300025642C633D25642C743D25642C70743D2E
:1001400025642C6C3D25642C73673D25642C6674F6
:100150003D25642C73743D25733A25730A0054536E
:10016000503A4D53473A52454C2050784E4720283C
:10017000686F70733D2564290A005453503A4D53FB
:10018000473A52454C204D53470A005453503A4D7C
:1001900053473A465744204243204D53470A0054A0
:1001A00053503A4D53473A47574C204F4B0A00544F
:1001B00053503A4D53473A465041522052455120F0
:1001C0002873656E6465723D2564290A0054535096
:1001D0003A4D53473A42430A005453503A4D53471D
:1001E0003A504F4E4720524543562028686F70734F
:1001F0003D2564290A005453503A4D53473A50491B
:100200004E474544202849443D25642C20686F70A2
:10021000733D2564290A005453503A4D53473A50D0
:100220004152204F4B202849443D25642C206469CD
:1002300073743D2564290A005453503A4D53473A8C
:100240004650415220524553202849443D25642CB4
:1002500020646973743D2564290A005453503A4D53
:1002600053473A41434B206D73670A002154535062
:100270003A4D53473A50564552206D69736D61743B
:1002800063680A005453503A4D53473A524541442B
:100290002025642D25642D256420733D25642C6361
:1002A0003D25642C743D25642C70743D25642C6CB4
:1002B0003D25642C73673D25643A25730A00545329
:1002C000503A4352543A4F4B0A005453503A504913
:1002D0004E473A53454E442028646573743D256467
:1002E000290A00215453503A53454E443A544E5231
:1002F0000A00215453503A524F5554494E473A44FC
:1003000045535420554E4B4E4F574E20286465732D
:10031000743D25642C205354503D2564290A002146
:100320005453503A465041523A414354495645205D
:10033000286D7367206E6F742073656E64290A00E0
:10034000215453503A41535349474E49443A464148
:10035000494C202849443D2564290A005453503A09
:1003600041535349474E49443A4F4B202849443D55
:100370002564290A005453503A43484B55504C3A8F
:100380004641494C2028686F70733D2564290A0056
:100390005453503A43484B55504C3A4447574320E6
:1003A000286F6C643D25642C6E65773D25642900BB
:1003B0005453503A43484B55504C3A4F4B0A005413
:1003C00053503A43484B55504C3A4F4B2028464CDB
:1003D000444354524C290A005453503A53414E431B
:1003E000484B3A4F4B0A00215453503A53414E4325
:1003F000484B3A4641494C0A0054534D3A504454F4
:100400000A002154534D3A4641494C5552450A0081
:100410002154534D3A55504C204641494C2C2053C1
:100420004E500A0054534D3A52454144590A002156
:1004300054534D3A55504C3A4641494C0A00545396
:100440004D3A55504C3A4F4B0A0054534D3A555083
:100450004C0A002154534D3A43484B49443A4641D3
:10046000494C202849443D2564290A0054534D3AFB
:1004700043484B49443A4F4B202849443D25642981
:100480000A0054534D3A49440A002154534D3A4608
:100490005041523A4641494C0A0054534D3A465055
:1004A00041523A4F4B0A0054534D3A465041520A7A
:1004B0000054534D3A524144494F3A4F4B0A0021A0
:1004C00054534D3A524144494F3A4641494C0A002F
:1004D00054534D3A494E49540A00000000080002A6
:1004E00001000003040700000000000000000102FA
:1004F00004081020408001020408102001020408B2
:10050000102004040404040404040202020202028F
:1005100003030303030300000000250028002B0051
:1005200000000000240027002A0000407A10F35A3F
:1005300000A0724E18090010A5D4E80000E8764823
:10054000170000E40B54020000CA9A3B000000E1CF
:10055000F505000080969800000040420F00000062
:10056000A08601000000102700000000E803000042
:1005700000006400000000000A000000000001000C
:10058000000000002C76D888DC674F0823DFC1DF2D
:10059000AE59E1B1B796E5E3E453C63AE651997630
:1005A00096E8E6C28426EB898C9B62ED407C6FFC6A
:1005B000EFBC9C9F40F2BAA56FA5F490055A2AF7AC
:1005C0005C936B6CF9676DC11BFCE0E40D47FEF5B5
:1005D00020E6B500D0ED902E03009435770500801D
:1005E000841E080000204E0A000000C80C3333337C
:1005F000330F986E12831141EF8D2114893BE6551C
:1006000016CFFEE6DB18D1844B381BF77C1D901DFE
:10061000A4BBE424203284725E228100C9F124EC60
:10062000A1E53D27C0077E1DCF0711241FBECFEFD8
:10063000D8E0DEBFCDBF11E0A0E0B1E0EEE0F4E530
:1006400002C005900D92A43DB107D9F723E0A4EDB7
:10065000B1E001C01D92A734B207E1F716E0C8E28D
:10066000D6E004C02297FE010E94F821C432D107CF
:10067000C9F70E94C8110C94FA290C94000010923A
:10068000D40108958091D401811107C081E0809345
:10069000D40185ED91E00E94951485ED91E00C94D4
:1006A000DD198EBD00000DB407FEFDCF8EB5089597
:1006B000BF92CF92DF92EF92FF920F931F93CF934F
:1006C000DF93C82F8B01C42EB22E80919B0288230A
:1006D00099F03FB7F89480919B02813059F48DB323
:1006E000809399028DB390919A02909598239DBB27
:1006F0003FBF02C03093990281E58CBD81E08DBD82
:1007000060E08AE00E94A11B8AE090E00E94F91A52
:100710008C2F0E945103D82EE801CC20B9F0BB20C9
:1007200051F08FEF0E945103D82E0115110561F091
:100730008883219609C07E018FEFE81AF80A888124
:100740000E945103D82EE701CA94E7CF61E08AE006
:100750000E94A11B80919B02882361F09FB7F894AF
:1007600020919B0280919902213019F48DBB9FBF8B
:1007700001C08FBF8AE090E00E94F91A8D2DDF91B1
:10078000CF911F910F91FF90EF90DF90CF90BF908E
:100790000895CF93DF931F92CDB7DEB7698320E032
:1007A00041E0BE016F5F7F4F0E9458030F90DF91C1
:1007B000CF91089560E089E00E94A11B6CE080E287
:1007C0000C94C9036FE080E20E94C90360910A01A2
:1007D0006F3F19F08AE20E94C90361E089E00C943E
:1007E000A11B20E040E060E070E00C945803EF9221
:1007F000FF921F93CF93DF931F92CDB7DEB7182FD1
:100800007B0160E089E049830E94A11B82E890E0BF
:100810000E94F91A6EE080E20E94C90384E690E02B
:100820000E94F91A612F8AE20E94C903612F80E3B6
:100830000E94C90381EE0E94F10320E04981B701C3
:1008400080EA0E94580361E089E00E94A11BEE2427
:10085000EA94FE2C8FEF0E94F103182F807351F45D
:10086000970121503109EF2811F07901F3CFEE24DF
:10087000EA94FE2C60E089E00E94A11B60E387E21D
:100880000E94C90314FF03C081EE0E94F1030E947D
:10089000E20315FF03C081E0EF2809F480E00F9028
:1008A000DF91CF911F91FF90EF9008951F93CF9309
:1008B000DF93EC0121E041E060E070E080E60E941F
:1008C0005803182F813220F082EE0E94F10310E0CD
:1008D00021E0412FBE0181E60E94580360E487E2D7
:1008E0000E94C903812FDF91CF911F910895CF936B
:1008F00021E041E060E070E086E00E945803C82FEC
:1009000021E041E060E070E085E00E94580391E062
:100910008C3409F090E081E0C73209F080E089234F
:10092000CF910895CF9361E089E00E94681B61E058
:100930008AE00E94681B0E94981260E089E00E9491
:10094000A11B61E08AE00E94A11B6EE080E20E9490
:10095000C90365E070E080E090E00E94BF1A63E0A8
:1009600083E20E94C9036FE584E20E94C9036CE43C
:1009700085E20E94C90367E286E20E94C9030E94E1
:100980007704C82F8823B1F163E780E30E94C9038D
:1009900066E08DE30E94C90362E082E20E94C9031F
:1009A00060E081E20E94C90363E08CE30E94C90316
:1009B0008FEF80930B0120E045E06BE071E08BE26C
:1009C0000E94580320E045E06BE071E08AE20E945B
:1009D000580320E045E06BE071E080E30E9458039B
:1009E00082EE0E94F10381EE0E94F10360E787E24C
:1009F0000E94C9038C2FCF9108951F920F920FB6BA
:100A00000F9211240F900FBE0F901F9018958EE437
:100A100080937C0066E470E080E090E00E94BF1A62
:100A200080917A00806480937A0080917A0086FDBC
:100A3000FCCF209178003091790040E050E064EBE9
:100A40007BE281E190E00E94AA21C9010895F89417
:100A50008FEF86BB10928500109284001092800068
:100A600010928200209160003DE088E190E00FB696
:100A7000F894A895809360000FBE30936000809139
:100A80006000806480936000A89585E08093810079
:100A90008091600087FFFCCF10928100A895809123
:100AA000600088618093600020936000789460917A
:100AB00084007091850080E090E02BE0660F771F46
:100AC000881F991F2A95D1F720EA36E841E050E0C7
:100AD0000E94AA21C9010895CF93DF9300D0CDB71A
:100AE000DEB720914303309144032115310511F401
:100AF00027E433E0CE010196821B930B0F900F90F9
:100B0000DF91CF9108952091880230918902409120
:100B10008F022817390741F0407F40938F0290934E
:100B200089028093880208C091E0940F9F70842FFF
:100B3000807F892B80938F02E0918802F091890257
:100B40000190F081E02D309709F009950E94901AEC
:100B500060938A0270938B0280938C0290938D0233
:100B600008950F931F930E94901A00918A0210918A
:100B70008B0220918C0230918D02601B710B820BD5
:100B8000930B1F910F9108950E94B1056131774237
:100B90008105910520F084E291E00C94830508958D
:100BA000E0918802F09189020280F381E02D309774
:100BB00009F00994089580E191E09093890280936F
:100BC000880284E291E00C9483058F3F51F080937A
:100BD0000A0163E082E20E94C90361E081E20E94AF
:100BE000C9030C94E203FC011282668345830895D5
:100BF0006F706A3010F480E301C087E3860F0895B8
:100C00009F92AF92BF92CF92DF92EF92FF920F939B
:100C10001F93CF93DF93EC018B01912C8B818695F1
:100C200086958695981638F5C92CD12C7601EE0C50
:100C3000FF1C5801AE0CBF1CCC0EDD1EF6016781F7
:100C4000772767FD7095F4E075956795FA95E1F75C
:100C5000CE010E94F805F5018083FFEFEF1AFF0A2D
:100C6000E00EF11EF6016781CE010E94F805F70142
:100C700080839394D3CFF801E80FF11DE80FF11DA5
:100C80001082C801DF91CF911F910F91FF90EF90DB
:100C9000DF90CF90BF90AF909F9008950F931F93D8
:100CA000CF93DF938C01EB01FC01848182958695C3
:100CB0008770209709F462C0811115C04381469561
:100CC0004695469550E0B801695F7F4FCE010E947E
:100CD0000524F8018381869586958695FE01E80FA7
:100CE000F11D10824EC0813029F4F80187814AE05D
:100CF00090E006C0823039F44AE0F801878190859F
:100D00000E9414243EC0833039F44AE0F801878100
:100D100090850E946D2435C0843051F4F8016781BC
:100D20007085818592852AE0AE010E941F2429C02A
:100D3000853051F4F80167817085818592852AE0BC
:100D4000AE010E944B241DC0873079F4F801238541
:100D5000293008F028E0F801678170858185928547
:100D60008E0142E00E940B220CC0863051F4C80173
:100D7000DF91CF911F910F910C94000680E090E0DD
:100D800001C0CE01DF91CF911F910F910895FC0119
:100D90002481229526952770213011F487810895AA
:100DA000211104C007960E94B023089580E00895A1
:100DB0000E94C70691E0811101C090E0892F08953B
:100DC000CF93DF93EC018D8182508230B0F58E811C
:100DD000843038F4BE0185ED91E0DF91CF910C9421
:100DE00024186CE271E086EA92E00E94FF1D4AE05E
:100DF00050E06E8186EA92E00E94E41E68E471E0B1
:100E000086EA92E00E94FF1DCE010E94D806682F5C
:100E100070E04AE050E086EA92E00E94BF1ECE01F8
:100E20000E94D8066E8170E064507109482F85EDEC
:100E300091E0DF91CF910C945316DF91CF910895FB
:100E4000FC012481229526952770253029F467819D
:100E50007085818592850895211103C007960C94B1
:100E6000CE2360E070E0CB010895CF93DF93EC01D7
:100E70008C818F71806C8C83842F90E09C01A3E027
:100E8000220F331FAA95E1F73B813770322B3B834A
:100E9000493110F4AC0102C049E150E0CE0107969F
:100EA0000E94F523CE01DF91CF9108950F931F93F8
:100EB000CF93DF93EC016115710561F0FB010190A7
:100EC0000020E9F73197E61BF70BE931F10518F03F
:100ED000E9E101C0E0E00E2F10E0C801B3E0880FA7
:100EE000991FBA95E1F79B819770982B9B838C8112
:100EF0008F718C83EE2329F0A801CE0107960E9402
:100F00000524FE01E00FF11F1782CE01DF91CF9182
:100F10001F910F910895FC018381877088608383FE
:100F200084818F71806284836783CF010895FC017F
:100F300084818F71806A84838381877080628383D8
:100F40004783508761877287CF010895FC018481B0
:100F50008F718066848383818770806183837087CB
:100F60006783CF010895FC0184818F71806484833D
:100F7000838187708061838370876783CF01089541
:100F80000F93109265021092440203E022E041E0C8
:100F900060E085ED91E00E9451140F91089585ED78
:100FA00091E00C941D13CF93DF93CDB7DEB7CC52F5
:100FB000D1400FB6F894DEBF0FBECDBFFE01EF5C8F
:100FC000FE4F419151919F016BE271E0CE0101967C
:100FD0000E948724BE016F5F7F4F86EA92E00E94E5
:100FE000FF1D86EA92E00E94331CC45DDE4F0FB6FF
:100FF000F894DEBF0FBECDBFDF91CF9108950E9460
:10100000B105613D77408105910520F480918E0204
:1010100081FF0895809185028F3FC1F08AE994E0B5
:101020009F938F930E94D30780918E028E7F80932F
:101030008E020F900F9080E090E0892B21F085E0E8
:1010400090E00E9400008CE191E022C00E94B10576
:10105000613D774081059105E8F080918F028F70A6
:1010600090E003971CF480E291E012C08AE894E0DB
:101070009F938F930E94D3070F900F9080E090E092
:10108000892B21F088E690E00E94000080E191E049
:101090000C9483050895809184028F3FB9F01F92CC
:1010A0008F938CE694E09F938F930E94D3070F90C9
:1010B0000F900F900F9080E090E0892B21F087E057
:1010C00090E00E94000088E191E028C00E94B105F4
:1010D000613D77408105910518F180918F028F70F5
:1010E00090E003971CF48CE191E018C08091840299
:1010F0001F928F9383E594E09F938F930E94D30771
:101100000F900F900F900F9080E090E0892B21F0CE
:1011100089E690E00E94000080E191E00C94830554
:10112000089584E294E09F938F930E94D307EEE8A2
:10113000F2E08081846080830F900F900895809109
:101140008F0282958F7090E00B9764F080E194E0BD
:101150009F938F930E94D3070F900F9080E291E0AE
:101160000C948305089582E094E09F938F930E94EE
:10117000D30780918E028B7F8F7E80938E020F909B
:101180000F9080E090E0892B21F087E690E00E94AC
:10119000000089EF93E09F938F930E94D3070F90F5
:1011A0000F900C94DA03CF93C82F8FEF8C0F8E3FE4
:1011B000C0F4C09384028C2F0E94E5056C2F80E060
:1011C00090E00E949D261F92CF938CE593E09F9321
:1011D0008F930E94D3070F900F900F900F90CF9195
:1011E00008951F92CF9380E493E09F938F930E9482
:1011F000D3070F900F900F900F9080E090E0892B15
:1012000021F08CE690E00E94000080E191E0CF9117
:101210000C94830580ED94E09F938F930E94D307F5
:1012200080918F028F7080938F0280918E02877FD2
:101230008F7E80938E020E94901A60939102709329
:1012400092028093930290939402109295021092CE
:101250009602109297021092980243E050E060E0EC
:1012600070E084E892E00E9485260E9492040F902C
:101270000F90811113C08FEB94E09F938F930E9486
:10128000D3070F900F9080E090E0892B21F087E644
:1012900090E00E94000080E191E015C081EB94E0B5
:1012A0009F938F930E94D30780918E0280618093D9
:1012B0008E02809184020F900F908F3F11F00E9458
:1012C000D30880E291E00C948305CF93DF93C3E0D1
:1012D000D0E06FEFCE010E949D262196C23081E0C2
:1012E000D807B9F78EEB92E09F938F930E94D307B4
:1012F0000F900F90DF91CF910895CF92DF92EF92F0
:10130000FF920F931F93CF93DF93182FEB014B8125
:101310004C7F42604B8380918402888342FD05C0EC
:10132000042F06950695069501C000E220E030E006
:10133000232B21F080E090E00E940000202F30E07D
:101340002A3131051CF447E0400F01C040E2BE01E4
:10135000812F0E94F703082F6EE072E0CE010E94F9
:101360004E061F3F29F0002331F04FE551E005C044
:101370004CE551E002C047E551E060918F02629573
:101380006F702B8122FBCC24C0F8D22ED694D69439
:10139000D6942C81E22EE294E69437E0E322FD809D
:1013A000B22FB770AE81FA81E8817981011102C054
:1013B0001F3F19F427EC31E002C022E631E09F9391
:1013C0008F935F934F931F926F931F92CF921F92B1
:1013D000DF921F92EF921F92FF921F92BF931F9274
:1013E000AF931F92FF931F921F931F92EF931F9231
:1013F0007F933F932F9323E131E03F932F930E94FC
:10140000D3078DB79EB74E960FB6F8949EBF0FBE0A
:101410008DBF81E0011103C01F3F09F080E0DF9123
:10142000CF911F910F91FF90EF90DF90CF90089593
:10143000FF920F931F93CF93DF93EC01FA8080917B
:101440008E0280FF0CC08FEFF81691F18FE193E0D0
:101450009F938F930E94D3070F900F9040C0F1107D
:1014600003C0F090850224C08FEFF81609F10F2D0C
:1014700010E0C80103960E9495268F3FC1F4809129
:10148000850298819817A1F01F928F931F93FF9266
:1014900082EF92E09F938F930E94D307F090850292
:1014A0000F900F900F900F900F900F9001C0F82E9B
:1014B000BE018F2D0E947D0990918502F91217C0FF
:1014C00081110FC080E090E0892B21F085E690E04B
:1014D0000E94000080918F02805F80938F0280E0E5
:1014E00006C080918F028F7080938F0281E0DF9120
:1014F000CF911F910F91FF90089587EA94E09F93F9
:101500008F930E94D30780918E028D7F90918F02DE
:101510009F7090938F0281608B7F80938E028FEFFC
:1015200080938602809385020F900F9080E090E078
:10153000892B21F084E090E00E94000080918402D9
:10154000809343028FEF809344028093480287E0A8
:101550008093470280914602807E8360809346029A
:1015600067EC71E082E492E00E9456070C94180A3E
:1015700082E894E09F938F930E94D3070F900F907F
:10158000809184028F3F11F580E090E0892B21F05B
:1015900086E090E00E9400008091840280934302E4
:1015A000109244028FEF8093480283E080934702B9
:1015B00080914602807E83608093460267EC71E0F2
:1015C00082E492E00E9456070C94180A0895209134
:1015D0008E0222FD0C94180A83EE92E09F938F9363
:1015E0000E94D3070F900F9080E008950C94E70AB3
:1015F0000E94B105AB01BC0180918402809343023B
:10160000109244028FEF8093480286E18093470254
:10161000E6E4F2E08081807E8360808382E492E071
:101620000E9497070C94F60A962F8F3F19F464E6F0
:1016300071E001C0BA0130918402309343021092EC
:101640004402809348029093470288E0289F9001CB
:10165000112480914602807F822B8F7E80934602E8
:1016600082E492E00E9456070C94F60A0F931F93AF
:10167000CF93DF931F92CDB7DEB78B01009709F1AF
:101680002091840220934302109244022FEF209372
:1016900048022BE02093470250914602507F53604E
:1016A00068E0469F90011124522B5F7E50934602C2
:1016B000BC0182E492E049830E9456070E94F60A28
:1016C00049810115110521F1809184028093430223
:1016D000109244028FEF809348028CE0809347027F
:1016E00080914602807F836098E0499FA001112489
:1016F000842B8F7E80934602B80182E492E00E94A0
:1017000056070F90DF91CF911F910F910C94F60A1D
:101710000F90DF91CF911F910F910895CF9320E00B
:1017200047EC51E064E080E00E94140B20E047ECBD
:1017300051E064E081E00E94140B20E047EC51E0AE
:1017400064E082E00E94140B20E047EC51E064E08A
:1017500083E00E94140BC5E020E047EC51E063E019
:101760008C2F0E94140BCF5FC930B1F740E06AE6BE
:1017700071E08CE691E0CF910C94360BCF93DF9320
:10178000EC018091840289836A838FEF8E838FE0DE
:101790008D838C81807E83608C8367EC71E0CE01C9
:1017A0000E9456078B81877080618B838C818F713B
:1017B000806C8C8381E08F831886CE01DF91CF917E
:1017C0000C94E70A20918402FC0121832481207F6C
:1017D0002160F8E06F9FB0011124262BFC012483C7
:1017E0002091410221110C94E70A8DE890E09F932B
:1017F0008F930E94D3070F900F9080E008950F936E
:101800001F93811113C00E94901A009195021091AC
:1018100096022091970230919802601B710B820B07
:10182000930B6031774281059105E8F180E00E94D9
:101830002212182F8F3F49F10E94901A609395024F
:1018400070939602809397029093980220EB33E076
:101850003F932F930E94D307809186020F900F90A1
:10186000181749F11F921F931F928F9320E933E0BD
:101870003F932F930E94D307109386020F900F90EF
:101880000F900F900F900F9016C01F921F9385E737
:1018900093E09F938F930E94D3070F900F900F9028
:1018A0000F9080E009C08FEB93E09F938F930E948D
:1018B000D3070F900F9081E01F910F910895AF9281
:1018C000BF92DF92EF92FF920F931F93CF93DF931C
:1018D00000D0CDB7DEB783E692E00E94560480E0E8
:1018E00090E0892B21F081E090E00E940000D090F0
:1018F00067020091680210916402F0906302E09028
:1019000065026EE072E083E692E00E944E0630913E
:10191000660220916702A12EB12C9F938F9332FB18
:10192000882780F91F928F933695369536951F92AA
:101930003F93822F8295869587701F928F931F9277
:101940000F9327701F922F93809169021F928F939C
:101950001F92EF921F92FF921F921F9384E892E0D2
:101960009F938F930E94D30780916602982F937064
:101970000FB6F894DEBF0FBECDBF923089F080E085
:1019800090E0892B21F08BE690E00E9400008CE62D
:1019900092E09F938F930E94D3070F900F90F4C112
:1019A0003D2D3770D32E90918402E912FDC0E82FAF
:1019B000E770869586958695893120F4880F880F83
:1019C000880F01C088ECE82BE0936602E695E69567
:1019D000E695F0E0ED59FD4F178280918502F816EB
:1019E00029F06F2DC50103960E949D268091670204
:1019F00083FF21C081E2E3E6F2E0A2E4B2E00190DD
:101A00000D928A95E1F780914602877F80618093ED
:101A100046028091840280934302109344028BE536
:101A200092E09F938F930E94D30782E492E00E94FA
:101A3000E70A0F900F908091670284FDA1C083E0B8
:101A4000D8129EC0043089F483E692E00E94C70653
:101A50000F900F90DF91CF911F910F91FF90EF901A
:101A6000DF90BF90AF900C94D3080830D9F583E68F
:101A700092E00E94C7061F928F931F921F9328E344
:101A800032E03F932F938A830E94D3070F900F90E9
:101A90000F900F900F900F908A818F3F09F474C1BF
:101AA0008F5F8F3F09F470C190918602891708F00B
:101AB0006BC190918E0291FD67C180938602109355
:101AC00085021F928F931F921F9387E192E09F934D
:101AD0008F930E94D3070F900F900F900F900F904D
:101AE0000F9052C1083161F583E692E00E94C7066B
:101AF0001F928F931F921F9386EF91E09F938F9376
:101B00000E94D30780918402809343021093440281
:101B10008FEF8093480289E18093470280914602CB
:101B2000807E83608093460261E082E492E00E94BE
:101B30008B070F900F900F900F900F900F900AC18E
:101B40000931D1F480918E0283FF1EC1877F80937B
:101B50008E0283E692E00E94C706809390021F9255
:101B60008F9389ED91E09F938F930E94D3070F90FD
:101B70000F900F900F9008C10E941210811104C1A4
:101B800080EE96E0892B09F4FFC083E692E00F9087
:101B90000F90DF91CF911F910F91FF90EF90DF9009
:101BA000BF90AF900C94E0069FEFE9129BC08DECC4
:101BB00091E09F938F930E94D3070F900F90E3E0E3
:101BC000DE127BC090918E028091850292FF50C000
:101BD000073009F04DC0181709F4D6C01F921F93A3
:101BE0008FEA91E09F938F930E94D307612FC501E5
:101BF00003960E949D2680E00E94FF0B0F900F909D
:101C00000F900F90882309F4BFC00E94901A609330
:101C100095027093960280939702909398028FE9B1
:101C200091E09F938F930E94D3070E94901A737044
:101C3000882799270E94BF1A6091860280918402AA
:101C40008093430210934402E092480288E080931C
:101C5000470280914602807E83608093460282E440
:101C600092E00E948B070F900F900F900F9074C01E
:101C7000043119F5F81221C00E94901A7370882758
:101C800099270E94BF1A60918502809184028093F7
:101C90004302109344028FEF8093480285E18093C2
:101CA000470280914602807E83608093460282E4F0
:101CB00092E00E948B070E94180A80918502F81218
:101CC00008C080918402181721F080918E0282FD55
:101CD0004EC0F3E0DF1609F457C080918502F81278
:101CE00053C04ECF80918E0282FF4EC08AE791E0B2
:101CF0009F938F930E94D3070F900F90809185023E
:101D0000F81629F06F2DC50103960E949D2623E049
:101D1000D2121EC088EE800F8230D0F483E692E0AB
:101D20000E94C7068E3FA1F01F928F932EE531E0EF
:101D30003F932F938A830E94D3078A8161E0680FC3
:101D400083E692E00E948B070F900F900F900F9008
:101D500083E692E00F900F90DF91CF911F910F914A
:101D6000FF90EF90DF90BF90AF900C94180A8BE833
:101D700091E09F938F930E94D30783E692E00E94A5
:101D8000180A0F900F90A5CF0F900F90DF91CF9171
:101D90001F910F91FF90EF90DF90BF90AF9008954B
:101DA0000F931F93CF9380918E0284FF48C00E94AF
:101DB000901A009191021091920220919302309119
:101DC0009402005A15412F4F3F4F06171707280757
:101DD000390728F50E94901A60939102709392023D
:101DE00080939302909394020E94770481110FC014
:101DF00087EE93E09F938F930E94D3070F900F90ED
:101E000080E191E0CF911F910F910C94830588EDB3
:101E100093E09F938F930E94D3070F900F90C6E09B
:101E20008FEF0E94F10390E0959587958770992731
:101E300006972CF4C15019F00E945F0CF1CFCF919E
:101E40001F910F9108950E94D0050C94D00EA89573
:101E50000C94230F8F929F92AF92BF92CF92DF92FA
:101E6000EF92FF926B017C010E94901A4B015C0182
:101E70000E94901A681979098A099B096C157D05D9
:101E80008E059F0518F40E94270FF2CFFF90EF9068
:101E9000DF90CF90BF90AF909F908F9008956F92FA
:101EA0007F928F929F92AF92BF92CF92DF92EF92EA
:101EB000FF92CF93DF934B015C01C42F622E0E94EF
:101EC000901A6B017C0181E0611080E080936802D0
:101ED000712CD0E00E94901A6C197D098E099F091F
:101EE000681579058A059B0590F4711010C00E9451
:101EF000270F40916702477050E04C175D0751F77C
:101F0000809168028611E6CF77247394E3CF872D02
:101F1000DF91CF91FF90EF90DF90CF90BF90AF9087
:101F20009F908F907F906F9008951F93CF93DF9332
:101F300088E990E09F938F930E94D3070F900F90B2
:101F400080E090E0892B21F088E090E00E94000082
:101F500081E080934102C4E0DFEF1AE180918402C6
:101F60008093430210924402D09348021093470298
:101F700080914602807E83608093460262E082E424
:101F800092E00E948B070E94F60A2BE143E060ED8D
:101F900077E080E090E00E944F0F811102C0C150B5
:101FA000E9F6DF91CF911F91089580E090E0892BB1
:101FB00021F08BE090E00E94000060E082E492E07B
:101FC0000E94BE0B20E047EC51E062E18FEF0E94DF
:101FD000140B6091850280918402809343021092D9
:101FE00044028FEF8093480286E0809347028091FD
:101FF0004602807E83608093460282E492E00E94E3
:102000008B070E94F60A26E043E060ED77E080E06F
:1020100090E00E944F0F8EE89BE0892B11F00C940A
:102020008E0B0895CF92DF92EF92FF920F931F9342
:10203000CF93DF9300D01F92CDB7DEB790916802A7
:102040008091640281113DC19D30A1F480E090E057
:10205000892B21F08AE090E00E94000028E088E1CE
:1020600090E00FB6F894A895809360000FBE20937F
:102070006000FFCF9B31E9F483E692E00E94D8062E
:102080008093410280E090E0892B21F089E090E08C
:102090000E940000809141021F928F9387E790E099
:1020A0009F938F930E94D3070F900F900F900F90E4
:1020B000CAC0963079F480916A0261E0882319F0F1
:1020C0008D3409F060E06093870283E091E00E9424
:1020D0009D26B9C0933119F40E94D50FB4C0923136
:1020E00019F40E94F80AAFC0913061F480E090E0EA
:1020F000892B09F4A8C083E692E00E9420070E9481
:102100000000A1C09A3041F580916A02833409F041
:102110009AC080E090E0892B21F08CE090E00E9452
:1021200000000E946509809184028093430210920E
:1021300044028FEF809348028AE0809347028091A7
:102140004602807E8360809346026FE571E082E400
:1021500092E00E94560775C09C3109F0B5C080918D
:102160006A02823509F048C000E010E058E6E52E2A
:1021700050E0F52EDD24DA946CE1C62EC8010396FA
:102180000E9495268F3F91F11F928F931F930F937B
:10219000FF92EF928B830E94D30709838B818A83FE
:1021A000809184028093430210924402D0924802AC
:1021B000C092470280914602807E836080934602EF
:1021C00042E0BE016F5F7F4F82E492E00E943507DC
:1021D0000E94F60A68EC70E080E090E00E942A0F0E
:1021E0000F900F900F900F900F900F900F5F1F4F59
:1021F0000F3F110519F627C0863519F40E9407050F
:1022000009C0863419F40E94270504C08D34E9F40E
:102210000E946C0520918402209343021092440294
:102220002FEF209348022CE1209347022091460291
:10223000207E236020934602BC0182E492E00E944B
:10224000A6070E94F60A81E040C08534E1F780913C
:10225000840280934302109244028FEF80934802DD
:102260008CE18093470280914602807E8360809358
:1022700046026FE571E082E492E00E9456070E94F8
:10228000F60A00E010E06FEFC8010E949D260F5F84
:102290001F4F0D3981E01807B1F780E090E0892BDE
:1022A00021F08AE090E00E94000028E088E190E0C0
:1022B0000FB6F894A895809360000FBE209360003D
:1022C000FFCF81E09A3109F080E00F900F900F90DE
:1022D000DF91CF911F910F91FF90EF90DF90CF9002
:1022E000089526E040E052EC61E070E086EA92E07A
:1022F0000E94BA1C80E090E0892B11F00E9400003F
:1023000080EF90E09F938F930E94D30741E050E0CD
:1023100063E071E087E892E00E9485266FEF81E03C
:1023200090E00E949D260E94DB050F900F90809107
:102330008E0282FD04C0A8950E94230FF8CF8FE380
:1023400093E0892B11F00E943F030E94D50F0E9459
:10235000950F809141021F928F93809186021F9268
:102360008F93809185021F928F93809184021F9298
:102370008F9381EB90E09F938F930E94D3078DB74B
:102380009EB70A960FB6F8949EBF0FBE8DBF0895F4
:102390000E94041B0E947111C2E4D3E004E01CE11E
:1023A0000E94270F209711F00E944203011511058A
:1023B000B9F30E94041CF4CF6F927F928F929F9288
:1023C000AF92BF92CF92DF92EF92FF92CF93DF93C3
:1023D0004B015C01C42F622E0E94901A6B017C019C
:1023E00081E0611080E080936802712CD0E00E944F
:1023F000901A6C197D098E099F09681579058A055F
:102400009B0590F4711010C00E94D00E409167029D
:10241000477050E04C175D0751F7809168028611B4
:10242000E6CF77247394E3CF872DDF91CF91FF9090
:10243000EF90DF90CF90BF90AF909F908F907F9064
:102440006F9008951F93CF93DF931F92CDB7DEB7A0
:1024500090918E0293FD40C0209184028217F1F189
:10246000986090938E021FEF109390021F928F93AB
:102470002AEC32E03F932F9389830E94D3079091F7
:10248000840290934302898180934402109348020E
:1024900088E18093470280914602807E836080932A
:1024A000460261E082E492E00E948B070E94180AD3
:1024B00029E143E060ED77E080E090E00E94DC11EC
:1024C00080918E02877F80938E02809190020F9080
:1024D0000F900F900F9003C08FEF01C080E00F901E
:1024E000DF91CF911F9108958AE494E09F938F9399
:1024F0000E94D30781E00E94FF0B0F900F9088236A
:1025000059F08EE394E09F938F930E94D3070F902E
:102510000F9084E191E00AC08FE294E09F938F9343
:102520000E94D3070F900F9080E291E00C948305F6
:10253000CF93CFB7F89480919C02811127C0ECE033
:10254000F5E08491E8EFF4E09491E82FF0E0EE0FED
:10255000FF1FE05EFA4FA591B4918C91892321F47D
:1025600061E08AE00E94A11B61E08AE00E94681B92
:102570008CB580618CBD8CB580648CBD61E08DE0D4
:102580000E94681B61E08BE00E94681B80919C02A6
:102590008F5F80939C02CFBFCF910895FF920F93DE
:1025A0001F93CF93DF93EC01F22E798368838B0125
:1025B000000F111F060F171F1B830A834C831D82F8
:1025C0002B871C861D861E861F8650E0FA01EE5F53
:1025D000FA4FE491F0E0EE0FFF1FEA5EFA4F8591AB
:1025E0009491998B888BFA01E251FB4F44914A8B6D
:1025F000C8010E942C229F838E83009729F0A80196
:1026000060E070E00E94FE23F0FE04C081E0888755
:1026100019860BC0F2FE06C081E0888782E08987B8
:102620001A8605C0188681E0898782E08A87DF9153
:10263000CF911F910F91FF900895CF93DF93EC01FD
:102640008E819F81009711F00E94C42260E08C81EE
:10265000DF91CF910C94681BCF93DF93EC0161E085
:102660008C810E94681B60E08C81DF91CF910C947B
:10267000A11BCF92DF92EF92FF920F931F93CF9304
:10268000DF93CDB7DEB729970FB6F894DEBF0FBE44
:10269000CDBF8C01DC0116968D919C911797892BEB
:1026A00009F49BC00E949C1AF801C484D584E68476
:1026B000F7846C197D098E099F09623371058105C4
:1026C000910580F3F894828193819A838983A6810E
:1026D000B7817D01EFEFEE1AFE0A8C918987D80150
:1026E0001B969C911B9750960D90BC91A02DF801C4
:1026F000828991FF2EC09C91982B98879C91809500
:1027000089238F838F818E8388E08D8358856F81A5
:1027100049853D812E8189819A81F7015C9347FD2E
:10272000252F3A952C93262F39F0441F00C0000026
:102730006C93000000C0F2CF38E041916C93000030
:10274000019761F7F801B18BA08B49873D832E83F8
:1027500038C09C91982B98879C91809589238F8372
:102760008F818C8388E08B8358856F8149853B817D
:102770002C8189819A81F7015C9347FD252F00C048
:1027800000C02C9300C000C000C000C000C06C930B
:102790000000262F3A9541F0441F000000C000C001
:1027A00000C000C000C0E8CF38E0419100C06C9389
:1027B00000C0019709F7F801B18BA08B49873B83D3
:1027C0002C839A83898378940E949C1AD8011C9642
:1027D0006D937D938D939C931F9729960FB6F894D4
:1027E000DEBF0FBECDBFDF91CF911F910F91FF9044
:1027F000EF90DF90CF900895CF92DF92EF92FF920B
:102800000F931F93CF93DF93FC0180819181681711
:10281000790788F5CA01AA27BB27082FC32ED42E13
:10282000E52EFF241C2DD22FC581CC2361F08C9F77
:10283000C0011124092FCC9E600111241D2D2C9F55
:1028400090011124D32F9B01220F331F260F371F16
:1028500086819781820F931F2085DC01A20FB11D15
:102860000C932185DC01A20FB11D1C932285FC0174
:10287000E20FF11DD083DF91CF911F910F91FF9057
:10288000EF90DF90CF900895962F50E060E070E0D9
:10289000592B682BCB01BA010895FC0180819181ED
:1028A0000895EF92FF920F931F93CF93DF93EC0164
:1028B000E62EF42E122F22E046E061ED70E00E9439
:1028C000CE121B8A1C8A1D8A1E8A1C8E1B8E1E8E8F
:1028D0001D8E18A21F8E1AA219A21CA21BA285E08F
:1028E00090E09EA38DA318A61FA28AE090E09AA76D
:1028F00089A71CA61BA69EA78DA78CE390E098AB8A
:102900008FA719AA81E08AAB84E190E09CAB8BABE6
:10291000E88EF98E1A8F0F8BCE01DF91CF911F9128
:102920000F91FF90EF900C942C130F931F93CF9364
:10293000DF93CDB7DEB7A2970FB6F894DEBF0FBE18
:10294000CDBF8C016BE771E086EA92E00E940C1E1D
:1029500043E0F801608DCE0101960E94F30560E02E
:1029600070E0CE0101960E94B30760E00E94E20B86
:1029700043E0F801618DCE0101960E94F30560E00D
:1029800070E0CE0101960E94B30760E00E94E20B66
:1029900043E0F801628DCE0101960E94F30560E0EC
:1029A00070E0CE0101960E94B30760E00E94E20B46
:1029B00043E0F8016789CE0101960E94F30560E0CB
:1029C00070E0CE0101960E94B30760E00E94E20B26
:1029D00025E042E0622FCE0101962AA30E94F30572
:1029E00060E070E0CE0101960E94B30760E00E94B3
:1029F000E20B2AA12F5F293061F7F801138A148AAC
:102A0000158A168AA2960FB6F894DEBF0FBECDBF08
:102A1000DF91CF911F910F9108958F929F92AF9266
:102A2000BF92CF92DF92EF92FF920F931F93CF93BB
:102A3000DF93EC010E94901A0DA91EA92FA938ADB1
:102A40006B017C01C01AD10AE20AF30A0DA11EA192
:102A5000222717FD2095322FC016D106E206F30675
:102A600008F49AC06DAB7EAB8FAB98AF0D8D1E8D09
:102A7000CB8CDC8C6F8D78A10115110551F4C1143C
:102A8000D10439F46115710521F440E06FEF80E065
:102A900043C0882777FD8095982F0E942C2020E046
:102AA00030E048EC52E40E94911F20E030E04FE714
:102AB00053E40E9433210E94F91FF62EB6018827A5
:102AC00077FD8095982F0E942C2020E030E048EC84
:102AD00052E40E94911F20E030E04FE753E40E944F
:102AE00033210E94F91FE62EB801882777FD8095D3
:102AF000982F0E942C2020E030E048EC52E40E9405
:102B0000911F20E030E04FE753E40E9433210E9400
:102B1000F91F862F4F2D6E2D0E9444146B017C01EE
:102B200040E060E080E00E9444144B015C010BA196
:102B30001CA1CE010E944D140817190758F56BA16E
:102B40007CA16F5F7F4F7CA36BA3A7019601CE0191
:102B50000E94FC130BA11CA10A50110917FF05C00C
:102B6000CE010E944D14080F191FA5019401B80150
:102B7000CE010E94FC13CE01DF91CF911F910F91E6
:102B8000FF90EF90DF90CF90BF90AF909F908F908D
:102B90000C9439131CA21BA2DF91CF911F910F91AE
:102BA000FF90EF90DF90CF90BF90AF909F908F906D
:102BB0000895CF92DF92EF92FF920F931F93CF93DE
:102BC000DF93EC01662309F44EC081E089AB6F8D81
:102BD00078A1882777FD8095982F0E942C2020E0EF
:102BE00030E048EC52E40E94911F20E030E04FE7D3
:102BF00053E40E9433210E94F91FF62E6B8D7C8DC9
:102C0000882777FD8095982F0E942C2020E030E0C7
:102C100048EC52E40E94911F20E030E04FE753E47B
:102C20000E9433210E94F91FE62E6D8D7E8D88272C
:102C300077FD8095982F0E942C2020E030E048EC12
:102C400052E40E94911F20E030E04FE753E40E94DD
:102C500033210E94F91F862F4F2D6E2D0E944414A0
:102C60006B017C0104C019AAC12CD12C760100E0B3
:102C700010E0CE010E944D140817190748F4A7016F
:102C80009601B801CE010E94FC130F5F1F4FF1CFD8
:102C9000CE01DF91CF911F910F91FF90EF90DF90C8
:102CA000CF900C943913DF92EF92FF920F931F9302
:102CB000CF93DF93CDB7DEB7A1970FB6F894DEBF01
:102CC0000FBECDBF8C017B01D42EFC018389811105
:102CD00013C08489811113C08589811103C086893D
:102CE000882329F1F801858981110CC08689882300
:102CF00059F024E030E008C021E030E005C022E0D7
:102D000030E002C023E030E02E153F0581F064E0A2
:102D1000620F42E0CE0101960E94F30560E070E090
:102D2000CE0101960E94B30760E00E94E20BF80119
:102D3000138A148A158A168ADD2001F1F2E0EF1653
:102D4000F104A1F03CF4EA94EF28E1F481E0F80109
:102D5000838B18C0F3E0EF16F10461F084E0E8160D
:102D6000F10481F481E0F801868B0CC081E0F80168
:102D7000848B08C081E0F801858B04C060E0C80145
:102D80000E94D915A1960FB6F894DEBF0FBECDBF35
:102D9000DF91CF911F910F91FF90EF90DF900895F9
:102DA000CF92DF92EF92FF920F931F93CF93DF9317
:102DB000EC010E94901A0DA91EA92FA938AD6B0134
:102DC0007C01C01AD10AE20AF30A0FA518A922272A
:102DD00017FD2095322FC016D106E206F30608F43F
:102DE00080C06DAB7EAB8FAB98AF00E010E0CE0142
:102DF0000E944D140817190750F420E030E0A90193
:102E0000B801CE010E94FC130F5F1F4FF0CF6F8DF2
:102E100078A1882777FD8095982F0E942C2020E0AC
:102E200030E048EC52E40E94911F20E030E04FE790
:102E300053E40E9433210E94F91F162F6B8D7C8D65
:102E4000882777FD8095982F0E942C2020E030E085
:102E500048EC52E40E94911F20E030E04FE753E439
:102E60000E9433210E94F91F062F6D8D7E8D8827C9
:102E700077FD8095982F0E942C2020E030E048ECD0
:102E800052E40E94911F20E030E04FE753E40E949B
:102E900033210E94F91F862F412F602F0E94441476
:102EA0006B017C0105E010E021ED30E040E050E0F6
:102EB00061E070E080E090E00E940F1FA7019601A2
:102EC000CE010E94FC130150110971F7CE01DF9170
:102ED000CF911F910F91FF90EF90DF90CF900C94C6
:102EE0003913DF91CF911F910F91FF90EF90DF90F9
:102EF000CF9008954F925F926F927F928F929F92A0
:102F0000AF92BF92CF92DF92EF92FF92CF93DF9377
:102F10004A015B01C22FCB01BA010E94F91F2B01AC
:102F20003C014AE050E086EA92E00E94B71ECC23C2
:102F300009F47BC065E871E086EA92E00E94FF1D1B
:102F4000DFEFDC0FC12CD12C7601C394C15048F0C7
:102F5000AAE0B0E0A70196010E94EB216B017C0181
:102F6000F5CF20E030E0A901C501B4010E942F2176
:102F7000662457FC6094762C87FD09C0C301B2011A
:102F80000E942C209B01AC01C501B40106C0C30105
:102F9000B2010E942C20A50194010E942C1F4B011C
:102FA0005C01C701B6010E942A209B01AC01C5014A
:102FB000B4010E9433210E94FE1F962EA72EB82E28
:102FC000C92F2AE0C22ED12CE12CF12CA7019601A9
:102FD0000E94AA21CA01B9012115310541055105F7
:102FE00011F0D150F3CFDD2341F068E671E086EABD
:102FF00092E00E94FF1DD150F6CF2AE030E0492D2B
:103000005A2D6B2D7C2F86EA92E0DF91CF91FF90B5
:10301000EF90DF90CF90BF90AF909F908F907F9078
:103020006F905F904F900C94D71EDF91CF91FF90DF
:10303000EF90DF90CF90BF90AF909F908F907F9058
:103040006F905F904F9008952F923F924F925F92B2
:103050006F927F928F929F92AF92BF92CF92DF92A8
:10306000EF92FF920F931F93CF93DF93CDB7DEB70D
:10307000A1970FB6F894DEBF0FBECDBF8C016B01D8
:10308000CB0107960E94B023F6012581223019F466
:1030900044E650E002C041E050E0849F9001859FEB
:1030A000300D949F300D11242536310514F024E69F
:1030B00030E0790137FF02C0E12CF12CF601868166
:1030C000811104C0F801F48EE38EE2C0813021F456
:1030D000F801F68EE58EDCC0823021F4F801F0A212
:1030E000E78ED6C0833009F0D3C0F801838C948C6E
:1030F000A58CB68C9A2D8B2DA814B90414F4982D98
:10310000892DF801278C30A0C92ED82EC214D304E3
:103110000CF46101B701882777FD8095982F0E94F4
:103120002C202B013C01B601882777FD8095982F34
:103130000E942C209B01AC01C301B2010E94911F8F
:103140002B013C01C114D10409F43EC020E030E061
:10315000A9010E942F211816BCF5B401882777FD1C
:103160008095982F0E942C20A30192010E94332168
:103170000E9467200E94F91FF801748F638FB501C8
:10318000882777FD8095982F0E942C20A30192011B
:103190000E9433210E9467200E94F91FF801768F58
:1031A000658FB101882777FD8095982F0E942C208C
:1031B000A30192010E9433210E9467200E94F91FFF
:1031C000F80170A3678F07C0F801F48EE38EF68EC6
:1031D000E58EF0A2E78E67E871E086EA92E00E9451
:1031E000FF1D4AE050E0B70186EA92E00E94B71E58
:1031F00067E971E086EA92E00E94FF1D4AE050E034
:10320000B60186EA92E00E94B71E61EA71E086EAA2
:1032100092E00E94FF1D24E0B301A201C8010E94B8
:103220007A1786EA92E00E94081EF801E38CF48C7B
:1032300043E060E0CE0101960E94F305B701CE01A4
:1032400001960E94B30760E00E94E20BF801E58C52
:10325000F68C43E061E0CE0101960E94F305B701D0
:10326000CE0101960E94B30760E00E94E20BF801D4
:10327000E78CF0A043E062E0CE0101960E94F305E6
:10328000B701CE0101960E94B30760E00E94E20BF5
:10329000F80111AAA1960FB6F894DEBF0FBECDBFFC
:1032A000DF91CF911F910F91FF90EF90DF90CF9022
:1032B000BF90AF909F908F907F906F905F904F9056
:1032C0003F902F900895653538F4862F880F860F2C
:1032D000682F609540E012C06A3A40F46555862F29
:1032E000880F860F482F60E0809508C086E5860F1E
:1032F000682F660F680F462F409580E00C944414A9
:10330000CF92DF92EF92FF920F931F93CF93DF93B1
:10331000EC010E94901A0DA91EA92FA938AD6B01CE
:103320007C01C01AD10AE20AF30A09A51AA52227CC
:1033300017FD2095322FC016D106E206F306A0F144
:103340006DAB7EAB8FAB98AF8FA198A5019698A778
:103350008FA3E12CF12C00E010E0CE010E944D146F
:1033600008171907B8F4CE010E944D14BC01C7011B
:103370000E9496218FA1860F682FCE010E946319AB
:103380009B01AC01B801CE010E94FC130F5F1F4FDF
:10339000F394E3CFCE010E9439138FA198A5811534
:1033A000954011F418A61FA2DF91CF911F910F91A4
:1033B000FF90EF90DF90CF900895FC0123892111B9
:1033C0000C940D15FC01248921110C948019FC0129
:1033D0002589222331F021A9211108C061E00C9434
:1033E000D915FC01268921110C94D0160895089551
:1033F0001F920F920FB60F9211242F933F934F936A
:103400005F936F937F938F939F93AF93BF93EF934C
:10341000FF93E0912801F09129010995FF91EF9127
:10342000BF91AF919F918F917F916F915F914F91DC
:103430003F912F910F900FBE0F901F9018951F92E4
:103440000F920FB60F9211242F933F934F935F93D8
:103450006F937F938F939F93AF93BF93EF93FF935C
:10346000E0912A01F0912B010995FF91EF91BF9115
:10347000AF919F918F917F916F915F914F913F910C
:103480002F910F900FBE0F901F9018951F920F92C3
:103490000FB60F9211242F933F938F939F93AF9367
:1034A000BF9380919E0290919F02A091A002B09143
:1034B000A10230919D0223E0230F2D3720F40196C5
:1034C000A11DB11D05C026E8230F0296A11DB11D47
:1034D00020939D0280939E0290939F02A093A0024E
:1034E000B093A1028091A2029091A302A091A402A4
:1034F000B091A5020196A11DB11D8093A2029093E7
:10350000A302A093A402B093A502BF91AF919F9193
:103510008F913F912F910F900FBE0F901F90189594
:103520002FB7F89460919E0270919F028091A00243
:103530009091A1022FBF08953FB7F8948091A20205
:103540009091A302A091A402B091A50226B5A89BD8
:1035500005C02F3F19F00196A11DB11D3FBF662781
:10356000782F892F9A2F620F711D811D911D42E0C6
:10357000660F771F881F991F4A95D1F708958F927C
:103580009F92AF92BF92CF92DF92EF92FF926B0128
:103590007C010E949C1A4B015C01C114D104E1041E
:1035A000F104F1F00E942B1F0E949C1A68197909FE
:1035B0008A099B09683E73408105910570F321E0FB
:1035C000C21AD108E108F10888EE880E83E0981E3F
:1035D000A11CB11CC114D104E104F10429F7DDCF11
:1035E000FF90EF90DF90CF90BF90AF909F908F9023
:1035F00008958230910538F0880F991F880F991F20
:1036000005970197F1F70895789484B5826084BD99
:1036100084B5816084BD85B5826085BD85B58160D6
:1036200085BDEEE6F0E0808181608083E1E8F0E036
:103630001082808182608083808181608083E0E865
:10364000F0E0808181608083E1EBF0E08081846044
:103650008083E0EBF0E0808181608083EAE7F0E046
:1036600080818460808380818260808380818160AA
:1036700080838081806880831092C10008958330A8
:1036800081F028F4813099F08230A1F008958730DC
:10369000A9F08830B9F08430D1F4809180008F7D1A
:1036A00003C0809180008F7780938000089584B557
:1036B0008F7702C084B58F7D84BD08958091B0005E
:1036C0008F7703C08091B0008F7D8093B000089504
:1036D000CF93DF9390E0FC01E251FB4F2491FC017A
:1036E000EE5FFA4F8491882349F190E0880F991F8B
:1036F000FC01E05EFA4FA591B4918A5E9A4FFC01FD
:10370000C591D4919FB7611108C0F8948C91209510
:1037100082238C93888182230AC0623051F4F8940A
:103720008C91322F309583238C938881822B8883D0
:1037300004C0F8948C91822B8C939FBFDF91CF9122
:1037400008950F931F93CF93DF931F92CDB7DEB7EA
:10375000282F30E0F901E652FB4F8491F901E25144
:10376000FB4F1491F901EE5FFA4F04910023C9F069
:10377000882321F069830E943F1B6981E02FF0E0DC
:10378000EE0FFF1FEA5EFA4FA591B4919FB7F89430
:103790008C91611103C01095812301C0812B8C9302
:1037A0009FBF0F90DF91CF911F910F910895FC0162
:1037B000818D228D90E0805C9F4F821B91098F73D9
:1037C00099270895FC01918D828D981731F0828D93
:1037D000E80FF11D858D90E008958FEF9FEF08951C
:1037E000FC01918D828D981761F0828DDF01A80F09
:1037F000B11D5D968C91928D9F5F9F73928F90E02B
:1038000008958FEF9FEF089584E79DE1892B49F09C
:1038100080E090E0892B29F00E94741D81110C94A6
:1038200000000895FC01848DDF01A80FB11DA35A8B
:10383000BF4F2C91848D90E001968F739927848FD0
:10384000A689B7892C93A089B1898C9180648C93C7
:10385000938D848D981306C00288F389E02D8081B2
:103860008F7D80830895CF93DF93EC01888D88232B
:10387000C9F0EA89FB89808185FD05C0A889B989DD
:103880008C9186FD0FC00FB607FCF5CF808185FFB8
:10389000F2CFA889B9898C9185FFEDCFCE010E9426
:1038A000121CE7CFDF91CF910895CF92DF92FF9264
:1038B0000F931F93CF93DF931F92CDB7DEB76C01A9
:1038C00081E0D60158968C9358975B969C915B97B4
:1038D0005C968C915C97981307C05096ED91FC9183
:1038E0005197808185FD2EC0F601038D10E00F5F9A
:1038F0001F4F0F731127F02EF601848DF81211C09F
:103900000FB607FCF9CFD6015096ED91FC91519777
:10391000808185FFF1CFC60169830E94121C6981F5
:10392000EBCF838DE80FF11DE35AFF4F6083D60183
:103930005B960C935B975296ED91FC915397808127
:1039400080620CC0D6015696ED91FC91579760832A
:103950005096ED91FC91519780818064808381E045
:1039600090E00F90DF91CF911F910F91FF90DF902A
:10397000CF900895BF92CF92DF92EF92FF92CF93B4
:10398000DF93EC016A017B01B22EE889F98982E0BC
:103990008083411581EE580761057105A1F060E053
:1039A00079E08DE390E0A70196010E94AA212150C1
:1039B00031094109510956954795379527952115A4
:1039C00080E1380798F0E889F989108260E874E8A6
:1039D0008EE190E0A70196010E94AA2121503109B1
:1039E000410951095695479537952795EC85FD85F1
:1039F0003083EE85FF852083188EEC89FD89B082A7
:103A0000EA89FB89808180618083EA89FB898081E2
:103A100088608083EA89FB89808180688083EA8965
:103A2000FB8980818F7D8083DF91CF91FF90EF9024
:103A3000DF90CF90BF9008951F920F920FB60F9214
:103A400011242F938F939F93EF93FF93E091B602EE
:103A5000F091B7028081E091BC02F091BD0282FD3D
:103A600012C090818091BF028F5F8F732091C0023E
:103A7000821751F0E091BF02F0E0EA55FD4F958FBB
:103A80008093BF0201C08081FF91EF919F918F9140
:103A90002F910F900FBE0F901F9018951F920F92AD
:103AA0000FB60F9211242F933F934F935F936F9311
:103AB0007F938F939F93AF93BF93EF93FF9386EA88
:103AC00092E00E94121CFF91EF91BF91AF919F91E4
:103AD0008F917F916F915F914F913F912F910F90B7
:103AE0000FBE0F901F90189586EA92E00E94D71B98
:103AF00021E0892B09F420E0822F08951092A90279
:103B00001092A80288EE93E0A0E0B0E08093AA02B1
:103B10009093AB02A093AC02B093AD0289EB91E01D
:103B20009093A7028093A60285EC90E09093B30255
:103B30008093B20284EC90E09093B5028093B4023B
:103B400080EC90E09093B7028093B60281EC90E015
:103B50009093B9028093B80282EC90E09093BB02FC
:103B60008093BA0286EC90E09093BD028093BC02F1
:103B70001092BF021092C0021092C1021092C202B3
:103B80000895CF92DF92EF92FF920F931F93CF93FE
:103B9000DF937C016A01EB0100E010E00C151D05CC
:103BA00071F06991D701ED91FC910190F081E02DC8
:103BB000C7010995892B19F00F5F1F4FEFCFC8017F
:103BC000DF91CF911F910F91FF90EF90DF90CF90F9
:103BD00008956115710581F0DB010D900020E9F772
:103BE000AD0141505109461B570BDC01ED91FC9191
:103BF0000280F381E02D099480E090E008950C9418
:103C0000E91DDC01ED91FC910190F081E02D09941A
:103C100065EC71E00C94E91D0F931F93CF93DF9334
:103C2000EC010E94E91D8C01CE010E94081E800F4C
:103C3000911FDF91CF911F910F9108958F929F92C5
:103C4000AF92BF92DF92EF92FF920F931F93CF93A9
:103C5000DF93CDB7DEB7A1970FB6F894DEBF0FBEE6
:103C6000CDBF7C01F42FD52ECB0119A2223008F450
:103C70002AE08E010F5D1F4F822E912CA12CB12CBA
:103C80006F2F7D2DA50194010E94AA21F22FD32E22
:103C9000CA01015011096A3014F4E0E301C0E7E3FE
:103CA000E60FD801EC93232B242B252B49F7B801E1
:103CB000C7010E94E91DA1960FB6F894DEBF0FBEA2
:103CC000CDBFDF91CF911F910F91FF90EF90DF90CB
:103CD000BF90AF909F908F900895CF92DF92EF9218
:103CE000FF920F931F93CF93DF93EC016A017B0147
:103CF0002115310579F4E881F9810190F081E02DF9
:103D0000642FDF91CF911F910F91FF90EF90DF9083
:103D1000CF9009942A303105E9F477FF1AC06DE29B
:103D20000E94011E8C0144275527BA014C195D09D8
:103D30006E097F092AE0CE010E941E1E800F911F8E
:103D4000DF91CF911F910F91FF90EF90DF90CF9077
:103D500008952AE0B701A601CE01DF91CF911F910E
:103D60000F91FF90EF90DF90CF900C941E1E9A0160
:103D7000AB01662757FD6095762F0C946D1E0F934F
:103D80001F93CF93DF93EC019A01AB01662757FD98
:103D90006095762F0E946D1E8C01CE010E94081E38
:103DA000800F911FDF91CF911F910F9108952115E1
:103DB000310541F4DC01ED91FC910190F081E02DA1
:103DC000642F09940C941E1E9A01462F50E060E067
:103DD00070E00C94D71ECF93DF9300D000D0CDB706
:103DE000DEB79B01AC01611571058105910569F094
:103DF00069833A834B835C830E94A22329813A81A1
:103E00004B815C810E94CC2103C060E070E0CB015B
:103E10000F900F900F900F90DF91CF910895CF9258
:103E2000DF92EF92FF926B017C01621773078407A8
:103E3000950764F4CA01B9016C197D098E099F09BF
:103E40000E94EB1E6C0D7D1D8E1D9F1DFF90EF903F
:103E5000DF90CF90089508955058BB27AA270ED021
:103E6000ADC19ED130F0A3D120F031F49F3F11F4C9
:103E70001EF493C10EF4E095E7FB60C1E92FAFD1CA
:103E800080F3BA17620773078407950718F071F477
:103E90009EF5DEC10EF4E0950B2EBA2FA02D0B017E
:103EA000B90190010C01CA01A0011124FF27591B7F
:103EB00099F0593F50F4503E68F11A16F040A22F85
:103EC000232F342F4427585FF3CF469537952795F6
:103ED000A795F0405395C9F77EF41F16BA0B620BF5
:103EE000730B840BBAF09150A1F0FF0FBB1F661F3C
:103EF000771F881FC2F70EC0BA0F621F731F841F7F
:103F000048F4879577956795B795F7959E3F08F0A4
:103F1000B3CF9395880F08F09927EE0F9795879563
:103F200008950CD04BC143D140F03AD130F021F488
:103F30005F3F19F003C151118CC12FC150D198F3CB
:103F40009923C9F35523B1F3951B550BBB27AA271A
:103F500062177307840738F09F5F5F4F220F331F8C
:103F6000441FAA1FA9F333D00E2E3AF0E0E830D058
:103F700091505040E695001CCAF729D0FE2F27D05B
:103F8000660F771F881FBB1F261737074807AB0729
:103F9000B0E809F0BB0B802DBF01FF2793585F4F9E
:103FA0002AF09E3F510568F0C9C053C15F3FECF352
:103FB000983EDCF3869577956795B795F7959F5F63
:103FC000C9F7880F911D9695879597F90895E1E0B7
:103FD000660F771F881FBB1F621773078407BA0716
:103FE00020F0621B730B840BBA0BEE1F88F7E09571
:103FF000089504D06894B1112CC10895F8D088F0C8
:104000009F5790F0B92F9927B751A0F0D1F0660FC4
:10401000771F881F991F1AF0BA95C9F712C0B130DF
:1040200081F016D1B1E0089513C1672F782F88274A
:10403000B85F39F0B93FCCF3869577956795B3951E
:10404000D9F73EF490958095709561957F4F8F4F8D
:104050009F4F0895E89409C097FB3EF49095809592
:10406000709561957F4F8F4F9F4F9923A9F0F92F3E
:1040700096E9BB279395F695879577956795B795BC
:10408000F111F8CFFAF4BB0F11F460FF1BC06F5FA2
:104090007F4F8F4F9F4F16C0882311F096E911C0B4
:1040A000772321F09EE8872F762F05C0662371F0D5
:1040B00096E8862F70E060E02AF09A95660F771FE9
:1040C000881FDAF7880F9695879597F90895A9D0F4
:1040D00080F09F3740F491110EF0BBC060E070E0BB
:1040E00080E89FEB089526F41B16611D711D811D4C
:1040F0002BC045C0990F0008550FAA0BE0E8FEEF52
:1041000016161706E807F907C0F012161306E4079B
:10411000F50798F0621B730B840B950B39F40A2694
:1041200061F0232B242B252B21F408950A2609F472
:10413000A140A6958FEF811D811D089597F99F6776
:1041400080E870E060E00895882371F4772321F01F
:104150009850872B762F07C0662311F499270DC03E
:104160009051862B70E060E02AF09A95660F771FD9
:10417000881FDAF7880F9695879597F908959F3FDE
:1041800031F0915020F4879577956795B795880F12
:10419000911D9695879597F908959FEF80EC089566
:1041A00000240A9416161706180609060895002416
:1041B0000A9412161306140605060895092E039490
:1041C000000C11F4882352F0BB0F40F4BF2B11F404
:1041D00060FF04C06F5F7F4F8F4F9F4F089557FD63
:1041E0009058440F551F59F05F3F71F04795880F65
:1041F00097FB991F61F09F3F79F0879508951216FC
:1042000013061406551FF2CF4695F1DF08C01616A7
:1042100017061806991FF1CF869571056105089458
:104220000895E5DFA0F0BEE7B91788F4BB279F38F3
:1042300060F41616B11D672F782F8827985FF7CF87
:10424000869577956795B11D93959639C8F308952E
:10425000E894BB2766277727CB0197F908954ADFB3
:1042600008F48FEF08950BD0A9CF9ADF28F09FDFD5
:1042700018F0952309F062CF90CF1124EACFAFDF79
:10428000A0F3959FD1F3950F50E0551F629FF00169
:10429000729FBB27F00DB11D639FAA27F00DB11DC2
:1042A000AA1F649F6627B00DA11D661F829F22274B
:1042B000B00DA11D621F739FB00DA11D621F839FD2
:1042C000A00D611D221F749F3327A00D611D231FA8
:1042D000849F600D211D822F762F6A2F11249F57F6
:1042E00050408AF0E1F088234AF0EE0FFF1FBB1F19
:1042F000661F771F881F91505040A9F79E3F5105B8
:1043000070F01CCFA6CF5F3FECF3983EDCF38695B0
:1043100077956795B795F795E7959F5FC1F7FE2B62
:10432000880F911D9695879597F90895AA1BBB1B39
:1043300051E107C0AA1FBB1FA617B70710F0A61BA5
:10434000B70B881F991F5A95A9F780959095BC01C6
:10435000CD010895A1E21A2EAA1BBB1BFD010DC0C1
:10436000AA1FBB1FEE1FFF1FA217B307E407F50725
:1043700020F0A21BB30BE40BF50B661F771F881F01
:10438000991F1A9469F760957095809590959B0197
:10439000AC01BD01CF010895052E97FB1EF40094DA
:1043A0000E94E32157FD07D00E94AA2107FC03D0F9
:1043B0004EF40C94E32150954095309521953F4F54
:1043C0004F4F5F4F089590958095709561957F4F01
:1043D0008F4F9F4F08950E94FC21A59F900DB49F81
:1043E000900DA49F800D911D11240895EE0FFF1FC5
:1043F0000590F491E02D0994A29FB001B39FC001F4
:10440000A39F700D811D1124911DB29F700D811D00
:104410001124911D0895EF920F931F93CF93DF9373
:10442000E80147FF02C034E101C034E0E42FFF2778
:10443000E7FDF095F7FF03C0F195E195F109E32E53
:10444000022F2E2FAE010E94AF26CE01DF91CF9119
:104450001F910F91EF900895CF93DF9382309105D4
:1044600010F482E090E0E0914503F091460320E0F3
:1044700030E0A0E0B0E0309739F140815181481739
:104480005907B8F04817590771F482819381109742
:1044900029F013969C938E9312972CC09093460309
:1044A0008093450327C02115310531F0421753078A
:1044B00018F0A901DB0101C0EF019A01BD01DF0184
:1044C0000280F381E02DD7CF21153105F9F0281BAB
:1044D000390B2430310580F48A819B816115710587
:1044E00021F0FB019383828304C090934603809361
:1044F0004503FE01329644C0FE01E20FF31F819393
:10450000919322503109398328833AC02091430383
:1045100030914403232B41F4209102013091030197
:104520003093440320934303209100013091010113
:104530002115310541F42DB73EB74091040150914A
:104540000501241B350BE0914303F0914403E2176E
:10455000F307A0F42E1B3F0B2817390778F0AC01A6
:104560004E5F5F4F2417350748F04E0F5F1F509383
:104570004403409343038193919302C0E0E0F0E051
:10458000CF01DF91CF910895CF93DF93009709F486
:1045900087C0FC01329713821282C0914503D091EB
:1045A0004603209781F420813181280F391F8091A3
:1045B0004303909144038217930779F5F0934403E2
:1045C000E09343036DC0DE0120E030E0AE17BF078B
:1045D00050F412964D915C9113979D014115510530
:1045E00009F1DA01F3CFB383A28340815181840FB3
:1045F000951F8A179B0771F48D919C911197840FD9
:10460000951F02969183808312968D919C911397AA
:10461000938382832115310529F4F0934603E093B7
:1046200045033EC0D9011396FC93EE9312974D912A
:104630005D91A40FB51FEA17FB0779F48081918182
:10464000840F951F0296D90111969C938E938281B7
:10465000938113969C938E931297E0E0F0E08A8109
:104660009B81009719F0FE01EC01F9CFCE01029673
:1046700028813981820F931F209143033091440395
:104680002817390769F4309729F4109246031092DD
:10469000450302C013821282D0934403C0934303A4
:1046A000DF91CF9108958F929F92AF92BF92CF9258
:1046B000DF92EF92FF92CF93DF93EC0168817981D3
:1046C0008A819B81611571058105910521F464E260
:1046D00079ED8BE597E02DE133EF41E050E00E946A
:1046E000CC2149015A019B01AC01A7EAB1E40E9427
:1046F000EB216B017C01ACEEB4EFA50194010E94AB
:10470000BE29C60ED71EE81EF91EF7FE06C081E0C0
:10471000C81AD108E10880E8F80AC882D982EA827A
:10472000FB82C701B6019F77DF91CF91FF90EF9099
:10473000DF90CF90BF90AF909F908F9008950E9490
:104740005323089586E091E00E94532308956093D7
:104750000601709307018093080190930901089561
:10476000FC0188279927E89421912032E9F3293028
:1047700010F02E30C8F32B3241F02D3239F468940A
:1047800004C00E944324820F911D219120532A309E
:10479000C0F31EF4909581959F4F08951F93FC01DF
:1047A00099278827BC01E89411911032E9F3193058
:1047B00010F01E30C8F31B3251F01D3249F46894DA
:1047C00006C00E942E24610F711D811D911D119143
:1047D00010531A30B0F33EF4909580957095619522
:1047E0007F4F8F4F9F4F1F910895FB01DC0102C047
:1047F00001900D9241505040D8F70895DC0101C05E
:104800006D9341505040E0F70895FB01DC014150A9
:10481000504048F001900D920020C9F701C01D9250
:1048200041505040E0F70895BB274A3031F49923B6
:1048300022F4BDE2909581959F4F0C946E24BB2786
:104840002A3051F4992342F4BDE2909580957095F9
:1048500061957F4F8F4F9F4F0C944C24592F482FB9
:10486000372F262F660F771F881F991F660F771F18
:10487000881F991F620F731F841F951F660F771F74
:10488000881F991F08957AE0979F902D879F802D0C
:10489000910D11240895BB27FA01A62F6217710507
:1048A00081059105330B30FB66F0AA27660F771F51
:1048B000881F991FAA1FA21710F0A21B63953850DA
:1048C000A9F7A05DAA3308F0A95DA19336F7B1114D
:1048D000B1931082CA010C941B29BB27FB015527F9
:1048E000AA27880F991FAA1FA41710F0A41B83954D
:1048F0005051B9F7A05DAA3308F0A95DA1930097C4
:1049000079F7B111B1931192CB010C941B29AEE050
:10491000B0E0EDE8F4E20C94D1298C01CA014EE03C
:104920004C831A83098377FF02C060E070E861500E
:1049300071097E836D83A901BC01CE0101960E949D
:10494000B3244D815E8157FD0AC02F8138854217FF
:1049500053070CF49A01F801E20FF31F10822E9610
:10496000E4E00C94ED29ACE0B0E0E9EBF4E20C9467
:10497000C3297C016B018A01FC01178216828381A5
:1049800081FFBDC1CE0101964C01F7019381F60173
:1049900093FD859193FF81916F01882309F4ABC149
:1049A000853239F493FD859193FF81916F018532B2
:1049B00029F4B70190E00E942B29E7CF512C312C2C
:1049C00020E02032A0F48B3269F030F4803259F0CC
:1049D000833269F420612CC08D3239F0803339F490
:1049E000216026C02260246023C0286021C027FDEA
:1049F00027C030ED380F3A3078F426FF06C0FAE0D1
:104A00005F9E300D1124532E13C08AE0389E300D66
:104A10001124332E20620CC08E3221F426FD6BC18E
:104A2000206406C08C3611F4206802C0883641F438
:104A3000F60193FD859193FF81916F018111C1CFA3
:104A4000982F9F7D9554933028F40C5F1F4FFFE300
:104A5000F9830DC0833631F0833771F0833509F067
:104A60005BC022C0F801808189830E5F1F4F442400
:104A70004394512C540115C03801F2E06F0E711CA3
:104A8000F801A080B18026FF03C0652D70E002C050
:104A90006FEF7FEFC5012C870E9410292C01830145
:104AA0002C852F77222E17C03801F2E06F0E711C73
:104AB000F801A080B18026FF03C0652D70E002C020
:104AC0006FEF7FEFC5012C870E9405292C012C85F3
:104AD0002068222E830123FC1BC0832D90E0481602
:104AE0005906B0F4B70180E290E00E942B293A9475
:104AF000F4CFF50127FC859127FE81915F01B70175
:104B000090E00E942B2931103A94F1E04F1A51089D
:104B10004114510471F7E5C0843611F0893639F536
:104B2000F80127FF07C060817181828193810C5F4A
:104B30001F4F08C060817181882777FD8095982F6D
:104B40000E5F1F4F2F76B22E97FF09C0909580956C
:104B5000709561957F4F8F4F9F4F2068B22E2AE04E
:104B600030E0A4010E945D29A82EA81844C0853712
:104B700029F42F7EB22E2AE030E025C0F22FF97FF3
:104B8000BF2E8F36C1F018F4883579F0B4C0803765
:104B900019F0883721F0AFC02F2F2061B22EB4FE5C
:104BA0000DC08B2D8460B82E09C024FF0AC09F2F32
:104BB0009660B92E06C028E030E005C020E130E064
:104BC00002C020E132E0F801B7FE07C060817181C8
:104BD000828193810C5F1F4F06C06081718180E0EC
:104BE00090E00E5F1F4FA4010E945D29A82EA81817
:104BF000FB2DFF77BF2EB6FE0BC02B2D2E7FA514ED
:104C000050F4B4FE0AC0B2FC08C02B2D2E7E05C0A5
:104C10007A2C2B2D03C07A2C01C0752C24FF0DC0DB
:104C2000FE01EA0DF11D8081803311F4297E09C057
:104C300022FF06C07394739404C0822F867809F013
:104C4000739423FD13C020FF06C05A2C731418F46C
:104C5000530C5718732C731468F4B70180E290E07A
:104C60002C870E942B2973942C85F5CF731410F494
:104C7000371801C0312C24FF12C0B70180E390E047
:104C80002C870E942B292C8522FF17C021FF03C0EF
:104C900088E590E002C088E790E0B7010CC0822F61
:104CA000867859F021FD02C080E201C08BE227FD29
:104CB0008DE2B70190E00E942B29A51438F4B701CA
:104CC00080E390E00E942B295A94F7CFAA94F40134
:104CD000EA0DF11D8081B70190E00E942B29A110FF
:104CE000F5CF332009F451CEB70180E290E00E9465
:104CF0002B293A94F6CFF7018681978102C08FEF76
:104D00009FEF2C96E2E10C94DF29DC01CB01FC0142
:104D1000F999FECF06C0F2BDE1BDF89A319600B414
:104D20000D9241505040B8F70895F999FECF92BDC9
:104D300081BDF89A992780B50895262FF999FECF5D
:104D400092BD81BDF89A019700B4021639F01FBADE
:104D500020BD0FB6F894FA9AF99A0FBE08956F9293
:104D60007F929F92AF92BF92CF92DF92EF92FF928B
:104D70000F931F93CF93DF93CDB7DEB729970FB66D
:104D8000F894DEBF0FBECDBF6A01B22E102F0C33D8
:104D900020F4FF24F394F00E02C04CE3F42E0F2D08
:104DA00027E0AE014F5F5F4F0E942D287981272FAA
:104DB0002970213031F0E1FC06C0E0FC06C060E063
:104DC00005C06DE203C06BE201C060E2AE2DA071D0
:104DD00073FF36C0662311F084E001C083E08B15B9
:104DE00010F4B81A01C0B12CA1110BC0F6018B2D23
:104DF00090E2882319F091938150FBCFCB0CD11C0A
:104E0000B12C662331F0F601608396012F5F3F4F8E
:104E10006901C6010396E2FE05C02EE4F601208377
:104E200031E404C02EE6F601208331E6318322838B
:104E3000FC012B2D30E22223F1F131932150FBCFE5
:104E400072FF40C0662311F084E001C083E08B153F
:104E500010F4B81A01C0B12CA1110BC0F6018B2DB2
:104E600090E2882319F091938150FBCFCB0CD11C99
:104E7000B12C662331F0F601608396012F5F3F4F1E
:104E80006901C6010396E2FE07C029E4F60120830A
:104E90002EE4218326E406C029E6F60120832EE6CF
:104EA000218326E62283FC012B2D30E2222319F0F8
:104EB00031932150FBCFFC01EB0DF11D10828EEFE1
:104EC0009FEFB7C0B1E0611101C0B0E04B2F50E0DF
:104ED0001816190624F49C012F5F3F4F02C021E0F1
:104EE00030E0240F351F112329F0412F50E04F5F90
:104EF0005F4F02C040E050E0420F531F2B2D30E0C7
:104F00004217530714F4B41A01C0B12C2E2D287186
:104F100059F4F6012B2D30E2222319F03193215060
:104F2000FBCFCB0CD11CB12CBB2331F0F60160833D
:104F300096012F5F3F4F6901A1110BC0F6012B2D88
:104F400030E3222319F031932150FBCFCB0CD11C3D
:104F5000B12CF80E0A81372F3071A32E74FF03C0D5
:104F6000013309F4FA941F142CF42F2D293018F072
:104F700028E001C021E0682F392F97FF02C060E0D0
:104F800030E0462F532F612C712C3EE2932EBC0152
:104F9000621B71099B01DC01A41BB50BE1E0F0E091
:104FA000EC0FFD1FAE0FBF1FE12EF12CF194E19429
:104FB000F1084F3FFFEF5F0731F4F6019082B60131
:104FC0006F5F7F4F6B01841795074CF024173507EF
:104FD00034F4BD01660D771DFB01118101C010E3A2
:104FE00041505109FFEF6F1A7F0AB6016F5F7F4F83
:104FF0004E155F0524F0F60110836B01DACF4817D8
:10500000590739F4063320F4053319F4A11001C00F
:1050100011E3F6011083FB018B2D90E2882319F038
:1050200091938150FBCFFB01EB0DF11D108280E0CD
:1050300090E029960FB6F894DEBF0FBECDBFDF918A
:10504000CF911F910F91FF90EF90DF90CF90BF9085
:10505000AF909F907F906F900895283008F027E0E0
:105060003327DA01990F311D87FD916000966105A4
:10507000710539F432602E5F3D9330E32A95E1F7F4
:1050800008959F3F30F080387105610509F03C5F5D
:105090003C5F3D93913008F08068911DDF93CF9382
:1050A0001F930F93FF92EF92192F987F9695E92FF8
:1050B00096959695E90FFF27EC57FA4F99273327D6
:1050C000EE24FF24A701E70105900894079428F433
:1050D000360FE71EF81E491F511D660F771F881FE8
:1050E000991F0694A1F70590079428F4E70EF81E7F
:1050F000491F561FC11D770F881F991F661F0694F1
:10510000A1F70590079428F4F80E491F561FC71FF2
:10511000D11D880F991F661F771F0694A1F7059070
:10512000079420F4490F561FC71FD81F990F661FF9
:10513000771F881F0694A9F784911095177041F086
:10514000D695C79557954795F794E7941A95C1F763
:10515000EAE2F5E068941590159135916591959185
:1051600005907FE27395E118F10A430B560BC90BCA
:10517000D009C0F7E10CF11E431F561FC91FD01DF7
:105180007EF4703311F48A95E6CFE894015030F044
:10519000080F0AF40027021708F4202F2395022F86
:1051A0007A3328F079E37D932A95E9F710C07D934F
:1051B0002A9589F6069497956795379517951794CC
:1051C000E118F10A430B560BC90BD00998F023954F
:1051D0007E9173957A3308F070E37C932013B8F7CF
:1051E0007E9170617D9330F0839571E37D9370E3E0
:1051F0002A95E1F71124EF90FF900F911F91CF9125
:10520000DF91992787FD90950895FC0105906150E5
:1052100070400110D8F7809590958E0F9F1F0895CC
:10522000FC016150704001900110D8F78095909575
:105230008E0F9F1F0895DC01FC01672F719177236A
:10524000E1F7329704C07C916D9370836291AE1741
:10525000BF07C8F308950F931F93CF93DF93182FC1
:10526000092FEB018B8181FD03C08FEF9FEF20C0E1
:1052700082FF10C04E815F812C813D814217530710
:105280007CF4E881F9819F012F5F3F4F39832883A8
:10529000108306C0E885F985812F0995892B29F7A8
:1052A0002E813F812F5F3F4F3F832E83812F902F91
:1052B000DF91CF911F910F910895FA01AA2728300D
:1052C00051F1203181F1E8946F936E7F6E5F7F4FD3
:1052D0008F4F9F4FAF4FB1E03ED0B4E03CD0670F4F
:1052E000781F891F9A1FA11D680F791F8A1F911DA2
:1052F000A11D6A0F711D811D911DA11D20D009F4F2
:1053000068943F912AE0269F11243019305D319333
:10531000DEF6CF010895462F4770405D4193B3E01C
:105320000FD0C9F7F6CF462F4F70405D4A3318F0C3
:10533000495D31FD4052419302D0A9F7EACFB4E074
:10534000A6959795879577956795BA95C9F700972C
:105350006105710508959B01AC010A2E06945795CD
:10536000479537952795BA95C9F7620F731F841F24
:10537000951FA01D0895B7FF0C94EB210E94EB210F
:10538000821B930B08952F923F924F925F926F92E0
:105390007F928F929F92AF92BF92CF92DF92EF92C5
:1053A000FF920F931F93CF93DF93CDB7DEB7CA1B46
:1053B000DB0B0FB6F894DEBF0FBECDBF09942A8871
:1053C000398848885F846E847D848C849B84AA8419
:1053D000B984C884DF80EE80FD800C811B81AA81A6
:1053E000B981CE0FD11D0FB6F894DEBF0FBECDBF71
:1053F000ED01089516E0C8E2D6E004C0FE010E9467
:0E540000F8212296CA32D107C9F7F894FFCFDF
:10540E0000004703800001000000FF00FCE1A8A897
:10541E00B308C40591089F0874120000B80A4B081F
:10542E007D0AFF070A090000F719F719496E636F25
:10543E006D696E67206368616E676520666F7220A6
:10544E0073656E736F723A002C204E6577207374FD
:10545E00617475733A20006661696C006263006F57
:10546E006B002100322E302E30003200575332386E
:10547E00787820506C61666F6E6400536574416C71
:10548E006C4F6666002E0072657175657374656487
:10549E004C6576656C2000206869676865737420BA
:1054AE00002070657263656E74206368616E676557
:1054BE00206973200000000000551CC11DD71BF091
:1054CE001BE21B331C0D0A006E616E00696E6600D6
:0454DE006F7666007F
:00000001FF
